{
	"SampleContract_flat.sol": {
		"SampleContract": {
			"abi": [
				{
					"inputs": [],
					"stateMutability": "nonpayable",
					"type": "constructor"
				},
				{
					"anonymous": false,
					"inputs": [
						{
							"indexed": true,
							"internalType": "address",
							"name": "owner",
							"type": "address"
						},
						{
							"indexed": true,
							"internalType": "address",
							"name": "spender",
							"type": "address"
						},
						{
							"indexed": false,
							"internalType": "uint256",
							"name": "value",
							"type": "uint256"
						}
					],
					"name": "Approval",
					"type": "event"
				},
				{
					"anonymous": false,
					"inputs": [
						{
							"indexed": true,
							"internalType": "address",
							"name": "previousOwner",
							"type": "address"
						},
						{
							"indexed": true,
							"internalType": "address",
							"name": "newOwner",
							"type": "address"
						}
					],
					"name": "OwnershipTransferred",
					"type": "event"
				},
				{
					"anonymous": false,
					"inputs": [
						{
							"indexed": false,
							"internalType": "address",
							"name": "account",
							"type": "address"
						}
					],
					"name": "Paused",
					"type": "event"
				},
				{
					"anonymous": false,
					"inputs": [
						{
							"indexed": true,
							"internalType": "address",
							"name": "from",
							"type": "address"
						},
						{
							"indexed": true,
							"internalType": "address",
							"name": "to",
							"type": "address"
						},
						{
							"indexed": false,
							"internalType": "uint256",
							"name": "value",
							"type": "uint256"
						}
					],
					"name": "Transfer",
					"type": "event"
				},
				{
					"anonymous": false,
					"inputs": [
						{
							"indexed": false,
							"internalType": "address",
							"name": "account",
							"type": "address"
						}
					],
					"name": "Unpaused",
					"type": "event"
				},
				{
					"inputs": [
						{
							"internalType": "address",
							"name": "owner",
							"type": "address"
						},
						{
							"internalType": "address",
							"name": "spender",
							"type": "address"
						}
					],
					"name": "allowance",
					"outputs": [
						{
							"internalType": "uint256",
							"name": "",
							"type": "uint256"
						}
					],
					"stateMutability": "view",
					"type": "function"
				},
				{
					"inputs": [
						{
							"internalType": "address",
							"name": "spender",
							"type": "address"
						},
						{
							"internalType": "uint256",
							"name": "amount",
							"type": "uint256"
						}
					],
					"name": "approve",
					"outputs": [
						{
							"internalType": "bool",
							"name": "",
							"type": "bool"
						}
					],
					"stateMutability": "nonpayable",
					"type": "function"
				},
				{
					"inputs": [
						{
							"internalType": "address",
							"name": "account",
							"type": "address"
						}
					],
					"name": "balanceOf",
					"outputs": [
						{
							"internalType": "uint256",
							"name": "",
							"type": "uint256"
						}
					],
					"stateMutability": "view",
					"type": "function"
				},
				{
					"inputs": [],
					"name": "balanceOf",
					"outputs": [
						{
							"internalType": "uint256",
							"name": "",
							"type": "uint256"
						}
					],
					"stateMutability": "view",
					"type": "function"
				},
				{
					"inputs": [],
					"name": "balanceOf1",
					"outputs": [
						{
							"internalType": "uint256",
							"name": "",
							"type": "uint256"
						}
					],
					"stateMutability": "view",
					"type": "function"
				},
				{
					"inputs": [
						{
							"internalType": "uint256",
							"name": "amount",
							"type": "uint256"
						}
					],
					"name": "burn",
					"outputs": [],
					"stateMutability": "nonpayable",
					"type": "function"
				},
				{
					"inputs": [
						{
							"internalType": "address",
							"name": "account",
							"type": "address"
						},
						{
							"internalType": "uint256",
							"name": "amount",
							"type": "uint256"
						}
					],
					"name": "burnFrom",
					"outputs": [],
					"stateMutability": "nonpayable",
					"type": "function"
				},
				{
					"inputs": [],
					"name": "decimals",
					"outputs": [
						{
							"internalType": "uint8",
							"name": "",
							"type": "uint8"
						}
					],
					"stateMutability": "view",
					"type": "function"
				},
				{
					"inputs": [
						{
							"internalType": "address",
							"name": "spender",
							"type": "address"
						},
						{
							"internalType": "uint256",
							"name": "subtractedValue",
							"type": "uint256"
						}
					],
					"name": "decreaseAllowance",
					"outputs": [
						{
							"internalType": "bool",
							"name": "",
							"type": "bool"
						}
					],
					"stateMutability": "nonpayable",
					"type": "function"
				},
				{
					"inputs": [],
					"name": "helloWorld",
					"outputs": [
						{
							"internalType": "string",
							"name": "",
							"type": "string"
						}
					],
					"stateMutability": "pure",
					"type": "function"
				},
				{
					"inputs": [
						{
							"internalType": "address",
							"name": "spender",
							"type": "address"
						},
						{
							"internalType": "uint256",
							"name": "addedValue",
							"type": "uint256"
						}
					],
					"name": "increaseAllowance",
					"outputs": [
						{
							"internalType": "bool",
							"name": "",
							"type": "bool"
						}
					],
					"stateMutability": "nonpayable",
					"type": "function"
				},
				{
					"inputs": [],
					"name": "invest",
					"outputs": [],
					"stateMutability": "payable",
					"type": "function"
				},
				{
					"inputs": [],
					"name": "name",
					"outputs": [
						{
							"internalType": "string",
							"name": "",
							"type": "string"
						}
					],
					"stateMutability": "view",
					"type": "function"
				},
				{
					"inputs": [],
					"name": "owner",
					"outputs": [
						{
							"internalType": "address",
							"name": "",
							"type": "address"
						}
					],
					"stateMutability": "view",
					"type": "function"
				},
				{
					"inputs": [],
					"name": "pause",
					"outputs": [],
					"stateMutability": "nonpayable",
					"type": "function"
				},
				{
					"inputs": [],
					"name": "paused",
					"outputs": [
						{
							"internalType": "bool",
							"name": "",
							"type": "bool"
						}
					],
					"stateMutability": "view",
					"type": "function"
				},
				{
					"inputs": [],
					"name": "renounceOwnership",
					"outputs": [],
					"stateMutability": "nonpayable",
					"type": "function"
				},
				{
					"inputs": [
						{
							"internalType": "address payable",
							"name": "recepient",
							"type": "address"
						},
						{
							"internalType": "uint256",
							"name": "_amount",
							"type": "uint256"
						}
					],
					"name": "sendEther",
					"outputs": [],
					"stateMutability": "nonpayable",
					"type": "function"
				},
				{
					"inputs": [],
					"name": "symbol",
					"outputs": [
						{
							"internalType": "string",
							"name": "",
							"type": "string"
						}
					],
					"stateMutability": "view",
					"type": "function"
				},
				{
					"inputs": [],
					"name": "totalSupply",
					"outputs": [
						{
							"internalType": "uint256",
							"name": "",
							"type": "uint256"
						}
					],
					"stateMutability": "view",
					"type": "function"
				},
				{
					"inputs": [
						{
							"internalType": "address",
							"name": "to",
							"type": "address"
						},
						{
							"internalType": "uint256",
							"name": "amount",
							"type": "uint256"
						}
					],
					"name": "transfer",
					"outputs": [
						{
							"internalType": "bool",
							"name": "",
							"type": "bool"
						}
					],
					"stateMutability": "nonpayable",
					"type": "function"
				},
				{
					"inputs": [
						{
							"internalType": "address",
							"name": "from",
							"type": "address"
						},
						{
							"internalType": "address",
							"name": "to",
							"type": "address"
						},
						{
							"internalType": "uint256",
							"name": "amount",
							"type": "uint256"
						}
					],
					"name": "transferFrom",
					"outputs": [
						{
							"internalType": "bool",
							"name": "",
							"type": "bool"
						}
					],
					"stateMutability": "nonpayable",
					"type": "function"
				},
				{
					"inputs": [
						{
							"internalType": "address",
							"name": "newOwner",
							"type": "address"
						}
					],
					"name": "transferOwnership",
					"outputs": [],
					"stateMutability": "nonpayable",
					"type": "function"
				},
				{
					"inputs": [],
					"name": "unpause",
					"outputs": [],
					"stateMutability": "nonpayable",
					"type": "function"
				}
			],
			"devdoc": {
				"kind": "dev",
				"methods": {
					"allowance(address,address)": {
						"details": "See {IERC20-allowance}."
					},
					"approve(address,uint256)": {
						"details": "See {IERC20-approve}. NOTE: If `amount` is the maximum `uint256`, the allowance is not updated on `transferFrom`. This is semantically equivalent to an infinite approval. Requirements: - `spender` cannot be the zero address."
					},
					"balanceOf(address)": {
						"details": "See {IERC20-balanceOf}."
					},
					"burn(uint256)": {
						"details": "Destroys `amount` tokens from the caller. See {ERC20-_burn}."
					},
					"burnFrom(address,uint256)": {
						"details": "Destroys `amount` tokens from `account`, deducting from the caller's allowance. See {ERC20-_burn} and {ERC20-allowance}. Requirements: - the caller must have allowance for ``accounts``'s tokens of at least `amount`."
					},
					"decimals()": {
						"details": "Returns the number of decimals used to get its user representation. For example, if `decimals` equals `2`, a balance of `505` tokens should be displayed to a user as `5.05` (`505 / 10 ** 2`). Tokens usually opt for a value of 18, imitating the relationship between Ether and Wei. This is the value {ERC20} uses, unless this function is overridden; NOTE: This information is only used for _display_ purposes: it in no way affects any of the arithmetic of the contract, including {IERC20-balanceOf} and {IERC20-transfer}."
					},
					"decreaseAllowance(address,uint256)": {
						"details": "Atomically decreases the allowance granted to `spender` by the caller. This is an alternative to {approve} that can be used as a mitigation for problems described in {IERC20-approve}. Emits an {Approval} event indicating the updated allowance. Requirements: - `spender` cannot be the zero address. - `spender` must have allowance for the caller of at least `subtractedValue`."
					},
					"increaseAllowance(address,uint256)": {
						"details": "Atomically increases the allowance granted to `spender` by the caller. This is an alternative to {approve} that can be used as a mitigation for problems described in {IERC20-approve}. Emits an {Approval} event indicating the updated allowance. Requirements: - `spender` cannot be the zero address."
					},
					"name()": {
						"details": "Returns the name of the token."
					},
					"owner()": {
						"details": "Returns the address of the current owner."
					},
					"paused()": {
						"details": "Returns true if the contract is paused, and false otherwise."
					},
					"renounceOwnership()": {
						"details": "Leaves the contract without owner. It will not be possible to call `onlyOwner` functions anymore. Can only be called by the current owner. NOTE: Renouncing ownership will leave the contract without an owner, thereby removing any functionality that is only available to the owner."
					},
					"symbol()": {
						"details": "Returns the symbol of the token, usually a shorter version of the name."
					},
					"totalSupply()": {
						"details": "See {IERC20-totalSupply}."
					},
					"transfer(address,uint256)": {
						"details": "See {IERC20-transfer}. Requirements: - `to` cannot be the zero address. - the caller must have a balance of at least `amount`."
					},
					"transferFrom(address,address,uint256)": {
						"details": "See {IERC20-transferFrom}. Emits an {Approval} event indicating the updated allowance. This is not required by the EIP. See the note at the beginning of {ERC20}. NOTE: Does not update the allowance if the current allowance is the maximum `uint256`. Requirements: - `from` and `to` cannot be the zero address. - `from` must have a balance of at least `amount`. - the caller must have allowance for ``from``'s tokens of at least `amount`."
					},
					"transferOwnership(address)": {
						"details": "Transfers ownership of the contract to a new account (`newOwner`). Can only be called by the current owner."
					}
				},
				"version": 1
			},
			"evm": {
				"assembly": "    /* \"SampleContract_flat.sol\":21899:23688  contract SampleContract is ERC20, Pausable, ERC20Burnable, Ownable {... */\n  mstore(0x40, 0x80)\n    /* \"SampleContract_flat.sol\":21972:22017  constructor() ERC20(\"CPosContract\", \"CPC\") {} */\n  callvalue\n  dup1\n  iszero\n  tag_1\n  jumpi\n  0x00\n  dup1\n  revert\ntag_1:\n  pop\n    /* \"SampleContract_flat.sol\":9670:9783  constructor(string memory name_, string memory symbol_) {... */\n  mload(0x40)\n  dup1\n  0x40\n  add\n  0x40\n  mstore\n  dup1\n  0x0c\n  dup2\n  mstore\n  0x20\n  add\n  0x43506f73436f6e74726163740000000000000000000000000000000000000000\n  dup2\n  mstore\n  pop\n  mload(0x40)\n  dup1\n  0x40\n  add\n  0x40\n  mstore\n  dup1\n  0x03\n  dup2\n  mstore\n  0x20\n  add\n  0x4350430000000000000000000000000000000000000000000000000000000000\n  dup2\n  mstore\n  pop\n    /* \"SampleContract_flat.sol\":9744:9749  name_ */\n  dup2\n    /* \"SampleContract_flat.sol\":9736:9741  _name */\n  0x03\n    /* \"SampleContract_flat.sol\":9736:9749  _name = name_ */\n  swap1\n  dup2\n  tag_7\n  swap2\n  swap1\n  tag_8\n  jump\t// in\ntag_7:\n  pop\n    /* \"SampleContract_flat.sol\":9769:9776  symbol_ */\n  dup1\n    /* \"SampleContract_flat.sol\":9759:9766  _symbol */\n  0x04\n    /* \"SampleContract_flat.sol\":9759:9776  _symbol = symbol_ */\n  swap1\n  dup2\n  tag_9\n  swap2\n  swap1\n  tag_8\n  jump\t// in\ntag_9:\n  pop\n    /* \"SampleContract_flat.sol\":9670:9783  constructor(string memory name_, string memory symbol_) {... */\n  pop\n  pop\n    /* \"SampleContract_flat.sol\":2719:2724  false */\n  0x00\n    /* \"SampleContract_flat.sol\":2709:2716  _paused */\n  0x05\n  0x00\n    /* \"SampleContract_flat.sol\":2709:2724  _paused = false */\n  0x0100\n  exp\n  dup2\n  sload\n  dup2\n  0xff\n  mul\n  not\n  and\n  swap1\n  dup4\n  iszero\n  iszero\n  mul\n  or\n  swap1\n  sstore\n  pop\n    /* \"SampleContract_flat.sol\":601:633  _transferOwnership(_msgSender()) */\n  tag_12\n    /* \"SampleContract_flat.sol\":620:632  _msgSender() */\n  tag_13\n    /* \"SampleContract_flat.sol\":620:630  _msgSender */\n  shl(0x20, tag_14)\n    /* \"SampleContract_flat.sol\":620:632  _msgSender() */\n  0x20\n  shr\n  jump\t// in\ntag_13:\n    /* \"SampleContract_flat.sol\":601:619  _transferOwnership */\n  shl(0x20, tag_15)\n    /* \"SampleContract_flat.sol\":601:633  _transferOwnership(_msgSender()) */\n  0x20\n  shr\n  jump\t// in\ntag_12:\n    /* \"SampleContract_flat.sol\":21899:23688  contract SampleContract is ERC20, Pausable, ERC20Burnable, Ownable {... */\n  jump(tag_17)\n    /* \"SampleContract_flat.sol\":89:185  function _msgSender() internal view virtual returns (address) {... */\ntag_14:\n    /* \"SampleContract_flat.sol\":142:149  address */\n  0x00\n    /* \"SampleContract_flat.sol\":168:178  msg.sender */\n  caller\n    /* \"SampleContract_flat.sol\":161:178  return msg.sender */\n  swap1\n  pop\n    /* \"SampleContract_flat.sol\":89:185  function _msgSender() internal view virtual returns (address) {... */\n  swap1\n  jump\t// out\n    /* \"SampleContract_flat.sol\":2098:2285  function _transferOwnership(address newOwner) internal virtual {... */\ntag_15:\n    /* \"SampleContract_flat.sol\":2171:2187  address oldOwner */\n  0x00\n    /* \"SampleContract_flat.sol\":2190:2196  _owner */\n  0x05\n  0x01\n  swap1\n  sload\n  swap1\n  0x0100\n  exp\n  swap1\n  div\n  0xffffffffffffffffffffffffffffffffffffffff\n  and\n    /* \"SampleContract_flat.sol\":2171:2196  address oldOwner = _owner */\n  swap1\n  pop\n    /* \"SampleContract_flat.sol\":2215:2223  newOwner */\n  dup2\n    /* \"SampleContract_flat.sol\":2206:2212  _owner */\n  0x05\n  0x01\n    /* \"SampleContract_flat.sol\":2206:2223  _owner = newOwner */\n  0x0100\n  exp\n  dup2\n  sload\n  dup2\n  0xffffffffffffffffffffffffffffffffffffffff\n  mul\n  not\n  and\n  swap1\n  dup4\n  0xffffffffffffffffffffffffffffffffffffffff\n  and\n  mul\n  or\n  swap1\n  sstore\n  pop\n    /* \"SampleContract_flat.sol\":2269:2277  newOwner */\n  dup2\n    /* \"SampleContract_flat.sol\":2238:2278  OwnershipTransferred(oldOwner, newOwner) */\n  0xffffffffffffffffffffffffffffffffffffffff\n  and\n    /* \"SampleContract_flat.sol\":2259:2267  oldOwner */\n  dup2\n    /* \"SampleContract_flat.sol\":2238:2278  OwnershipTransferred(oldOwner, newOwner) */\n  0xffffffffffffffffffffffffffffffffffffffff\n  and\n  0x8be0079c531659141344cd1fd0a4f28419497f9722a3daafe3b4186f6b6457e0\n  mload(0x40)\n  mload(0x40)\n  dup1\n  swap2\n  sub\n  swap1\n  log3\n    /* \"SampleContract_flat.sol\":2161:2285  {... */\n  pop\n    /* \"SampleContract_flat.sol\":2098:2285  function _transferOwnership(address newOwner) internal virtual {... */\n  pop\n  jump\t// out\n    /* \"#utility.yul\":7:106   */\ntag_20:\n    /* \"#utility.yul\":59:65   */\n  0x00\n    /* \"#utility.yul\":93:98   */\n  dup2\n    /* \"#utility.yul\":87:99   */\n  mload\n    /* \"#utility.yul\":77:99   */\n  swap1\n  pop\n    /* \"#utility.yul\":7:106   */\n  swap2\n  swap1\n  pop\n  jump\t// out\n    /* \"#utility.yul\":112:292   */\ntag_21:\n    /* \"#utility.yul\":160:237   */\n  0x4e487b7100000000000000000000000000000000000000000000000000000000\n    /* \"#utility.yul\":157:158   */\n  0x00\n    /* \"#utility.yul\":150:238   */\n  mstore\n    /* \"#utility.yul\":257:261   */\n  0x41\n    /* \"#utility.yul\":254:255   */\n  0x04\n    /* \"#utility.yul\":247:262   */\n  mstore\n    /* \"#utility.yul\":281:285   */\n  0x24\n    /* \"#utility.yul\":278:279   */\n  0x00\n    /* \"#utility.yul\":271:286   */\n  revert\n    /* \"#utility.yul\":298:478   */\ntag_22:\n    /* \"#utility.yul\":346:423   */\n  0x4e487b7100000000000000000000000000000000000000000000000000000000\n    /* \"#utility.yul\":343:344   */\n  0x00\n    /* \"#utility.yul\":336:424   */\n  mstore\n    /* \"#utility.yul\":443:447   */\n  0x22\n    /* \"#utility.yul\":440:441   */\n  0x04\n    /* \"#utility.yul\":433:448   */\n  mstore\n    /* \"#utility.yul\":467:471   */\n  0x24\n    /* \"#utility.yul\":464:465   */\n  0x00\n    /* \"#utility.yul\":457:472   */\n  revert\n    /* \"#utility.yul\":484:804   */\ntag_23:\n    /* \"#utility.yul\":528:534   */\n  0x00\n    /* \"#utility.yul\":565:566   */\n  0x02\n    /* \"#utility.yul\":559:563   */\n  dup3\n    /* \"#utility.yul\":555:567   */\n  div\n    /* \"#utility.yul\":545:567   */\n  swap1\n  pop\n    /* \"#utility.yul\":612:613   */\n  0x01\n    /* \"#utility.yul\":606:610   */\n  dup3\n    /* \"#utility.yul\":602:614   */\n  and\n    /* \"#utility.yul\":633:651   */\n  dup1\n    /* \"#utility.yul\":623:704   */\n  tag_45\n  jumpi\n    /* \"#utility.yul\":689:693   */\n  0x7f\n    /* \"#utility.yul\":681:687   */\n  dup3\n    /* \"#utility.yul\":677:694   */\n  and\n    /* \"#utility.yul\":667:694   */\n  swap2\n  pop\n    /* \"#utility.yul\":623:704   */\ntag_45:\n    /* \"#utility.yul\":751:753   */\n  0x20\n    /* \"#utility.yul\":743:749   */\n  dup3\n    /* \"#utility.yul\":740:754   */\n  lt\n    /* \"#utility.yul\":720:738   */\n  dup2\n    /* \"#utility.yul\":717:755   */\n  sub\n    /* \"#utility.yul\":714:798   */\n  tag_46\n  jumpi\n    /* \"#utility.yul\":770:788   */\n  tag_47\n  tag_22\n  jump\t// in\ntag_47:\n    /* \"#utility.yul\":714:798   */\ntag_46:\n    /* \"#utility.yul\":535:804   */\n  pop\n    /* \"#utility.yul\":484:804   */\n  swap2\n  swap1\n  pop\n  jump\t// out\n    /* \"#utility.yul\":810:951   */\ntag_24:\n    /* \"#utility.yul\":859:863   */\n  0x00\n    /* \"#utility.yul\":882:885   */\n  dup2\n    /* \"#utility.yul\":874:885   */\n  swap1\n  pop\n    /* \"#utility.yul\":905:908   */\n  dup2\n    /* \"#utility.yul\":902:903   */\n  0x00\n    /* \"#utility.yul\":895:909   */\n  mstore\n    /* \"#utility.yul\":939:943   */\n  0x20\n    /* \"#utility.yul\":936:937   */\n  0x00\n    /* \"#utility.yul\":926:944   */\n  keccak256\n    /* \"#utility.yul\":918:944   */\n  swap1\n  pop\n    /* \"#utility.yul\":810:951   */\n  swap2\n  swap1\n  pop\n  jump\t// out\n    /* \"#utility.yul\":957:1050   */\ntag_25:\n    /* \"#utility.yul\":994:1000   */\n  0x00\n    /* \"#utility.yul\":1041:1043   */\n  0x20\n    /* \"#utility.yul\":1036:1038   */\n  0x1f\n    /* \"#utility.yul\":1029:1034   */\n  dup4\n    /* \"#utility.yul\":1025:1039   */\n  add\n    /* \"#utility.yul\":1021:1044   */\n  div\n    /* \"#utility.yul\":1011:1044   */\n  swap1\n  pop\n    /* \"#utility.yul\":957:1050   */\n  swap2\n  swap1\n  pop\n  jump\t// out\n    /* \"#utility.yul\":1056:1163   */\ntag_26:\n    /* \"#utility.yul\":1100:1108   */\n  0x00\n    /* \"#utility.yul\":1150:1155   */\n  dup3\n    /* \"#utility.yul\":1144:1148   */\n  dup3\n    /* \"#utility.yul\":1140:1156   */\n  shl\n    /* \"#utility.yul\":1119:1156   */\n  swap1\n  pop\n    /* \"#utility.yul\":1056:1163   */\n  swap3\n  swap2\n  pop\n  pop\n  jump\t// out\n    /* \"#utility.yul\":1169:1562   */\ntag_27:\n    /* \"#utility.yul\":1238:1244   */\n  0x00\n    /* \"#utility.yul\":1288:1289   */\n  0x08\n    /* \"#utility.yul\":1276:1286   */\n  dup4\n    /* \"#utility.yul\":1272:1290   */\n  mul\n    /* \"#utility.yul\":1311:1408   */\n  tag_52\n    /* \"#utility.yul\":1341:1407   */\n  0xffffffffffffffffffffffffffffffffffffffffffffffffffffffffffffffff\n    /* \"#utility.yul\":1330:1339   */\n  dup3\n    /* \"#utility.yul\":1311:1408   */\n  tag_26\n  jump\t// in\ntag_52:\n    /* \"#utility.yul\":1429:1468   */\n  tag_53\n    /* \"#utility.yul\":1459:1467   */\n  dup7\n    /* \"#utility.yul\":1448:1457   */\n  dup4\n    /* \"#utility.yul\":1429:1468   */\n  tag_26\n  jump\t// in\ntag_53:\n    /* \"#utility.yul\":1417:1468   */\n  swap6\n  pop\n    /* \"#utility.yul\":1501:1505   */\n  dup1\n    /* \"#utility.yul\":1497:1506   */\n  not\n    /* \"#utility.yul\":1490:1495   */\n  dup5\n    /* \"#utility.yul\":1486:1507   */\n  and\n    /* \"#utility.yul\":1477:1507   */\n  swap4\n  pop\n    /* \"#utility.yul\":1550:1554   */\n  dup1\n    /* \"#utility.yul\":1540:1548   */\n  dup7\n    /* \"#utility.yul\":1536:1555   */\n  and\n    /* \"#utility.yul\":1529:1534   */\n  dup5\n    /* \"#utility.yul\":1526:1556   */\n  or\n    /* \"#utility.yul\":1516:1556   */\n  swap3\n  pop\n    /* \"#utility.yul\":1245:1562   */\n  pop\n  pop\n    /* \"#utility.yul\":1169:1562   */\n  swap4\n  swap3\n  pop\n  pop\n  pop\n  jump\t// out\n    /* \"#utility.yul\":1568:1645   */\ntag_28:\n    /* \"#utility.yul\":1605:1612   */\n  0x00\n    /* \"#utility.yul\":1634:1639   */\n  dup2\n    /* \"#utility.yul\":1623:1639   */\n  swap1\n  pop\n    /* \"#utility.yul\":1568:1645   */\n  swap2\n  swap1\n  pop\n  jump\t// out\n    /* \"#utility.yul\":1651:1711   */\ntag_29:\n    /* \"#utility.yul\":1679:1682   */\n  0x00\n    /* \"#utility.yul\":1700:1705   */\n  dup2\n    /* \"#utility.yul\":1693:1705   */\n  swap1\n  pop\n    /* \"#utility.yul\":1651:1711   */\n  swap2\n  swap1\n  pop\n  jump\t// out\n    /* \"#utility.yul\":1717:1859   */\ntag_30:\n    /* \"#utility.yul\":1767:1776   */\n  0x00\n    /* \"#utility.yul\":1800:1853   */\n  tag_57\n    /* \"#utility.yul\":1818:1852   */\n  tag_58\n    /* \"#utility.yul\":1827:1851   */\n  tag_59\n    /* \"#utility.yul\":1845:1850   */\n  dup5\n    /* \"#utility.yul\":1827:1851   */\n  tag_28\n  jump\t// in\ntag_59:\n    /* \"#utility.yul\":1818:1852   */\n  tag_29\n  jump\t// in\ntag_58:\n    /* \"#utility.yul\":1800:1853   */\n  tag_28\n  jump\t// in\ntag_57:\n    /* \"#utility.yul\":1787:1853   */\n  swap1\n  pop\n    /* \"#utility.yul\":1717:1859   */\n  swap2\n  swap1\n  pop\n  jump\t// out\n    /* \"#utility.yul\":1865:1940   */\ntag_31:\n    /* \"#utility.yul\":1908:1911   */\n  0x00\n    /* \"#utility.yul\":1929:1934   */\n  dup2\n    /* \"#utility.yul\":1922:1934   */\n  swap1\n  pop\n    /* \"#utility.yul\":1865:1940   */\n  swap2\n  swap1\n  pop\n  jump\t// out\n    /* \"#utility.yul\":1946:2215   */\ntag_32:\n    /* \"#utility.yul\":2056:2095   */\n  tag_62\n    /* \"#utility.yul\":2087:2094   */\n  dup4\n    /* \"#utility.yul\":2056:2095   */\n  tag_30\n  jump\t// in\ntag_62:\n    /* \"#utility.yul\":2117:2208   */\n  tag_63\n    /* \"#utility.yul\":2166:2207   */\n  tag_64\n    /* \"#utility.yul\":2190:2206   */\n  dup3\n    /* \"#utility.yul\":2166:2207   */\n  tag_31\n  jump\t// in\ntag_64:\n    /* \"#utility.yul\":2158:2164   */\n  dup5\n    /* \"#utility.yul\":2151:2155   */\n  dup5\n    /* \"#utility.yul\":2145:2156   */\n  sload\n    /* \"#utility.yul\":2117:2208   */\n  tag_27\n  jump\t// in\ntag_63:\n    /* \"#utility.yul\":2111:2115   */\n  dup3\n    /* \"#utility.yul\":2104:2209   */\n  sstore\n    /* \"#utility.yul\":2022:2215   */\n  pop\n    /* \"#utility.yul\":1946:2215   */\n  pop\n  pop\n  pop\n  jump\t// out\n    /* \"#utility.yul\":2221:2294   */\ntag_33:\n    /* \"#utility.yul\":2266:2269   */\n  0x00\n    /* \"#utility.yul\":2221:2294   */\n  swap1\n  jump\t// out\n    /* \"#utility.yul\":2300:2489   */\ntag_34:\n    /* \"#utility.yul\":2377:2409   */\n  tag_67\n  tag_33\n  jump\t// in\ntag_67:\n    /* \"#utility.yul\":2418:2483   */\n  tag_68\n    /* \"#utility.yul\":2476:2482   */\n  dup2\n    /* \"#utility.yul\":2468:2474   */\n  dup5\n    /* \"#utility.yul\":2462:2466   */\n  dup5\n    /* \"#utility.yul\":2418:2483   */\n  tag_32\n  jump\t// in\ntag_68:\n    /* \"#utility.yul\":2353:2489   */\n  pop\n    /* \"#utility.yul\":2300:2489   */\n  pop\n  pop\n  jump\t// out\n    /* \"#utility.yul\":2495:2681   */\ntag_35:\n    /* \"#utility.yul\":2555:2675   */\ntag_70:\n    /* \"#utility.yul\":2572:2575   */\n  dup2\n    /* \"#utility.yul\":2565:2570   */\n  dup2\n    /* \"#utility.yul\":2562:2576   */\n  lt\n    /* \"#utility.yul\":2555:2675   */\n  iszero\n  tag_72\n  jumpi\n    /* \"#utility.yul\":2626:2665   */\n  tag_73\n    /* \"#utility.yul\":2663:2664   */\n  0x00\n    /* \"#utility.yul\":2656:2661   */\n  dup3\n    /* \"#utility.yul\":2626:2665   */\n  tag_34\n  jump\t// in\ntag_73:\n    /* \"#utility.yul\":2599:2600   */\n  0x01\n    /* \"#utility.yul\":2592:2597   */\n  dup2\n    /* \"#utility.yul\":2588:2601   */\n  add\n    /* \"#utility.yul\":2579:2601   */\n  swap1\n  pop\n    /* \"#utility.yul\":2555:2675   */\n  jump(tag_70)\ntag_72:\n    /* \"#utility.yul\":2495:2681   */\n  pop\n  pop\n  jump\t// out\n    /* \"#utility.yul\":2687:3230   */\ntag_36:\n    /* \"#utility.yul\":2788:2790   */\n  0x1f\n    /* \"#utility.yul\":2783:2786   */\n  dup3\n    /* \"#utility.yul\":2780:2791   */\n  gt\n    /* \"#utility.yul\":2777:3223   */\n  iszero\n  tag_75\n  jumpi\n    /* \"#utility.yul\":2822:2860   */\n  tag_76\n    /* \"#utility.yul\":2854:2859   */\n  dup2\n    /* \"#utility.yul\":2822:2860   */\n  tag_24\n  jump\t// in\ntag_76:\n    /* \"#utility.yul\":2906:2935   */\n  tag_77\n    /* \"#utility.yul\":2924:2934   */\n  dup5\n    /* \"#utility.yul\":2906:2935   */\n  tag_25\n  jump\t// in\ntag_77:\n    /* \"#utility.yul\":2896:2904   */\n  dup2\n    /* \"#utility.yul\":2892:2936   */\n  add\n    /* \"#utility.yul\":3089:3091   */\n  0x20\n    /* \"#utility.yul\":3077:3087   */\n  dup6\n    /* \"#utility.yul\":3074:3092   */\n  lt\n    /* \"#utility.yul\":3071:3120   */\n  iszero\n  tag_78\n  jumpi\n    /* \"#utility.yul\":3110:3118   */\n  dup2\n    /* \"#utility.yul\":3095:3118   */\n  swap1\n  pop\n    /* \"#utility.yul\":3071:3120   */\ntag_78:\n    /* \"#utility.yul\":3133:3213   */\n  tag_79\n    /* \"#utility.yul\":3189:3211   */\n  tag_80\n    /* \"#utility.yul\":3207:3210   */\n  dup6\n    /* \"#utility.yul\":3189:3211   */\n  tag_25\n  jump\t// in\ntag_80:\n    /* \"#utility.yul\":3179:3187   */\n  dup4\n    /* \"#utility.yul\":3175:3212   */\n  add\n    /* \"#utility.yul\":3162:3173   */\n  dup3\n    /* \"#utility.yul\":3133:3213   */\n  tag_35\n  jump\t// in\ntag_79:\n    /* \"#utility.yul\":2792:3223   */\n  pop\n  pop\n    /* \"#utility.yul\":2777:3223   */\ntag_75:\n    /* \"#utility.yul\":2687:3230   */\n  pop\n  pop\n  pop\n  jump\t// out\n    /* \"#utility.yul\":3236:3353   */\ntag_37:\n    /* \"#utility.yul\":3290:3298   */\n  0x00\n    /* \"#utility.yul\":3340:3345   */\n  dup3\n    /* \"#utility.yul\":3334:3338   */\n  dup3\n    /* \"#utility.yul\":3330:3346   */\n  shr\n    /* \"#utility.yul\":3309:3346   */\n  swap1\n  pop\n    /* \"#utility.yul\":3236:3353   */\n  swap3\n  swap2\n  pop\n  pop\n  jump\t// out\n    /* \"#utility.yul\":3359:3528   */\ntag_38:\n    /* \"#utility.yul\":3403:3409   */\n  0x00\n    /* \"#utility.yul\":3436:3487   */\n  tag_83\n    /* \"#utility.yul\":3484:3485   */\n  0x00\n    /* \"#utility.yul\":3480:3486   */\n  not\n    /* \"#utility.yul\":3472:3477   */\n  dup5\n    /* \"#utility.yul\":3469:3470   */\n  0x08\n    /* \"#utility.yul\":3465:3478   */\n  mul\n    /* \"#utility.yul\":3436:3487   */\n  tag_37\n  jump\t// in\ntag_83:\n    /* \"#utility.yul\":3432:3488   */\n  not\n    /* \"#utility.yul\":3517:3521   */\n  dup1\n    /* \"#utility.yul\":3511:3515   */\n  dup4\n    /* \"#utility.yul\":3507:3522   */\n  and\n    /* \"#utility.yul\":3497:3522   */\n  swap2\n  pop\n    /* \"#utility.yul\":3410:3528   */\n  pop\n    /* \"#utility.yul\":3359:3528   */\n  swap3\n  swap2\n  pop\n  pop\n  jump\t// out\n    /* \"#utility.yul\":3533:3828   */\ntag_39:\n    /* \"#utility.yul\":3609:3613   */\n  0x00\n    /* \"#utility.yul\":3755:3784   */\n  tag_85\n    /* \"#utility.yul\":3780:3783   */\n  dup4\n    /* \"#utility.yul\":3774:3778   */\n  dup4\n    /* \"#utility.yul\":3755:3784   */\n  tag_38\n  jump\t// in\ntag_85:\n    /* \"#utility.yul\":3747:3784   */\n  swap2\n  pop\n    /* \"#utility.yul\":3817:3820   */\n  dup3\n    /* \"#utility.yul\":3814:3815   */\n  0x02\n    /* \"#utility.yul\":3810:3821   */\n  mul\n    /* \"#utility.yul\":3804:3808   */\n  dup3\n    /* \"#utility.yul\":3801:3822   */\n  or\n    /* \"#utility.yul\":3793:3822   */\n  swap1\n  pop\n    /* \"#utility.yul\":3533:3828   */\n  swap3\n  swap2\n  pop\n  pop\n  jump\t// out\n    /* \"#utility.yul\":3833:5228   */\ntag_8:\n    /* \"#utility.yul\":3950:3987   */\n  tag_87\n    /* \"#utility.yul\":3983:3986   */\n  dup3\n    /* \"#utility.yul\":3950:3987   */\n  tag_20\n  jump\t// in\ntag_87:\n    /* \"#utility.yul\":4052:4070   */\n  0xffffffffffffffff\n    /* \"#utility.yul\":4044:4050   */\n  dup2\n    /* \"#utility.yul\":4041:4071   */\n  gt\n    /* \"#utility.yul\":4038:4094   */\n  iszero\n  tag_88\n  jumpi\n    /* \"#utility.yul\":4074:4092   */\n  tag_89\n  tag_21\n  jump\t// in\ntag_89:\n    /* \"#utility.yul\":4038:4094   */\ntag_88:\n    /* \"#utility.yul\":4118:4156   */\n  tag_90\n    /* \"#utility.yul\":4150:4154   */\n  dup3\n    /* \"#utility.yul\":4144:4155   */\n  sload\n    /* \"#utility.yul\":4118:4156   */\n  tag_23\n  jump\t// in\ntag_90:\n    /* \"#utility.yul\":4203:4270   */\n  tag_91\n    /* \"#utility.yul\":4263:4269   */\n  dup3\n    /* \"#utility.yul\":4255:4261   */\n  dup3\n    /* \"#utility.yul\":4249:4253   */\n  dup6\n    /* \"#utility.yul\":4203:4270   */\n  tag_36\n  jump\t// in\ntag_91:\n    /* \"#utility.yul\":4297:4298   */\n  0x00\n    /* \"#utility.yul\":4321:4325   */\n  0x20\n    /* \"#utility.yul\":4308:4325   */\n  swap1\n  pop\n    /* \"#utility.yul\":4353:4355   */\n  0x1f\n    /* \"#utility.yul\":4345:4351   */\n  dup4\n    /* \"#utility.yul\":4342:4356   */\n  gt\n    /* \"#utility.yul\":4370:4371   */\n  0x01\n    /* \"#utility.yul\":4365:4983   */\n  dup2\n  eq\n  tag_93\n  jumpi\n    /* \"#utility.yul\":5027:5028   */\n  0x00\n    /* \"#utility.yul\":5044:5050   */\n  dup5\n    /* \"#utility.yul\":5041:5118   */\n  iszero\n  tag_94\n  jumpi\n    /* \"#utility.yul\":5093:5102   */\n  dup3\n    /* \"#utility.yul\":5088:5091   */\n  dup8\n    /* \"#utility.yul\":5084:5103   */\n  add\n    /* \"#utility.yul\":5078:5104   */\n  mload\n    /* \"#utility.yul\":5069:5104   */\n  swap1\n  pop\n    /* \"#utility.yul\":5041:5118   */\ntag_94:\n    /* \"#utility.yul\":5144:5211   */\n  tag_95\n    /* \"#utility.yul\":5204:5210   */\n  dup6\n    /* \"#utility.yul\":5197:5202   */\n  dup3\n    /* \"#utility.yul\":5144:5211   */\n  tag_39\n  jump\t// in\ntag_95:\n    /* \"#utility.yul\":5138:5142   */\n  dup7\n    /* \"#utility.yul\":5131:5212   */\n  sstore\n    /* \"#utility.yul\":5000:5222   */\n  pop\n    /* \"#utility.yul\":4335:5222   */\n  jump(tag_92)\n    /* \"#utility.yul\":4365:4983   */\ntag_93:\n    /* \"#utility.yul\":4417:4421   */\n  0x1f\n    /* \"#utility.yul\":4413:4422   */\n  not\n    /* \"#utility.yul\":4405:4411   */\n  dup5\n    /* \"#utility.yul\":4401:4423   */\n  and\n    /* \"#utility.yul\":4451:4488   */\n  tag_96\n    /* \"#utility.yul\":4483:4487   */\n  dup7\n    /* \"#utility.yul\":4451:4488   */\n  tag_24\n  jump\t// in\ntag_96:\n    /* \"#utility.yul\":4510:4511   */\n  0x00\n    /* \"#utility.yul\":4524:4732   */\ntag_97:\n    /* \"#utility.yul\":4538:4545   */\n  dup3\n    /* \"#utility.yul\":4535:4536   */\n  dup2\n    /* \"#utility.yul\":4532:4546   */\n  lt\n    /* \"#utility.yul\":4524:4732   */\n  iszero\n  tag_99\n  jumpi\n    /* \"#utility.yul\":4617:4626   */\n  dup5\n    /* \"#utility.yul\":4612:4615   */\n  dup10\n    /* \"#utility.yul\":4608:4627   */\n  add\n    /* \"#utility.yul\":4602:4628   */\n  mload\n    /* \"#utility.yul\":4594:4600   */\n  dup3\n    /* \"#utility.yul\":4587:4629   */\n  sstore\n    /* \"#utility.yul\":4668:4669   */\n  0x01\n    /* \"#utility.yul\":4660:4666   */\n  dup3\n    /* \"#utility.yul\":4656:4670   */\n  add\n    /* \"#utility.yul\":4646:4670   */\n  swap2\n  pop\n    /* \"#utility.yul\":4715:4717   */\n  0x20\n    /* \"#utility.yul\":4704:4713   */\n  dup6\n    /* \"#utility.yul\":4700:4718   */\n  add\n    /* \"#utility.yul\":4687:4718   */\n  swap5\n  pop\n    /* \"#utility.yul\":4561:4565   */\n  0x20\n    /* \"#utility.yul\":4558:4559   */\n  dup2\n    /* \"#utility.yul\":4554:4566   */\n  add\n    /* \"#utility.yul\":4549:4566   */\n  swap1\n  pop\n    /* \"#utility.yul\":4524:4732   */\n  jump(tag_97)\ntag_99:\n    /* \"#utility.yul\":4760:4766   */\n  dup7\n    /* \"#utility.yul\":4751:4758   */\n  dup4\n    /* \"#utility.yul\":4748:4767   */\n  lt\n    /* \"#utility.yul\":4745:4924   */\n  iszero\n  tag_100\n  jumpi\n    /* \"#utility.yul\":4818:4827   */\n  dup5\n    /* \"#utility.yul\":4813:4816   */\n  dup10\n    /* \"#utility.yul\":4809:4828   */\n  add\n    /* \"#utility.yul\":4803:4829   */\n  mload\n    /* \"#utility.yul\":4861:4909   */\n  tag_101\n    /* \"#utility.yul\":4903:4907   */\n  0x1f\n    /* \"#utility.yul\":4895:4901   */\n  dup10\n    /* \"#utility.yul\":4891:4908   */\n  and\n    /* \"#utility.yul\":4880:4889   */\n  dup3\n    /* \"#utility.yul\":4861:4909   */\n  tag_38\n  jump\t// in\ntag_101:\n    /* \"#utility.yul\":4853:4859   */\n  dup4\n    /* \"#utility.yul\":4846:4910   */\n  sstore\n    /* \"#utility.yul\":4768:4924   */\n  pop\n    /* \"#utility.yul\":4745:4924   */\ntag_100:\n    /* \"#utility.yul\":4970:4971   */\n  0x01\n    /* \"#utility.yul\":4966:4967   */\n  0x02\n    /* \"#utility.yul\":4958:4964   */\n  dup9\n    /* \"#utility.yul\":4954:4968   */\n  mul\n    /* \"#utility.yul\":4950:4972   */\n  add\n    /* \"#utility.yul\":4944:4948   */\n  dup9\n    /* \"#utility.yul\":4937:4973   */\n  sstore\n    /* \"#utility.yul\":4372:4983   */\n  pop\n  pop\n  pop\n    /* \"#utility.yul\":4335:5222   */\ntag_92:\n  pop\n    /* \"#utility.yul\":3925:5228   */\n  pop\n  pop\n  pop\n    /* \"#utility.yul\":3833:5228   */\n  pop\n  pop\n  jump\t// out\n    /* \"SampleContract_flat.sol\":21899:23688  contract SampleContract is ERC20, Pausable, ERC20Burnable, Ownable {... */\ntag_17:\n  dataSize(sub_0)\n  dup1\n  dataOffset(sub_0)\n  0x00\n  codecopy\n  0x00\n  return\nstop\n\nsub_0: assembly {\n        /* \"SampleContract_flat.sol\":21899:23688  contract SampleContract is ERC20, Pausable, ERC20Burnable, Ownable {... */\n      mstore(0x40, 0x80)\n      jumpi(tag_1, lt(calldatasize, 0x04))\n      shr(0xe0, calldataload(0x00))\n      dup1\n      0x722713f7\n      gt\n      tag_26\n      jumpi\n      dup1\n      0xa9059cbb\n      gt\n      tag_27\n      jumpi\n      dup1\n      0xa9059cbb\n      eq\n      tag_20\n      jumpi\n      dup1\n      0xc1756a2c\n      eq\n      tag_21\n      jumpi\n      dup1\n      0xc605f76c\n      eq\n      tag_22\n      jumpi\n      dup1\n      0xdd62ed3e\n      eq\n      tag_23\n      jumpi\n      dup1\n      0xe8b5e51f\n      eq\n      tag_24\n      jumpi\n      dup1\n      0xf2fde38b\n      eq\n      tag_25\n      jumpi\n      jump(tag_1)\n    tag_27:\n      dup1\n      0x722713f7\n      eq\n      tag_14\n      jumpi\n      dup1\n      0x79cc6790\n      eq\n      tag_15\n      jumpi\n      dup1\n      0x8456cb59\n      eq\n      tag_16\n      jumpi\n      dup1\n      0x8da5cb5b\n      eq\n      tag_17\n      jumpi\n      dup1\n      0x95d89b41\n      eq\n      tag_18\n      jumpi\n      dup1\n      0xa457c2d7\n      eq\n      tag_19\n      jumpi\n      jump(tag_1)\n    tag_26:\n      dup1\n      0x39509351\n      gt\n      tag_28\n      jumpi\n      dup1\n      0x39509351\n      eq\n      tag_8\n      jumpi\n      dup1\n      0x3f4ba83a\n      eq\n      tag_9\n      jumpi\n      dup1\n      0x42966c68\n      eq\n      tag_10\n      jumpi\n      dup1\n      0x5c975abb\n      eq\n      tag_11\n      jumpi\n      dup1\n      0x70a08231\n      eq\n      tag_12\n      jumpi\n      dup1\n      0x715018a6\n      eq\n      tag_13\n      jumpi\n      jump(tag_1)\n    tag_28:\n      dup1\n      0x06fdde03\n      eq\n      tag_2\n      jumpi\n      dup1\n      0x095ea7b3\n      eq\n      tag_3\n      jumpi\n      dup1\n      0x18160ddd\n      eq\n      tag_4\n      jumpi\n      dup1\n      0x1bb2cb1f\n      eq\n      tag_5\n      jumpi\n      dup1\n      0x23b872dd\n      eq\n      tag_6\n      jumpi\n      dup1\n      0x313ce567\n      eq\n      tag_7\n      jumpi\n    tag_1:\n      0x00\n      dup1\n      revert\n        /* \"SampleContract_flat.sol\":9848:9946  function name() public view virtual override returns (string memory) {... */\n    tag_2:\n      callvalue\n      dup1\n      iszero\n      tag_29\n      jumpi\n      0x00\n      dup1\n      revert\n    tag_29:\n      pop\n      tag_30\n      tag_31\n      jump\t// in\n    tag_30:\n      mload(0x40)\n      tag_32\n      swap2\n      swap1\n      tag_33\n      jump\t// in\n    tag_32:\n      mload(0x40)\n      dup1\n      swap2\n      sub\n      swap1\n      return\n        /* \"SampleContract_flat.sol\":12125:12322  function approve(address spender, uint256 amount) public virtual override returns (bool) {... */\n    tag_3:\n      callvalue\n      dup1\n      iszero\n      tag_34\n      jumpi\n      0x00\n      dup1\n      revert\n    tag_34:\n      pop\n      tag_35\n      0x04\n      dup1\n      calldatasize\n      sub\n      dup2\n      add\n      swap1\n      tag_36\n      swap2\n      swap1\n      tag_37\n      jump\t// in\n    tag_36:\n      tag_38\n      jump\t// in\n    tag_35:\n      mload(0x40)\n      tag_39\n      swap2\n      swap1\n      tag_40\n      jump\t// in\n    tag_39:\n      mload(0x40)\n      dup1\n      swap2\n      sub\n      swap1\n      return\n        /* \"SampleContract_flat.sol\":10936:11042  function totalSupply() public view virtual override returns (uint256) {... */\n    tag_4:\n      callvalue\n      dup1\n      iszero\n      tag_41\n      jumpi\n      0x00\n      dup1\n      revert\n    tag_41:\n      pop\n      tag_42\n      tag_43\n      jump\t// in\n    tag_42:\n      mload(0x40)\n      tag_44\n      swap2\n      swap1\n      tag_45\n      jump\t// in\n    tag_44:\n      mload(0x40)\n      dup1\n      swap2\n      sub\n      swap1\n      return\n        /* \"SampleContract_flat.sol\":23248:23347  function balanceOf1() external view returns (uint256) {... */\n    tag_5:\n      callvalue\n      dup1\n      iszero\n      tag_46\n      jumpi\n      0x00\n      dup1\n      revert\n    tag_46:\n      pop\n      tag_47\n      tag_48\n      jump\t// in\n    tag_47:\n      mload(0x40)\n      tag_49\n      swap2\n      swap1\n      tag_45\n      jump\t// in\n    tag_49:\n      mload(0x40)\n      dup1\n      swap2\n      sub\n      swap1\n      return\n        /* \"SampleContract_flat.sol\":12884:13170  function transferFrom(... */\n    tag_6:\n      callvalue\n      dup1\n      iszero\n      tag_50\n      jumpi\n      0x00\n      dup1\n      revert\n    tag_50:\n      pop\n      tag_51\n      0x04\n      dup1\n      calldatasize\n      sub\n      dup2\n      add\n      swap1\n      tag_52\n      swap2\n      swap1\n      tag_53\n      jump\t// in\n    tag_52:\n      tag_54\n      jump\t// in\n    tag_51:\n      mload(0x40)\n      tag_55\n      swap2\n      swap1\n      tag_40\n      jump\t// in\n    tag_55:\n      mload(0x40)\n      dup1\n      swap2\n      sub\n      swap1\n      return\n        /* \"SampleContract_flat.sol\":10785:10876  function decimals() public view virtual override returns (uint8) {... */\n    tag_7:\n      callvalue\n      dup1\n      iszero\n      tag_56\n      jumpi\n      0x00\n      dup1\n      revert\n    tag_56:\n      pop\n      tag_57\n      tag_58\n      jump\t// in\n    tag_57:\n      mload(0x40)\n      tag_59\n      swap2\n      swap1\n      tag_60\n      jump\t// in\n    tag_59:\n      mload(0x40)\n      dup1\n      swap2\n      sub\n      swap1\n      return\n        /* \"SampleContract_flat.sol\":13565:13799  function increaseAllowance(address spender, uint256 addedValue) public virtual returns (bool) {... */\n    tag_8:\n      callvalue\n      dup1\n      iszero\n      tag_61\n      jumpi\n      0x00\n      dup1\n      revert\n    tag_61:\n      pop\n      tag_62\n      0x04\n      dup1\n      calldatasize\n      sub\n      dup2\n      add\n      swap1\n      tag_63\n      swap2\n      swap1\n      tag_37\n      jump\t// in\n    tag_63:\n      tag_64\n      jump\t// in\n    tag_62:\n      mload(0x40)\n      tag_65\n      swap2\n      swap1\n      tag_40\n      jump\t// in\n    tag_65:\n      mload(0x40)\n      dup1\n      swap2\n      sub\n      swap1\n      return\n        /* \"SampleContract_flat.sol\":22445:22508  function unpause() public onlyOwner {... */\n    tag_9:\n      callvalue\n      dup1\n      iszero\n      tag_66\n      jumpi\n      0x00\n      dup1\n      revert\n    tag_66:\n      pop\n      tag_67\n      tag_68\n      jump\t// in\n    tag_67:\n      stop\n        /* \"SampleContract_flat.sol\":22967:23067  function burn(uint256 amount) public override onlyOwner {... */\n    tag_10:\n      callvalue\n      dup1\n      iszero\n      tag_69\n      jumpi\n      0x00\n      dup1\n      revert\n    tag_69:\n      pop\n      tag_70\n      0x04\n      dup1\n      calldatasize\n      sub\n      dup2\n      add\n      swap1\n      tag_71\n      swap2\n      swap1\n      tag_72\n      jump\t// in\n    tag_71:\n      tag_73\n      jump\t// in\n    tag_70:\n      stop\n        /* \"SampleContract_flat.sol\":3328:3412  function paused() public view virtual returns (bool) {... */\n    tag_11:\n      callvalue\n      dup1\n      iszero\n      tag_74\n      jumpi\n      0x00\n      dup1\n      revert\n    tag_74:\n      pop\n      tag_75\n      tag_76\n      jump\t// in\n    tag_75:\n      mload(0x40)\n      tag_77\n      swap2\n      swap1\n      tag_40\n      jump\t// in\n    tag_77:\n      mload(0x40)\n      dup1\n      swap2\n      sub\n      swap1\n      return\n        /* \"SampleContract_flat.sol\":11100:11225  function balanceOf(address account) public view virtual override returns (uint256) {... */\n    tag_12:\n      callvalue\n      dup1\n      iszero\n      tag_78\n      jumpi\n      0x00\n      dup1\n      revert\n    tag_78:\n      pop\n      tag_79\n      0x04\n      dup1\n      calldatasize\n      sub\n      dup2\n      add\n      swap1\n      tag_80\n      swap2\n      swap1\n      tag_81\n      jump\t// in\n    tag_80:\n      tag_82\n      jump\t// in\n    tag_79:\n      mload(0x40)\n      tag_83\n      swap2\n      swap1\n      tag_45\n      jump\t// in\n    tag_83:\n      mload(0x40)\n      dup1\n      swap2\n      sub\n      swap1\n      return\n        /* \"SampleContract_flat.sol\":1496:1597  function renounceOwnership() public virtual onlyOwner {... */\n    tag_13:\n      callvalue\n      dup1\n      iszero\n      tag_84\n      jumpi\n      0x00\n      dup1\n      revert\n    tag_84:\n      pop\n      tag_85\n      tag_86\n      jump\t// in\n    tag_85:\n      stop\n        /* \"SampleContract_flat.sol\":23144:23242  function balanceOf() external view returns (uint256) {... */\n    tag_14:\n      callvalue\n      dup1\n      iszero\n      tag_87\n      jumpi\n      0x00\n      dup1\n      revert\n    tag_87:\n      pop\n      tag_88\n      tag_89\n      jump\t// in\n    tag_88:\n      mload(0x40)\n      tag_90\n      swap2\n      swap1\n      tag_45\n      jump\t// in\n    tag_90:\n      mload(0x40)\n      dup1\n      swap2\n      sub\n      swap1\n      return\n        /* \"SampleContract_flat.sol\":21665:21826  function burnFrom(address account, uint256 amount) public virtual {... */\n    tag_15:\n      callvalue\n      dup1\n      iszero\n      tag_91\n      jumpi\n      0x00\n      dup1\n      revert\n    tag_91:\n      pop\n      tag_92\n      0x04\n      dup1\n      calldatasize\n      sub\n      dup2\n      add\n      swap1\n      tag_93\n      swap2\n      swap1\n      tag_37\n      jump\t// in\n    tag_93:\n      tag_94\n      jump\t// in\n    tag_92:\n      stop\n        /* \"SampleContract_flat.sol\":22380:22439  function pause() public onlyOwner {... */\n    tag_16:\n      callvalue\n      dup1\n      iszero\n      tag_95\n      jumpi\n      0x00\n      dup1\n      revert\n    tag_95:\n      pop\n      tag_96\n      tag_97\n      jump\t// in\n    tag_96:\n      stop\n        /* \"SampleContract_flat.sol\":866:951  function owner() public view virtual returns (address) {... */\n    tag_17:\n      callvalue\n      dup1\n      iszero\n      tag_98\n      jumpi\n      0x00\n      dup1\n      revert\n    tag_98:\n      pop\n      tag_99\n      tag_100\n      jump\t// in\n    tag_99:\n      mload(0x40)\n      tag_101\n      swap2\n      swap1\n      tag_102\n      jump\t// in\n    tag_101:\n      mload(0x40)\n      dup1\n      swap2\n      sub\n      swap1\n      return\n        /* \"SampleContract_flat.sol\":10059:10161  function symbol() public view virtual override returns (string memory) {... */\n    tag_18:\n      callvalue\n      dup1\n      iszero\n      tag_103\n      jumpi\n      0x00\n      dup1\n      revert\n    tag_103:\n      pop\n      tag_104\n      tag_105\n      jump\t// in\n    tag_104:\n      mload(0x40)\n      tag_106\n      swap2\n      swap1\n      tag_33\n      jump\t// in\n    tag_106:\n      mload(0x40)\n      dup1\n      swap2\n      sub\n      swap1\n      return\n        /* \"SampleContract_flat.sol\":14286:14713  function decreaseAllowance(address spender, uint256 subtractedValue) public virtual returns (bool) {... */\n    tag_19:\n      callvalue\n      dup1\n      iszero\n      tag_107\n      jumpi\n      0x00\n      dup1\n      revert\n    tag_107:\n      pop\n      tag_108\n      0x04\n      dup1\n      calldatasize\n      sub\n      dup2\n      add\n      swap1\n      tag_109\n      swap2\n      swap1\n      tag_37\n      jump\t// in\n    tag_109:\n      tag_110\n      jump\t// in\n    tag_108:\n      mload(0x40)\n      tag_111\n      swap2\n      swap1\n      tag_40\n      jump\t// in\n    tag_111:\n      mload(0x40)\n      dup1\n      swap2\n      sub\n      swap1\n      return\n        /* \"SampleContract_flat.sol\":11421:11610  function transfer(address to, uint256 amount) public virtual override returns (bool) {... */\n    tag_20:\n      callvalue\n      dup1\n      iszero\n      tag_112\n      jumpi\n      0x00\n      dup1\n      revert\n    tag_112:\n      pop\n      tag_113\n      0x04\n      dup1\n      calldatasize\n      sub\n      dup2\n      add\n      swap1\n      tag_114\n      swap2\n      swap1\n      tag_37\n      jump\t// in\n    tag_114:\n      tag_115\n      jump\t// in\n    tag_113:\n      mload(0x40)\n      tag_116\n      swap2\n      swap1\n      tag_40\n      jump\t// in\n    tag_116:\n      mload(0x40)\n      dup1\n      swap2\n      sub\n      swap1\n      return\n        /* \"SampleContract_flat.sol\":23548:23686  function sendEther(address payable recepient, uint256 _amount) external {... */\n    tag_21:\n      callvalue\n      dup1\n      iszero\n      tag_117\n      jumpi\n      0x00\n      dup1\n      revert\n    tag_117:\n      pop\n      tag_118\n      0x04\n      dup1\n      calldatasize\n      sub\n      dup2\n      add\n      swap1\n      tag_119\n      swap2\n      swap1\n      tag_120\n      jump\t// in\n    tag_119:\n      tag_121\n      jump\t// in\n    tag_118:\n      stop\n        /* \"SampleContract_flat.sol\":23446:23542  function helloWorld() external pure returns (string memory) {... */\n    tag_22:\n      callvalue\n      dup1\n      iszero\n      tag_122\n      jumpi\n      0x00\n      dup1\n      revert\n    tag_122:\n      pop\n      tag_123\n      tag_124\n      jump\t// in\n    tag_123:\n      mload(0x40)\n      tag_125\n      swap2\n      swap1\n      tag_33\n      jump\t// in\n    tag_125:\n      mload(0x40)\n      dup1\n      swap2\n      sub\n      swap1\n      return\n        /* \"SampleContract_flat.sol\":11668:11817  function allowance(address owner, address spender) public view virtual override returns (uint256) {... */\n    tag_23:\n      callvalue\n      dup1\n      iszero\n      tag_126\n      jumpi\n      0x00\n      dup1\n      revert\n    tag_126:\n      pop\n      tag_127\n      0x04\n      dup1\n      calldatasize\n      sub\n      dup2\n      add\n      swap1\n      tag_128\n      swap2\n      swap1\n      tag_129\n      jump\t// in\n    tag_128:\n      tag_130\n      jump\t// in\n    tag_127:\n      mload(0x40)\n      tag_131\n      swap2\n      swap1\n      tag_45\n      jump\t// in\n    tag_131:\n      mload(0x40)\n      dup1\n      swap2\n      sub\n      swap1\n      return\n        /* \"SampleContract_flat.sol\":22715:22876  function invest() external payable {... */\n    tag_24:\n      tag_132\n      tag_133\n      jump\t// in\n    tag_132:\n      stop\n        /* \"SampleContract_flat.sol\":1746:1944  function transferOwnership(address newOwner) public virtual onlyOwner {... */\n    tag_25:\n      callvalue\n      dup1\n      iszero\n      tag_134\n      jumpi\n      0x00\n      dup1\n      revert\n    tag_134:\n      pop\n      tag_135\n      0x04\n      dup1\n      calldatasize\n      sub\n      dup2\n      add\n      swap1\n      tag_136\n      swap2\n      swap1\n      tag_81\n      jump\t// in\n    tag_136:\n      tag_137\n      jump\t// in\n    tag_135:\n      stop\n        /* \"SampleContract_flat.sol\":9848:9946  function name() public view virtual override returns (string memory) {... */\n    tag_31:\n        /* \"SampleContract_flat.sol\":9902:9915  string memory */\n      0x60\n        /* \"SampleContract_flat.sol\":9934:9939  _name */\n      0x03\n        /* \"SampleContract_flat.sol\":9927:9939  return _name */\n      dup1\n      sload\n      tag_139\n      swap1\n      tag_140\n      jump\t// in\n    tag_139:\n      dup1\n      0x1f\n      add\n      0x20\n      dup1\n      swap2\n      div\n      mul\n      0x20\n      add\n      mload(0x40)\n      swap1\n      dup2\n      add\n      0x40\n      mstore\n      dup1\n      swap3\n      swap2\n      swap1\n      dup2\n      dup2\n      mstore\n      0x20\n      add\n      dup3\n      dup1\n      sload\n      tag_141\n      swap1\n      tag_140\n      jump\t// in\n    tag_141:\n      dup1\n      iszero\n      tag_142\n      jumpi\n      dup1\n      0x1f\n      lt\n      tag_143\n      jumpi\n      0x0100\n      dup1\n      dup4\n      sload\n      div\n      mul\n      dup4\n      mstore\n      swap2\n      0x20\n      add\n      swap2\n      jump(tag_142)\n    tag_143:\n      dup3\n      add\n      swap2\n      swap1\n      0x00\n      mstore\n      keccak256(0x00, 0x20)\n      swap1\n    tag_144:\n      dup2\n      sload\n      dup2\n      mstore\n      swap1\n      0x01\n      add\n      swap1\n      0x20\n      add\n      dup1\n      dup4\n      gt\n      tag_144\n      jumpi\n      dup3\n      swap1\n      sub\n      0x1f\n      and\n      dup3\n      add\n      swap2\n    tag_142:\n      pop\n      pop\n      pop\n      pop\n      pop\n      swap1\n      pop\n        /* \"SampleContract_flat.sol\":9848:9946  function name() public view virtual override returns (string memory) {... */\n      swap1\n      jump\t// out\n        /* \"SampleContract_flat.sol\":12125:12322  function approve(address spender, uint256 amount) public virtual override returns (bool) {... */\n    tag_38:\n        /* \"SampleContract_flat.sol\":12208:12212  bool */\n      0x00\n        /* \"SampleContract_flat.sol\":12224:12237  address owner */\n      dup1\n        /* \"SampleContract_flat.sol\":12240:12252  _msgSender() */\n      tag_146\n        /* \"SampleContract_flat.sol\":12240:12250  _msgSender */\n      tag_147\n        /* \"SampleContract_flat.sol\":12240:12252  _msgSender() */\n      jump\t// in\n    tag_146:\n        /* \"SampleContract_flat.sol\":12224:12252  address owner = _msgSender() */\n      swap1\n      pop\n        /* \"SampleContract_flat.sol\":12262:12294  _approve(owner, spender, amount) */\n      tag_148\n        /* \"SampleContract_flat.sol\":12271:12276  owner */\n      dup2\n        /* \"SampleContract_flat.sol\":12278:12285  spender */\n      dup6\n        /* \"SampleContract_flat.sol\":12287:12293  amount */\n      dup6\n        /* \"SampleContract_flat.sol\":12262:12270  _approve */\n      tag_149\n        /* \"SampleContract_flat.sol\":12262:12294  _approve(owner, spender, amount) */\n      jump\t// in\n    tag_148:\n        /* \"SampleContract_flat.sol\":12311:12315  true */\n      0x01\n        /* \"SampleContract_flat.sol\":12304:12315  return true */\n      swap2\n      pop\n      pop\n        /* \"SampleContract_flat.sol\":12125:12322  function approve(address spender, uint256 amount) public virtual override returns (bool) {... */\n      swap3\n      swap2\n      pop\n      pop\n      jump\t// out\n        /* \"SampleContract_flat.sol\":10936:11042  function totalSupply() public view virtual override returns (uint256) {... */\n    tag_43:\n        /* \"SampleContract_flat.sol\":10997:11004  uint256 */\n      0x00\n        /* \"SampleContract_flat.sol\":11023:11035  _totalSupply */\n      sload(0x02)\n        /* \"SampleContract_flat.sol\":11016:11035  return _totalSupply */\n      swap1\n      pop\n        /* \"SampleContract_flat.sol\":10936:11042  function totalSupply() public view virtual override returns (uint256) {... */\n      swap1\n      jump\t// out\n        /* \"SampleContract_flat.sol\":23248:23347  function balanceOf1() external view returns (uint256) {... */\n    tag_48:\n        /* \"SampleContract_flat.sol\":23293:23300  uint256 */\n      0x00\n        /* \"SampleContract_flat.sol\":23319:23340  address(this).balance */\n      selfbalance\n        /* \"SampleContract_flat.sol\":23312:23340  return address(this).balance */\n      swap1\n      pop\n        /* \"SampleContract_flat.sol\":23248:23347  function balanceOf1() external view returns (uint256) {... */\n      swap1\n      jump\t// out\n        /* \"SampleContract_flat.sol\":12884:13170  function transferFrom(... */\n    tag_54:\n        /* \"SampleContract_flat.sol\":13011:13015  bool */\n      0x00\n        /* \"SampleContract_flat.sol\":13027:13042  address spender */\n      dup1\n        /* \"SampleContract_flat.sol\":13045:13057  _msgSender() */\n      tag_153\n        /* \"SampleContract_flat.sol\":13045:13055  _msgSender */\n      tag_147\n        /* \"SampleContract_flat.sol\":13045:13057  _msgSender() */\n      jump\t// in\n    tag_153:\n        /* \"SampleContract_flat.sol\":13027:13057  address spender = _msgSender() */\n      swap1\n      pop\n        /* \"SampleContract_flat.sol\":13067:13105  _spendAllowance(from, spender, amount) */\n      tag_154\n        /* \"SampleContract_flat.sol\":13083:13087  from */\n      dup6\n        /* \"SampleContract_flat.sol\":13089:13096  spender */\n      dup3\n        /* \"SampleContract_flat.sol\":13098:13104  amount */\n      dup6\n        /* \"SampleContract_flat.sol\":13067:13082  _spendAllowance */\n      tag_155\n        /* \"SampleContract_flat.sol\":13067:13105  _spendAllowance(from, spender, amount) */\n      jump\t// in\n    tag_154:\n        /* \"SampleContract_flat.sol\":13115:13142  _transfer(from, to, amount) */\n      tag_156\n        /* \"SampleContract_flat.sol\":13125:13129  from */\n      dup6\n        /* \"SampleContract_flat.sol\":13131:13133  to */\n      dup6\n        /* \"SampleContract_flat.sol\":13135:13141  amount */\n      dup6\n        /* \"SampleContract_flat.sol\":13115:13124  _transfer */\n      tag_157\n        /* \"SampleContract_flat.sol\":13115:13142  _transfer(from, to, amount) */\n      jump\t// in\n    tag_156:\n        /* \"SampleContract_flat.sol\":13159:13163  true */\n      0x01\n        /* \"SampleContract_flat.sol\":13152:13163  return true */\n      swap2\n      pop\n      pop\n        /* \"SampleContract_flat.sol\":12884:13170  function transferFrom(... */\n      swap4\n      swap3\n      pop\n      pop\n      pop\n      jump\t// out\n        /* \"SampleContract_flat.sol\":10785:10876  function decimals() public view virtual override returns (uint8) {... */\n    tag_58:\n        /* \"SampleContract_flat.sol\":10843:10848  uint8 */\n      0x00\n        /* \"SampleContract_flat.sol\":10867:10869  18 */\n      0x12\n        /* \"SampleContract_flat.sol\":10860:10869  return 18 */\n      swap1\n      pop\n        /* \"SampleContract_flat.sol\":10785:10876  function decimals() public view virtual override returns (uint8) {... */\n      swap1\n      jump\t// out\n        /* \"SampleContract_flat.sol\":13565:13799  function increaseAllowance(address spender, uint256 addedValue) public virtual returns (bool) {... */\n    tag_64:\n        /* \"SampleContract_flat.sol\":13653:13657  bool */\n      0x00\n        /* \"SampleContract_flat.sol\":13669:13682  address owner */\n      dup1\n        /* \"SampleContract_flat.sol\":13685:13697  _msgSender() */\n      tag_160\n        /* \"SampleContract_flat.sol\":13685:13695  _msgSender */\n      tag_147\n        /* \"SampleContract_flat.sol\":13685:13697  _msgSender() */\n      jump\t// in\n    tag_160:\n        /* \"SampleContract_flat.sol\":13669:13697  address owner = _msgSender() */\n      swap1\n      pop\n        /* \"SampleContract_flat.sol\":13707:13771  _approve(owner, spender, allowance(owner, spender) + addedValue) */\n      tag_161\n        /* \"SampleContract_flat.sol\":13716:13721  owner */\n      dup2\n        /* \"SampleContract_flat.sol\":13723:13730  spender */\n      dup6\n        /* \"SampleContract_flat.sol\":13760:13770  addedValue */\n      dup6\n        /* \"SampleContract_flat.sol\":13732:13757  allowance(owner, spender) */\n      tag_162\n        /* \"SampleContract_flat.sol\":13742:13747  owner */\n      dup6\n        /* \"SampleContract_flat.sol\":13749:13756  spender */\n      dup10\n        /* \"SampleContract_flat.sol\":13732:13741  allowance */\n      tag_130\n        /* \"SampleContract_flat.sol\":13732:13757  allowance(owner, spender) */\n      jump\t// in\n    tag_162:\n        /* \"SampleContract_flat.sol\":13732:13770  allowance(owner, spender) + addedValue */\n      tag_163\n      swap2\n      swap1\n      tag_164\n      jump\t// in\n    tag_163:\n        /* \"SampleContract_flat.sol\":13707:13715  _approve */\n      tag_149\n        /* \"SampleContract_flat.sol\":13707:13771  _approve(owner, spender, allowance(owner, spender) + addedValue) */\n      jump\t// in\n    tag_161:\n        /* \"SampleContract_flat.sol\":13788:13792  true */\n      0x01\n        /* \"SampleContract_flat.sol\":13781:13792  return true */\n      swap2\n      pop\n      pop\n        /* \"SampleContract_flat.sol\":13565:13799  function increaseAllowance(address spender, uint256 addedValue) public virtual returns (bool) {... */\n      swap3\n      swap2\n      pop\n      pop\n      jump\t// out\n        /* \"SampleContract_flat.sol\":22445:22508  function unpause() public onlyOwner {... */\n    tag_68:\n        /* \"SampleContract_flat.sol\":759:772  _checkOwner() */\n      tag_166\n        /* \"SampleContract_flat.sol\":759:770  _checkOwner */\n      tag_167\n        /* \"SampleContract_flat.sol\":759:772  _checkOwner() */\n      jump\t// in\n    tag_166:\n        /* \"SampleContract_flat.sol\":22491:22501  _unpause() */\n      tag_169\n        /* \"SampleContract_flat.sol\":22491:22499  _unpause */\n      tag_170\n        /* \"SampleContract_flat.sol\":22491:22501  _unpause() */\n      jump\t// in\n    tag_169:\n        /* \"SampleContract_flat.sol\":22445:22508  function unpause() public onlyOwner {... */\n      jump\t// out\n        /* \"SampleContract_flat.sol\":22967:23067  function burn(uint256 amount) public override onlyOwner {... */\n    tag_73:\n        /* \"SampleContract_flat.sol\":759:772  _checkOwner() */\n      tag_172\n        /* \"SampleContract_flat.sol\":759:770  _checkOwner */\n      tag_167\n        /* \"SampleContract_flat.sol\":759:772  _checkOwner() */\n      jump\t// in\n    tag_172:\n        /* \"SampleContract_flat.sol\":23033:23060  _burn(_msgSender(), amount) */\n      tag_174\n        /* \"SampleContract_flat.sol\":23039:23051  _msgSender() */\n      tag_175\n        /* \"SampleContract_flat.sol\":23039:23049  _msgSender */\n      tag_147\n        /* \"SampleContract_flat.sol\":23039:23051  _msgSender() */\n      jump\t// in\n    tag_175:\n        /* \"SampleContract_flat.sol\":23053:23059  amount */\n      dup3\n        /* \"SampleContract_flat.sol\":23033:23038  _burn */\n      tag_176\n        /* \"SampleContract_flat.sol\":23033:23060  _burn(_msgSender(), amount) */\n      jump\t// in\n    tag_174:\n        /* \"SampleContract_flat.sol\":22967:23067  function burn(uint256 amount) public override onlyOwner {... */\n      pop\n      jump\t// out\n        /* \"SampleContract_flat.sol\":3328:3412  function paused() public view virtual returns (bool) {... */\n    tag_76:\n        /* \"SampleContract_flat.sol\":3375:3379  bool */\n      0x00\n        /* \"SampleContract_flat.sol\":3398:3405  _paused */\n      0x05\n      0x00\n      swap1\n      sload\n      swap1\n      0x0100\n      exp\n      swap1\n      div\n      0xff\n      and\n        /* \"SampleContract_flat.sol\":3391:3405  return _paused */\n      swap1\n      pop\n        /* \"SampleContract_flat.sol\":3328:3412  function paused() public view virtual returns (bool) {... */\n      swap1\n      jump\t// out\n        /* \"SampleContract_flat.sol\":11100:11225  function balanceOf(address account) public view virtual override returns (uint256) {... */\n    tag_82:\n        /* \"SampleContract_flat.sol\":11174:11181  uint256 */\n      0x00\n        /* \"SampleContract_flat.sol\":11200:11209  _balances */\n      dup1\n        /* \"SampleContract_flat.sol\":11200:11218  _balances[account] */\n      0x00\n        /* \"SampleContract_flat.sol\":11210:11217  account */\n      dup4\n        /* \"SampleContract_flat.sol\":11200:11218  _balances[account] */\n      0xffffffffffffffffffffffffffffffffffffffff\n      and\n      0xffffffffffffffffffffffffffffffffffffffff\n      and\n      dup2\n      mstore\n      0x20\n      add\n      swap1\n      dup2\n      mstore\n      0x20\n      add\n      0x00\n      keccak256\n      sload\n        /* \"SampleContract_flat.sol\":11193:11218  return _balances[account] */\n      swap1\n      pop\n        /* \"SampleContract_flat.sol\":11100:11225  function balanceOf(address account) public view virtual override returns (uint256) {... */\n      swap2\n      swap1\n      pop\n      jump\t// out\n        /* \"SampleContract_flat.sol\":1496:1597  function renounceOwnership() public virtual onlyOwner {... */\n    tag_86:\n        /* \"SampleContract_flat.sol\":759:772  _checkOwner() */\n      tag_180\n        /* \"SampleContract_flat.sol\":759:770  _checkOwner */\n      tag_167\n        /* \"SampleContract_flat.sol\":759:772  _checkOwner() */\n      jump\t// in\n    tag_180:\n        /* \"SampleContract_flat.sol\":1560:1590  _transferOwnership(address(0)) */\n      tag_182\n        /* \"SampleContract_flat.sol\":1587:1588  0 */\n      0x00\n        /* \"SampleContract_flat.sol\":1560:1578  _transferOwnership */\n      tag_183\n        /* \"SampleContract_flat.sol\":1560:1590  _transferOwnership(address(0)) */\n      jump\t// in\n    tag_182:\n        /* \"SampleContract_flat.sol\":1496:1597  function renounceOwnership() public virtual onlyOwner {... */\n      jump\t// out\n        /* \"SampleContract_flat.sol\":23144:23242  function balanceOf() external view returns (uint256) {... */\n    tag_89:\n        /* \"SampleContract_flat.sol\":23188:23195  uint256 */\n      0x00\n        /* \"SampleContract_flat.sol\":23214:23235  address(this).balance */\n      selfbalance\n        /* \"SampleContract_flat.sol\":23207:23235  return address(this).balance */\n      swap1\n      pop\n        /* \"SampleContract_flat.sol\":23144:23242  function balanceOf() external view returns (uint256) {... */\n      swap1\n      jump\t// out\n        /* \"SampleContract_flat.sol\":21665:21826  function burnFrom(address account, uint256 amount) public virtual {... */\n    tag_94:\n        /* \"SampleContract_flat.sol\":21741:21787  _spendAllowance(account, _msgSender(), amount) */\n      tag_186\n        /* \"SampleContract_flat.sol\":21757:21764  account */\n      dup3\n        /* \"SampleContract_flat.sol\":21766:21778  _msgSender() */\n      tag_187\n        /* \"SampleContract_flat.sol\":21766:21776  _msgSender */\n      tag_147\n        /* \"SampleContract_flat.sol\":21766:21778  _msgSender() */\n      jump\t// in\n    tag_187:\n        /* \"SampleContract_flat.sol\":21780:21786  amount */\n      dup4\n        /* \"SampleContract_flat.sol\":21741:21756  _spendAllowance */\n      tag_155\n        /* \"SampleContract_flat.sol\":21741:21787  _spendAllowance(account, _msgSender(), amount) */\n      jump\t// in\n    tag_186:\n        /* \"SampleContract_flat.sol\":21797:21819  _burn(account, amount) */\n      tag_188\n        /* \"SampleContract_flat.sol\":21803:21810  account */\n      dup3\n        /* \"SampleContract_flat.sol\":21812:21818  amount */\n      dup3\n        /* \"SampleContract_flat.sol\":21797:21802  _burn */\n      tag_176\n        /* \"SampleContract_flat.sol\":21797:21819  _burn(account, amount) */\n      jump\t// in\n    tag_188:\n        /* \"SampleContract_flat.sol\":21665:21826  function burnFrom(address account, uint256 amount) public virtual {... */\n      pop\n      pop\n      jump\t// out\n        /* \"SampleContract_flat.sol\":22380:22439  function pause() public onlyOwner {... */\n    tag_97:\n        /* \"SampleContract_flat.sol\":759:772  _checkOwner() */\n      tag_190\n        /* \"SampleContract_flat.sol\":759:770  _checkOwner */\n      tag_167\n        /* \"SampleContract_flat.sol\":759:772  _checkOwner() */\n      jump\t// in\n    tag_190:\n        /* \"SampleContract_flat.sol\":22424:22432  _pause() */\n      tag_192\n        /* \"SampleContract_flat.sol\":22424:22430  _pause */\n      tag_193\n        /* \"SampleContract_flat.sol\":22424:22432  _pause() */\n      jump\t// in\n    tag_192:\n        /* \"SampleContract_flat.sol\":22380:22439  function pause() public onlyOwner {... */\n      jump\t// out\n        /* \"SampleContract_flat.sol\":866:951  function owner() public view virtual returns (address) {... */\n    tag_100:\n        /* \"SampleContract_flat.sol\":912:919  address */\n      0x00\n        /* \"SampleContract_flat.sol\":938:944  _owner */\n      0x05\n      0x01\n      swap1\n      sload\n      swap1\n      0x0100\n      exp\n      swap1\n      div\n      0xffffffffffffffffffffffffffffffffffffffff\n      and\n        /* \"SampleContract_flat.sol\":931:944  return _owner */\n      swap1\n      pop\n        /* \"SampleContract_flat.sol\":866:951  function owner() public view virtual returns (address) {... */\n      swap1\n      jump\t// out\n        /* \"SampleContract_flat.sol\":10059:10161  function symbol() public view virtual override returns (string memory) {... */\n    tag_105:\n        /* \"SampleContract_flat.sol\":10115:10128  string memory */\n      0x60\n        /* \"SampleContract_flat.sol\":10147:10154  _symbol */\n      0x04\n        /* \"SampleContract_flat.sol\":10140:10154  return _symbol */\n      dup1\n      sload\n      tag_196\n      swap1\n      tag_140\n      jump\t// in\n    tag_196:\n      dup1\n      0x1f\n      add\n      0x20\n      dup1\n      swap2\n      div\n      mul\n      0x20\n      add\n      mload(0x40)\n      swap1\n      dup2\n      add\n      0x40\n      mstore\n      dup1\n      swap3\n      swap2\n      swap1\n      dup2\n      dup2\n      mstore\n      0x20\n      add\n      dup3\n      dup1\n      sload\n      tag_197\n      swap1\n      tag_140\n      jump\t// in\n    tag_197:\n      dup1\n      iszero\n      tag_198\n      jumpi\n      dup1\n      0x1f\n      lt\n      tag_199\n      jumpi\n      0x0100\n      dup1\n      dup4\n      sload\n      div\n      mul\n      dup4\n      mstore\n      swap2\n      0x20\n      add\n      swap2\n      jump(tag_198)\n    tag_199:\n      dup3\n      add\n      swap2\n      swap1\n      0x00\n      mstore\n      keccak256(0x00, 0x20)\n      swap1\n    tag_200:\n      dup2\n      sload\n      dup2\n      mstore\n      swap1\n      0x01\n      add\n      swap1\n      0x20\n      add\n      dup1\n      dup4\n      gt\n      tag_200\n      jumpi\n      dup3\n      swap1\n      sub\n      0x1f\n      and\n      dup3\n      add\n      swap2\n    tag_198:\n      pop\n      pop\n      pop\n      pop\n      pop\n      swap1\n      pop\n        /* \"SampleContract_flat.sol\":10059:10161  function symbol() public view virtual override returns (string memory) {... */\n      swap1\n      jump\t// out\n        /* \"SampleContract_flat.sol\":14286:14713  function decreaseAllowance(address spender, uint256 subtractedValue) public virtual returns (bool) {... */\n    tag_110:\n        /* \"SampleContract_flat.sol\":14379:14383  bool */\n      0x00\n        /* \"SampleContract_flat.sol\":14395:14408  address owner */\n      dup1\n        /* \"SampleContract_flat.sol\":14411:14423  _msgSender() */\n      tag_202\n        /* \"SampleContract_flat.sol\":14411:14421  _msgSender */\n      tag_147\n        /* \"SampleContract_flat.sol\":14411:14423  _msgSender() */\n      jump\t// in\n    tag_202:\n        /* \"SampleContract_flat.sol\":14395:14423  address owner = _msgSender() */\n      swap1\n      pop\n        /* \"SampleContract_flat.sol\":14433:14457  uint256 currentAllowance */\n      0x00\n        /* \"SampleContract_flat.sol\":14460:14485  allowance(owner, spender) */\n      tag_203\n        /* \"SampleContract_flat.sol\":14470:14475  owner */\n      dup3\n        /* \"SampleContract_flat.sol\":14477:14484  spender */\n      dup7\n        /* \"SampleContract_flat.sol\":14460:14469  allowance */\n      tag_130\n        /* \"SampleContract_flat.sol\":14460:14485  allowance(owner, spender) */\n      jump\t// in\n    tag_203:\n        /* \"SampleContract_flat.sol\":14433:14485  uint256 currentAllowance = allowance(owner, spender) */\n      swap1\n      pop\n        /* \"SampleContract_flat.sol\":14523:14538  subtractedValue */\n      dup4\n        /* \"SampleContract_flat.sol\":14503:14519  currentAllowance */\n      dup2\n        /* \"SampleContract_flat.sol\":14503:14538  currentAllowance >= subtractedValue */\n      lt\n      iszero\n        /* \"SampleContract_flat.sol\":14495:14580  require(currentAllowance >= subtractedValue, \"ERC20: decreased allowance below zero\") */\n      tag_204\n      jumpi\n      mload(0x40)\n      0x08c379a000000000000000000000000000000000000000000000000000000000\n      dup2\n      mstore\n      0x04\n      add\n      tag_205\n      swap1\n      tag_206\n      jump\t// in\n    tag_205:\n      mload(0x40)\n      dup1\n      swap2\n      sub\n      swap1\n      revert\n    tag_204:\n        /* \"SampleContract_flat.sol\":14614:14674  _approve(owner, spender, currentAllowance - subtractedValue) */\n      tag_207\n        /* \"SampleContract_flat.sol\":14623:14628  owner */\n      dup3\n        /* \"SampleContract_flat.sol\":14630:14637  spender */\n      dup7\n        /* \"SampleContract_flat.sol\":14658:14673  subtractedValue */\n      dup7\n        /* \"SampleContract_flat.sol\":14639:14655  currentAllowance */\n      dup5\n        /* \"SampleContract_flat.sol\":14639:14673  currentAllowance - subtractedValue */\n      sub\n        /* \"SampleContract_flat.sol\":14614:14622  _approve */\n      tag_149\n        /* \"SampleContract_flat.sol\":14614:14674  _approve(owner, spender, currentAllowance - subtractedValue) */\n      jump\t// in\n    tag_207:\n        /* \"SampleContract_flat.sol\":14702:14706  true */\n      0x01\n        /* \"SampleContract_flat.sol\":14695:14706  return true */\n      swap3\n      pop\n      pop\n      pop\n        /* \"SampleContract_flat.sol\":14286:14713  function decreaseAllowance(address spender, uint256 subtractedValue) public virtual returns (bool) {... */\n      swap3\n      swap2\n      pop\n      pop\n      jump\t// out\n        /* \"SampleContract_flat.sol\":11421:11610  function transfer(address to, uint256 amount) public virtual override returns (bool) {... */\n    tag_115:\n        /* \"SampleContract_flat.sol\":11500:11504  bool */\n      0x00\n        /* \"SampleContract_flat.sol\":11516:11529  address owner */\n      dup1\n        /* \"SampleContract_flat.sol\":11532:11544  _msgSender() */\n      tag_209\n        /* \"SampleContract_flat.sol\":11532:11542  _msgSender */\n      tag_147\n        /* \"SampleContract_flat.sol\":11532:11544  _msgSender() */\n      jump\t// in\n    tag_209:\n        /* \"SampleContract_flat.sol\":11516:11544  address owner = _msgSender() */\n      swap1\n      pop\n        /* \"SampleContract_flat.sol\":11554:11582  _transfer(owner, to, amount) */\n      tag_210\n        /* \"SampleContract_flat.sol\":11564:11569  owner */\n      dup2\n        /* \"SampleContract_flat.sol\":11571:11573  to */\n      dup6\n        /* \"SampleContract_flat.sol\":11575:11581  amount */\n      dup6\n        /* \"SampleContract_flat.sol\":11554:11563  _transfer */\n      tag_157\n        /* \"SampleContract_flat.sol\":11554:11582  _transfer(owner, to, amount) */\n      jump\t// in\n    tag_210:\n        /* \"SampleContract_flat.sol\":11599:11603  true */\n      0x01\n        /* \"SampleContract_flat.sol\":11592:11603  return true */\n      swap2\n      pop\n      pop\n        /* \"SampleContract_flat.sol\":11421:11610  function transfer(address to, uint256 amount) public virtual override returns (bool) {... */\n      swap3\n      swap2\n      pop\n      pop\n      jump\t// out\n        /* \"SampleContract_flat.sol\":23548:23686  function sendEther(address payable recepient, uint256 _amount) external {... */\n    tag_121:\n        /* \"SampleContract_flat.sol\":23630:23639  recepient */\n      dup2\n        /* \"SampleContract_flat.sol\":23630:23648  recepient.transfer */\n      0xffffffffffffffffffffffffffffffffffffffff\n      and\n        /* \"SampleContract_flat.sol\":23630:23657  recepient.transfer(_amount) */\n      0x08fc\n        /* \"SampleContract_flat.sol\":23649:23656  _amount */\n      dup3\n        /* \"SampleContract_flat.sol\":23630:23657  recepient.transfer(_amount) */\n      swap1\n      dup2\n      iszero\n      mul\n      swap1\n      mload(0x40)\n      0x00\n      mload(0x40)\n      dup1\n      dup4\n      sub\n      dup2\n      dup6\n      dup9\n      dup9\n      call\n      swap4\n      pop\n      pop\n      pop\n      pop\n      iszero\n      dup1\n      iszero\n      tag_213\n      jumpi\n      returndatasize\n      0x00\n      dup1\n      returndatacopy\n      revert(0x00, returndatasize)\n    tag_213:\n      pop\n        /* \"SampleContract_flat.sol\":23548:23686  function sendEther(address payable recepient, uint256 _amount) external {... */\n      pop\n      pop\n      jump\t// out\n        /* \"SampleContract_flat.sol\":23446:23542  function helloWorld() external pure returns (string memory) {... */\n    tag_124:\n        /* \"SampleContract_flat.sol\":23491:23504  string memory */\n      0x60\n        /* \"SampleContract_flat.sol\":23516:23535  return \"HelloWorld\" */\n      mload(0x40)\n      dup1\n      0x40\n      add\n      0x40\n      mstore\n      dup1\n      0x0a\n      dup2\n      mstore\n      0x20\n      add\n      0x48656c6c6f576f726c6400000000000000000000000000000000000000000000\n      dup2\n      mstore\n      pop\n      swap1\n      pop\n        /* \"SampleContract_flat.sol\":23446:23542  function helloWorld() external pure returns (string memory) {... */\n      swap1\n      jump\t// out\n        /* \"SampleContract_flat.sol\":11668:11817  function allowance(address owner, address spender) public view virtual override returns (uint256) {... */\n    tag_130:\n        /* \"SampleContract_flat.sol\":11757:11764  uint256 */\n      0x00\n        /* \"SampleContract_flat.sol\":11783:11794  _allowances */\n      0x01\n        /* \"SampleContract_flat.sol\":11783:11801  _allowances[owner] */\n      0x00\n        /* \"SampleContract_flat.sol\":11795:11800  owner */\n      dup5\n        /* \"SampleContract_flat.sol\":11783:11801  _allowances[owner] */\n      0xffffffffffffffffffffffffffffffffffffffff\n      and\n      0xffffffffffffffffffffffffffffffffffffffff\n      and\n      dup2\n      mstore\n      0x20\n      add\n      swap1\n      dup2\n      mstore\n      0x20\n      add\n      0x00\n      keccak256\n        /* \"SampleContract_flat.sol\":11783:11810  _allowances[owner][spender] */\n      0x00\n        /* \"SampleContract_flat.sol\":11802:11809  spender */\n      dup4\n        /* \"SampleContract_flat.sol\":11783:11810  _allowances[owner][spender] */\n      0xffffffffffffffffffffffffffffffffffffffff\n      and\n      0xffffffffffffffffffffffffffffffffffffffff\n      and\n      dup2\n      mstore\n      0x20\n      add\n      swap1\n      dup2\n      mstore\n      0x20\n      add\n      0x00\n      keccak256\n      sload\n        /* \"SampleContract_flat.sol\":11776:11810  return _allowances[owner][spender] */\n      swap1\n      pop\n        /* \"SampleContract_flat.sol\":11668:11817  function allowance(address owner, address spender) public view virtual override returns (uint256) {... */\n      swap3\n      swap2\n      pop\n      pop\n      jump\t// out\n        /* \"SampleContract_flat.sol\":22715:22876  function invest() external payable {... */\n    tag_133:\n        /* \"SampleContract_flat.sol\":22860:22869  msg.value */\n      callvalue\n        /* \"SampleContract_flat.sol\":22836:22844  balances */\n      0x06\n        /* \"SampleContract_flat.sol\":22836:22856  balances[msg.sender] */\n      0x00\n        /* \"SampleContract_flat.sol\":22845:22855  msg.sender */\n      caller\n        /* \"SampleContract_flat.sol\":22836:22856  balances[msg.sender] */\n      0xffffffffffffffffffffffffffffffffffffffff\n      and\n      0xffffffffffffffffffffffffffffffffffffffff\n      and\n      dup2\n      mstore\n      0x20\n      add\n      swap1\n      dup2\n      mstore\n      0x20\n      add\n      0x00\n      keccak256\n      0x00\n        /* \"SampleContract_flat.sol\":22836:22869  balances[msg.sender] += msg.value */\n      dup3\n      dup3\n      sload\n      tag_217\n      swap2\n      swap1\n      tag_164\n      jump\t// in\n    tag_217:\n      swap3\n      pop\n      pop\n      dup2\n      swap1\n      sstore\n      pop\n        /* \"SampleContract_flat.sol\":22715:22876  function invest() external payable {... */\n      jump\t// out\n        /* \"SampleContract_flat.sol\":1746:1944  function transferOwnership(address newOwner) public virtual onlyOwner {... */\n    tag_137:\n        /* \"SampleContract_flat.sol\":759:772  _checkOwner() */\n      tag_219\n        /* \"SampleContract_flat.sol\":759:770  _checkOwner */\n      tag_167\n        /* \"SampleContract_flat.sol\":759:772  _checkOwner() */\n      jump\t// in\n    tag_219:\n        /* \"SampleContract_flat.sol\":1854:1855  0 */\n      0x00\n        /* \"SampleContract_flat.sol\":1834:1856  newOwner != address(0) */\n      0xffffffffffffffffffffffffffffffffffffffff\n      and\n        /* \"SampleContract_flat.sol\":1834:1842  newOwner */\n      dup2\n        /* \"SampleContract_flat.sol\":1834:1856  newOwner != address(0) */\n      0xffffffffffffffffffffffffffffffffffffffff\n      and\n      sub\n        /* \"SampleContract_flat.sol\":1826:1899  require(newOwner != address(0), \"Ownable: new owner is the zero address\") */\n      tag_221\n      jumpi\n      mload(0x40)\n      0x08c379a000000000000000000000000000000000000000000000000000000000\n      dup2\n      mstore\n      0x04\n      add\n      tag_222\n      swap1\n      tag_223\n      jump\t// in\n    tag_222:\n      mload(0x40)\n      dup1\n      swap2\n      sub\n      swap1\n      revert\n    tag_221:\n        /* \"SampleContract_flat.sol\":1909:1937  _transferOwnership(newOwner) */\n      tag_224\n        /* \"SampleContract_flat.sol\":1928:1936  newOwner */\n      dup2\n        /* \"SampleContract_flat.sol\":1909:1927  _transferOwnership */\n      tag_183\n        /* \"SampleContract_flat.sol\":1909:1937  _transferOwnership(newOwner) */\n      jump\t// in\n    tag_224:\n        /* \"SampleContract_flat.sol\":1746:1944  function transferOwnership(address newOwner) public virtual onlyOwner {... */\n      pop\n      jump\t// out\n        /* \"SampleContract_flat.sol\":89:185  function _msgSender() internal view virtual returns (address) {... */\n    tag_147:\n        /* \"SampleContract_flat.sol\":142:149  address */\n      0x00\n        /* \"SampleContract_flat.sol\":168:178  msg.sender */\n      caller\n        /* \"SampleContract_flat.sol\":161:178  return msg.sender */\n      swap1\n      pop\n        /* \"SampleContract_flat.sol\":89:185  function _msgSender() internal view virtual returns (address) {... */\n      swap1\n      jump\t// out\n        /* \"SampleContract_flat.sol\":18198:18568  function _approve(... */\n    tag_149:\n        /* \"SampleContract_flat.sol\":18346:18347  0 */\n      0x00\n        /* \"SampleContract_flat.sol\":18329:18348  owner != address(0) */\n      0xffffffffffffffffffffffffffffffffffffffff\n      and\n        /* \"SampleContract_flat.sol\":18329:18334  owner */\n      dup4\n        /* \"SampleContract_flat.sol\":18329:18348  owner != address(0) */\n      0xffffffffffffffffffffffffffffffffffffffff\n      and\n      sub\n        /* \"SampleContract_flat.sol\":18321:18389  require(owner != address(0), \"ERC20: approve from the zero address\") */\n      tag_227\n      jumpi\n      mload(0x40)\n      0x08c379a000000000000000000000000000000000000000000000000000000000\n      dup2\n      mstore\n      0x04\n      add\n      tag_228\n      swap1\n      tag_229\n      jump\t// in\n    tag_228:\n      mload(0x40)\n      dup1\n      swap2\n      sub\n      swap1\n      revert\n    tag_227:\n        /* \"SampleContract_flat.sol\":18426:18427  0 */\n      0x00\n        /* \"SampleContract_flat.sol\":18407:18428  spender != address(0) */\n      0xffffffffffffffffffffffffffffffffffffffff\n      and\n        /* \"SampleContract_flat.sol\":18407:18414  spender */\n      dup3\n        /* \"SampleContract_flat.sol\":18407:18428  spender != address(0) */\n      0xffffffffffffffffffffffffffffffffffffffff\n      and\n      sub\n        /* \"SampleContract_flat.sol\":18399:18467  require(spender != address(0), \"ERC20: approve to the zero address\") */\n      tag_230\n      jumpi\n      mload(0x40)\n      0x08c379a000000000000000000000000000000000000000000000000000000000\n      dup2\n      mstore\n      0x04\n      add\n      tag_231\n      swap1\n      tag_232\n      jump\t// in\n    tag_231:\n      mload(0x40)\n      dup1\n      swap2\n      sub\n      swap1\n      revert\n    tag_230:\n        /* \"SampleContract_flat.sol\":18508:18514  amount */\n      dup1\n        /* \"SampleContract_flat.sol\":18478:18489  _allowances */\n      0x01\n        /* \"SampleContract_flat.sol\":18478:18496  _allowances[owner] */\n      0x00\n        /* \"SampleContract_flat.sol\":18490:18495  owner */\n      dup6\n        /* \"SampleContract_flat.sol\":18478:18496  _allowances[owner] */\n      0xffffffffffffffffffffffffffffffffffffffff\n      and\n      0xffffffffffffffffffffffffffffffffffffffff\n      and\n      dup2\n      mstore\n      0x20\n      add\n      swap1\n      dup2\n      mstore\n      0x20\n      add\n      0x00\n      keccak256\n        /* \"SampleContract_flat.sol\":18478:18505  _allowances[owner][spender] */\n      0x00\n        /* \"SampleContract_flat.sol\":18497:18504  spender */\n      dup5\n        /* \"SampleContract_flat.sol\":18478:18505  _allowances[owner][spender] */\n      0xffffffffffffffffffffffffffffffffffffffff\n      and\n      0xffffffffffffffffffffffffffffffffffffffff\n      and\n      dup2\n      mstore\n      0x20\n      add\n      swap1\n      dup2\n      mstore\n      0x20\n      add\n      0x00\n      keccak256\n        /* \"SampleContract_flat.sol\":18478:18514  _allowances[owner][spender] = amount */\n      dup2\n      swap1\n      sstore\n      pop\n        /* \"SampleContract_flat.sol\":18545:18552  spender */\n      dup2\n        /* \"SampleContract_flat.sol\":18529:18561  Approval(owner, spender, amount) */\n      0xffffffffffffffffffffffffffffffffffffffff\n      and\n        /* \"SampleContract_flat.sol\":18538:18543  owner */\n      dup4\n        /* \"SampleContract_flat.sol\":18529:18561  Approval(owner, spender, amount) */\n      0xffffffffffffffffffffffffffffffffffffffff\n      and\n      0x8c5be1e5ebec7d5bd14f71427d1e84f3dd0314c0f7b2291e5b200ac8c7c3b925\n        /* \"SampleContract_flat.sol\":18554:18560  amount */\n      dup4\n        /* \"SampleContract_flat.sol\":18529:18561  Approval(owner, spender, amount) */\n      mload(0x40)\n      tag_233\n      swap2\n      swap1\n      tag_45\n      jump\t// in\n    tag_233:\n      mload(0x40)\n      dup1\n      swap2\n      sub\n      swap1\n      log3\n        /* \"SampleContract_flat.sol\":18198:18568  function _approve(... */\n      pop\n      pop\n      pop\n      jump\t// out\n        /* \"SampleContract_flat.sol\":18849:19290  function _spendAllowance(... */\n    tag_155:\n        /* \"SampleContract_flat.sol\":18979:19003  uint256 currentAllowance */\n      0x00\n        /* \"SampleContract_flat.sol\":19006:19031  allowance(owner, spender) */\n      tag_235\n        /* \"SampleContract_flat.sol\":19016:19021  owner */\n      dup5\n        /* \"SampleContract_flat.sol\":19023:19030  spender */\n      dup5\n        /* \"SampleContract_flat.sol\":19006:19015  allowance */\n      tag_130\n        /* \"SampleContract_flat.sol\":19006:19031  allowance(owner, spender) */\n      jump\t// in\n    tag_235:\n        /* \"SampleContract_flat.sol\":18979:19031  uint256 currentAllowance = allowance(owner, spender) */\n      swap1\n      pop\n        /* \"SampleContract_flat.sol\":19065:19082  type(uint256).max */\n      0xffffffffffffffffffffffffffffffffffffffffffffffffffffffffffffffff\n        /* \"SampleContract_flat.sol\":19045:19061  currentAllowance */\n      dup2\n        /* \"SampleContract_flat.sol\":19045:19082  currentAllowance != type(uint256).max */\n      eq\n        /* \"SampleContract_flat.sol\":19041:19284  if (currentAllowance != type(uint256).max) {... */\n      tag_236\n      jumpi\n        /* \"SampleContract_flat.sol\":19126:19132  amount */\n      dup2\n        /* \"SampleContract_flat.sol\":19106:19122  currentAllowance */\n      dup2\n        /* \"SampleContract_flat.sol\":19106:19132  currentAllowance >= amount */\n      lt\n      iszero\n        /* \"SampleContract_flat.sol\":19098:19166  require(currentAllowance >= amount, \"ERC20: insufficient allowance\") */\n      tag_237\n      jumpi\n      mload(0x40)\n      0x08c379a000000000000000000000000000000000000000000000000000000000\n      dup2\n      mstore\n      0x04\n      add\n      tag_238\n      swap1\n      tag_239\n      jump\t// in\n    tag_238:\n      mload(0x40)\n      dup1\n      swap2\n      sub\n      swap1\n      revert\n    tag_237:\n        /* \"SampleContract_flat.sol\":19208:19259  _approve(owner, spender, currentAllowance - amount) */\n      tag_240\n        /* \"SampleContract_flat.sol\":19217:19222  owner */\n      dup5\n        /* \"SampleContract_flat.sol\":19224:19231  spender */\n      dup5\n        /* \"SampleContract_flat.sol\":19252:19258  amount */\n      dup5\n        /* \"SampleContract_flat.sol\":19233:19249  currentAllowance */\n      dup5\n        /* \"SampleContract_flat.sol\":19233:19258  currentAllowance - amount */\n      sub\n        /* \"SampleContract_flat.sol\":19208:19216  _approve */\n      tag_149\n        /* \"SampleContract_flat.sol\":19208:19259  _approve(owner, spender, currentAllowance - amount) */\n      jump\t// in\n    tag_240:\n        /* \"SampleContract_flat.sol\":19041:19284  if (currentAllowance != type(uint256).max) {... */\n    tag_236:\n        /* \"SampleContract_flat.sol\":18969:19290  {... */\n      pop\n        /* \"SampleContract_flat.sol\":18849:19290  function _spendAllowance(... */\n      pop\n      pop\n      pop\n      jump\t// out\n        /* \"SampleContract_flat.sol\":15167:15985  function _transfer(... */\n    tag_157:\n        /* \"SampleContract_flat.sol\":15309:15310  0 */\n      0x00\n        /* \"SampleContract_flat.sol\":15293:15311  from != address(0) */\n      0xffffffffffffffffffffffffffffffffffffffff\n      and\n        /* \"SampleContract_flat.sol\":15293:15297  from */\n      dup4\n        /* \"SampleContract_flat.sol\":15293:15311  from != address(0) */\n      0xffffffffffffffffffffffffffffffffffffffff\n      and\n      sub\n        /* \"SampleContract_flat.sol\":15285:15353  require(from != address(0), \"ERC20: transfer from the zero address\") */\n      tag_242\n      jumpi\n      mload(0x40)\n      0x08c379a000000000000000000000000000000000000000000000000000000000\n      dup2\n      mstore\n      0x04\n      add\n      tag_243\n      swap1\n      tag_244\n      jump\t// in\n    tag_243:\n      mload(0x40)\n      dup1\n      swap2\n      sub\n      swap1\n      revert\n    tag_242:\n        /* \"SampleContract_flat.sol\":15385:15386  0 */\n      0x00\n        /* \"SampleContract_flat.sol\":15371:15387  to != address(0) */\n      0xffffffffffffffffffffffffffffffffffffffff\n      and\n        /* \"SampleContract_flat.sol\":15371:15373  to */\n      dup3\n        /* \"SampleContract_flat.sol\":15371:15387  to != address(0) */\n      0xffffffffffffffffffffffffffffffffffffffff\n      and\n      sub\n        /* \"SampleContract_flat.sol\":15363:15427  require(to != address(0), \"ERC20: transfer to the zero address\") */\n      tag_245\n      jumpi\n      mload(0x40)\n      0x08c379a000000000000000000000000000000000000000000000000000000000\n      dup2\n      mstore\n      0x04\n      add\n      tag_246\n      swap1\n      tag_247\n      jump\t// in\n    tag_246:\n      mload(0x40)\n      dup1\n      swap2\n      sub\n      swap1\n      revert\n    tag_245:\n        /* \"SampleContract_flat.sol\":15438:15476  _beforeTokenTransfer(from, to, amount) */\n      tag_248\n        /* \"SampleContract_flat.sol\":15459:15463  from */\n      dup4\n        /* \"SampleContract_flat.sol\":15465:15467  to */\n      dup4\n        /* \"SampleContract_flat.sol\":15469:15475  amount */\n      dup4\n        /* \"SampleContract_flat.sol\":15438:15458  _beforeTokenTransfer */\n      tag_249\n        /* \"SampleContract_flat.sol\":15438:15476  _beforeTokenTransfer(from, to, amount) */\n      jump\t// in\n    tag_248:\n        /* \"SampleContract_flat.sol\":15487:15506  uint256 fromBalance */\n      0x00\n        /* \"SampleContract_flat.sol\":15509:15518  _balances */\n      dup1\n        /* \"SampleContract_flat.sol\":15509:15524  _balances[from] */\n      0x00\n        /* \"SampleContract_flat.sol\":15519:15523  from */\n      dup6\n        /* \"SampleContract_flat.sol\":15509:15524  _balances[from] */\n      0xffffffffffffffffffffffffffffffffffffffff\n      and\n      0xffffffffffffffffffffffffffffffffffffffff\n      and\n      dup2\n      mstore\n      0x20\n      add\n      swap1\n      dup2\n      mstore\n      0x20\n      add\n      0x00\n      keccak256\n      sload\n        /* \"SampleContract_flat.sol\":15487:15524  uint256 fromBalance = _balances[from] */\n      swap1\n      pop\n        /* \"SampleContract_flat.sol\":15557:15563  amount */\n      dup2\n        /* \"SampleContract_flat.sol\":15542:15553  fromBalance */\n      dup2\n        /* \"SampleContract_flat.sol\":15542:15563  fromBalance >= amount */\n      lt\n      iszero\n        /* \"SampleContract_flat.sol\":15534:15606  require(fromBalance >= amount, \"ERC20: transfer amount exceeds balance\") */\n      tag_250\n      jumpi\n      mload(0x40)\n      0x08c379a000000000000000000000000000000000000000000000000000000000\n      dup2\n      mstore\n      0x04\n      add\n      tag_251\n      swap1\n      tag_252\n      jump\t// in\n    tag_251:\n      mload(0x40)\n      dup1\n      swap2\n      sub\n      swap1\n      revert\n    tag_250:\n        /* \"SampleContract_flat.sol\":15672:15678  amount */\n      dup2\n        /* \"SampleContract_flat.sol\":15658:15669  fromBalance */\n      dup2\n        /* \"SampleContract_flat.sol\":15658:15678  fromBalance - amount */\n      sub\n        /* \"SampleContract_flat.sol\":15640:15649  _balances */\n      0x00\n        /* \"SampleContract_flat.sol\":15640:15655  _balances[from] */\n      dup1\n        /* \"SampleContract_flat.sol\":15650:15654  from */\n      dup7\n        /* \"SampleContract_flat.sol\":15640:15655  _balances[from] */\n      0xffffffffffffffffffffffffffffffffffffffff\n      and\n      0xffffffffffffffffffffffffffffffffffffffff\n      and\n      dup2\n      mstore\n      0x20\n      add\n      swap1\n      dup2\n      mstore\n      0x20\n      add\n      0x00\n      keccak256\n        /* \"SampleContract_flat.sol\":15640:15678  _balances[from] = fromBalance - amount */\n      dup2\n      swap1\n      sstore\n      pop\n        /* \"SampleContract_flat.sol\":15872:15878  amount */\n      dup2\n        /* \"SampleContract_flat.sol\":15855:15864  _balances */\n      0x00\n        /* \"SampleContract_flat.sol\":15855:15868  _balances[to] */\n      dup1\n        /* \"SampleContract_flat.sol\":15865:15867  to */\n      dup6\n        /* \"SampleContract_flat.sol\":15855:15868  _balances[to] */\n      0xffffffffffffffffffffffffffffffffffffffff\n      and\n      0xffffffffffffffffffffffffffffffffffffffff\n      and\n      dup2\n      mstore\n      0x20\n      add\n      swap1\n      dup2\n      mstore\n      0x20\n      add\n      0x00\n      keccak256\n      0x00\n        /* \"SampleContract_flat.sol\":15855:15878  _balances[to] += amount */\n      dup3\n      dup3\n      sload\n      add\n      swap3\n      pop\n      pop\n      dup2\n      swap1\n      sstore\n      pop\n        /* \"SampleContract_flat.sol\":15919:15921  to */\n      dup3\n        /* \"SampleContract_flat.sol\":15904:15930  Transfer(from, to, amount) */\n      0xffffffffffffffffffffffffffffffffffffffff\n      and\n        /* \"SampleContract_flat.sol\":15913:15917  from */\n      dup5\n        /* \"SampleContract_flat.sol\":15904:15930  Transfer(from, to, amount) */\n      0xffffffffffffffffffffffffffffffffffffffff\n      and\n      0xddf252ad1be2c89b69c2b068fc378daa952ba7f163c4a11628f55a4df523b3ef\n        /* \"SampleContract_flat.sol\":15923:15929  amount */\n      dup5\n        /* \"SampleContract_flat.sol\":15904:15930  Transfer(from, to, amount) */\n      mload(0x40)\n      tag_253\n      swap2\n      swap1\n      tag_45\n      jump\t// in\n    tag_253:\n      mload(0x40)\n      dup1\n      swap2\n      sub\n      swap1\n      log3\n        /* \"SampleContract_flat.sol\":15941:15978  _afterTokenTransfer(from, to, amount) */\n      tag_254\n        /* \"SampleContract_flat.sol\":15961:15965  from */\n      dup5\n        /* \"SampleContract_flat.sol\":15967:15969  to */\n      dup5\n        /* \"SampleContract_flat.sol\":15971:15977  amount */\n      dup5\n        /* \"SampleContract_flat.sol\":15941:15960  _afterTokenTransfer */\n      tag_255\n        /* \"SampleContract_flat.sol\":15941:15978  _afterTokenTransfer(from, to, amount) */\n      jump\t// in\n    tag_254:\n        /* \"SampleContract_flat.sol\":15275:15985  {... */\n      pop\n        /* \"SampleContract_flat.sol\":15167:15985  function _transfer(... */\n      pop\n      pop\n      pop\n      jump\t// out\n        /* \"SampleContract_flat.sol\":1024:1154  function _checkOwner() internal view virtual {... */\n    tag_167:\n        /* \"SampleContract_flat.sol\":1098:1110  _msgSender() */\n      tag_257\n        /* \"SampleContract_flat.sol\":1098:1108  _msgSender */\n      tag_147\n        /* \"SampleContract_flat.sol\":1098:1110  _msgSender() */\n      jump\t// in\n    tag_257:\n        /* \"SampleContract_flat.sol\":1087:1110  owner() == _msgSender() */\n      0xffffffffffffffffffffffffffffffffffffffff\n      and\n        /* \"SampleContract_flat.sol\":1087:1094  owner() */\n      tag_258\n        /* \"SampleContract_flat.sol\":1087:1092  owner */\n      tag_100\n        /* \"SampleContract_flat.sol\":1087:1094  owner() */\n      jump\t// in\n    tag_258:\n        /* \"SampleContract_flat.sol\":1087:1110  owner() == _msgSender() */\n      0xffffffffffffffffffffffffffffffffffffffff\n      and\n      eq\n        /* \"SampleContract_flat.sol\":1079:1147  require(owner() == _msgSender(), \"Ownable: caller is not the owner\") */\n      tag_259\n      jumpi\n      mload(0x40)\n      0x08c379a000000000000000000000000000000000000000000000000000000000\n      dup2\n      mstore\n      0x04\n      add\n      tag_260\n      swap1\n      tag_261\n      jump\t// in\n    tag_260:\n      mload(0x40)\n      dup1\n      swap2\n      sub\n      swap1\n      revert\n    tag_259:\n        /* \"SampleContract_flat.sol\":1024:1154  function _checkOwner() internal view virtual {... */\n      jump\t// out\n        /* \"SampleContract_flat.sol\":4146:4263  function _unpause() internal virtual whenPaused {... */\n    tag_170:\n        /* \"SampleContract_flat.sol\":3199:3215  _requirePaused() */\n      tag_263\n        /* \"SampleContract_flat.sol\":3199:3213  _requirePaused */\n      tag_264\n        /* \"SampleContract_flat.sol\":3199:3215  _requirePaused() */\n      jump\t// in\n    tag_263:\n        /* \"SampleContract_flat.sol\":4214:4219  false */\n      0x00\n        /* \"SampleContract_flat.sol\":4204:4211  _paused */\n      0x05\n      0x00\n        /* \"SampleContract_flat.sol\":4204:4219  _paused = false */\n      0x0100\n      exp\n      dup2\n      sload\n      dup2\n      0xff\n      mul\n      not\n      and\n      swap1\n      dup4\n      iszero\n      iszero\n      mul\n      or\n      swap1\n      sstore\n      pop\n        /* \"SampleContract_flat.sol\":4234:4256  Unpaused(_msgSender()) */\n      0x5db9ee0a495bf2e6ff9c91a7834c1ba4fdd244a5e8aa4e537bd38aeae4b073aa\n        /* \"SampleContract_flat.sol\":4243:4255  _msgSender() */\n      tag_266\n        /* \"SampleContract_flat.sol\":4243:4253  _msgSender */\n      tag_147\n        /* \"SampleContract_flat.sol\":4243:4255  _msgSender() */\n      jump\t// in\n    tag_266:\n        /* \"SampleContract_flat.sol\":4234:4256  Unpaused(_msgSender()) */\n      mload(0x40)\n      tag_267\n      swap2\n      swap1\n      tag_102\n      jump\t// in\n    tag_267:\n      mload(0x40)\n      dup1\n      swap2\n      sub\n      swap1\n      log1\n        /* \"SampleContract_flat.sol\":4146:4263  function _unpause() internal virtual whenPaused {... */\n      jump\t// out\n        /* \"SampleContract_flat.sol\":17116:17775  function _burn(address account, uint256 amount) internal virtual {... */\n    tag_176:\n        /* \"SampleContract_flat.sol\":17218:17219  0 */\n      0x00\n        /* \"SampleContract_flat.sol\":17199:17220  account != address(0) */\n      0xffffffffffffffffffffffffffffffffffffffff\n      and\n        /* \"SampleContract_flat.sol\":17199:17206  account */\n      dup3\n        /* \"SampleContract_flat.sol\":17199:17220  account != address(0) */\n      0xffffffffffffffffffffffffffffffffffffffff\n      and\n      sub\n        /* \"SampleContract_flat.sol\":17191:17258  require(account != address(0), \"ERC20: burn from the zero address\") */\n      tag_269\n      jumpi\n      mload(0x40)\n      0x08c379a000000000000000000000000000000000000000000000000000000000\n      dup2\n      mstore\n      0x04\n      add\n      tag_270\n      swap1\n      tag_271\n      jump\t// in\n    tag_270:\n      mload(0x40)\n      dup1\n      swap2\n      sub\n      swap1\n      revert\n    tag_269:\n        /* \"SampleContract_flat.sol\":17269:17318  _beforeTokenTransfer(account, address(0), amount) */\n      tag_272\n        /* \"SampleContract_flat.sol\":17290:17297  account */\n      dup3\n        /* \"SampleContract_flat.sol\":17307:17308  0 */\n      0x00\n        /* \"SampleContract_flat.sol\":17311:17317  amount */\n      dup4\n        /* \"SampleContract_flat.sol\":17269:17289  _beforeTokenTransfer */\n      tag_249\n        /* \"SampleContract_flat.sol\":17269:17318  _beforeTokenTransfer(account, address(0), amount) */\n      jump\t// in\n    tag_272:\n        /* \"SampleContract_flat.sol\":17329:17351  uint256 accountBalance */\n      0x00\n        /* \"SampleContract_flat.sol\":17354:17363  _balances */\n      dup1\n        /* \"SampleContract_flat.sol\":17354:17372  _balances[account] */\n      0x00\n        /* \"SampleContract_flat.sol\":17364:17371  account */\n      dup5\n        /* \"SampleContract_flat.sol\":17354:17372  _balances[account] */\n      0xffffffffffffffffffffffffffffffffffffffff\n      and\n      0xffffffffffffffffffffffffffffffffffffffff\n      and\n      dup2\n      mstore\n      0x20\n      add\n      swap1\n      dup2\n      mstore\n      0x20\n      add\n      0x00\n      keccak256\n      sload\n        /* \"SampleContract_flat.sol\":17329:17372  uint256 accountBalance = _balances[account] */\n      swap1\n      pop\n        /* \"SampleContract_flat.sol\":17408:17414  amount */\n      dup2\n        /* \"SampleContract_flat.sol\":17390:17404  accountBalance */\n      dup2\n        /* \"SampleContract_flat.sol\":17390:17414  accountBalance >= amount */\n      lt\n      iszero\n        /* \"SampleContract_flat.sol\":17382:17453  require(accountBalance >= amount, \"ERC20: burn amount exceeds balance\") */\n      tag_273\n      jumpi\n      mload(0x40)\n      0x08c379a000000000000000000000000000000000000000000000000000000000\n      dup2\n      mstore\n      0x04\n      add\n      tag_274\n      swap1\n      tag_275\n      jump\t// in\n    tag_274:\n      mload(0x40)\n      dup1\n      swap2\n      sub\n      swap1\n      revert\n    tag_273:\n        /* \"SampleContract_flat.sol\":17525:17531  amount */\n      dup2\n        /* \"SampleContract_flat.sol\":17508:17522  accountBalance */\n      dup2\n        /* \"SampleContract_flat.sol\":17508:17531  accountBalance - amount */\n      sub\n        /* \"SampleContract_flat.sol\":17487:17496  _balances */\n      0x00\n        /* \"SampleContract_flat.sol\":17487:17505  _balances[account] */\n      dup1\n        /* \"SampleContract_flat.sol\":17497:17504  account */\n      dup6\n        /* \"SampleContract_flat.sol\":17487:17505  _balances[account] */\n      0xffffffffffffffffffffffffffffffffffffffff\n      and\n      0xffffffffffffffffffffffffffffffffffffffff\n      and\n      dup2\n      mstore\n      0x20\n      add\n      swap1\n      dup2\n      mstore\n      0x20\n      add\n      0x00\n      keccak256\n        /* \"SampleContract_flat.sol\":17487:17531  _balances[account] = accountBalance - amount */\n      dup2\n      swap1\n      sstore\n      pop\n        /* \"SampleContract_flat.sol\":17640:17646  amount */\n      dup2\n        /* \"SampleContract_flat.sol\":17624:17636  _totalSupply */\n      0x02\n      0x00\n        /* \"SampleContract_flat.sol\":17624:17646  _totalSupply -= amount */\n      dup3\n      dup3\n      sload\n      sub\n      swap3\n      pop\n      pop\n      dup2\n      swap1\n      sstore\n      pop\n        /* \"SampleContract_flat.sol\":17698:17699  0 */\n      0x00\n        /* \"SampleContract_flat.sol\":17672:17709  Transfer(account, address(0), amount) */\n      0xffffffffffffffffffffffffffffffffffffffff\n      and\n        /* \"SampleContract_flat.sol\":17681:17688  account */\n      dup4\n        /* \"SampleContract_flat.sol\":17672:17709  Transfer(account, address(0), amount) */\n      0xffffffffffffffffffffffffffffffffffffffff\n      and\n      0xddf252ad1be2c89b69c2b068fc378daa952ba7f163c4a11628f55a4df523b3ef\n        /* \"SampleContract_flat.sol\":17702:17708  amount */\n      dup5\n        /* \"SampleContract_flat.sol\":17672:17709  Transfer(account, address(0), amount) */\n      mload(0x40)\n      tag_276\n      swap2\n      swap1\n      tag_45\n      jump\t// in\n    tag_276:\n      mload(0x40)\n      dup1\n      swap2\n      sub\n      swap1\n      log3\n        /* \"SampleContract_flat.sol\":17720:17768  _afterTokenTransfer(account, address(0), amount) */\n      tag_277\n        /* \"SampleContract_flat.sol\":17740:17747  account */\n      dup4\n        /* \"SampleContract_flat.sol\":17757:17758  0 */\n      0x00\n        /* \"SampleContract_flat.sol\":17761:17767  amount */\n      dup5\n        /* \"SampleContract_flat.sol\":17720:17739  _afterTokenTransfer */\n      tag_255\n        /* \"SampleContract_flat.sol\":17720:17768  _afterTokenTransfer(account, address(0), amount) */\n      jump\t// in\n    tag_277:\n        /* \"SampleContract_flat.sol\":17181:17775  {... */\n      pop\n        /* \"SampleContract_flat.sol\":17116:17775  function _burn(address account, uint256 amount) internal virtual {... */\n      pop\n      pop\n      jump\t// out\n        /* \"SampleContract_flat.sol\":2098:2285  function _transferOwnership(address newOwner) internal virtual {... */\n    tag_183:\n        /* \"SampleContract_flat.sol\":2171:2187  address oldOwner */\n      0x00\n        /* \"SampleContract_flat.sol\":2190:2196  _owner */\n      0x05\n      0x01\n      swap1\n      sload\n      swap1\n      0x0100\n      exp\n      swap1\n      div\n      0xffffffffffffffffffffffffffffffffffffffff\n      and\n        /* \"SampleContract_flat.sol\":2171:2196  address oldOwner = _owner */\n      swap1\n      pop\n        /* \"SampleContract_flat.sol\":2215:2223  newOwner */\n      dup2\n        /* \"SampleContract_flat.sol\":2206:2212  _owner */\n      0x05\n      0x01\n        /* \"SampleContract_flat.sol\":2206:2223  _owner = newOwner */\n      0x0100\n      exp\n      dup2\n      sload\n      dup2\n      0xffffffffffffffffffffffffffffffffffffffff\n      mul\n      not\n      and\n      swap1\n      dup4\n      0xffffffffffffffffffffffffffffffffffffffff\n      and\n      mul\n      or\n      swap1\n      sstore\n      pop\n        /* \"SampleContract_flat.sol\":2269:2277  newOwner */\n      dup2\n        /* \"SampleContract_flat.sol\":2238:2278  OwnershipTransferred(oldOwner, newOwner) */\n      0xffffffffffffffffffffffffffffffffffffffff\n      and\n        /* \"SampleContract_flat.sol\":2259:2267  oldOwner */\n      dup2\n        /* \"SampleContract_flat.sol\":2238:2278  OwnershipTransferred(oldOwner, newOwner) */\n      0xffffffffffffffffffffffffffffffffffffffff\n      and\n      0x8be0079c531659141344cd1fd0a4f28419497f9722a3daafe3b4186f6b6457e0\n      mload(0x40)\n      mload(0x40)\n      dup1\n      swap2\n      sub\n      swap1\n      log3\n        /* \"SampleContract_flat.sol\":2161:2285  {... */\n      pop\n        /* \"SampleContract_flat.sol\":2098:2285  function _transferOwnership(address newOwner) internal virtual {... */\n      pop\n      jump\t// out\n        /* \"SampleContract_flat.sol\":3899:4014  function _pause() internal virtual whenNotPaused {... */\n    tag_193:\n        /* \"SampleContract_flat.sol\":2952:2971  _requireNotPaused() */\n      tag_280\n        /* \"SampleContract_flat.sol\":2952:2969  _requireNotPaused */\n      tag_281\n        /* \"SampleContract_flat.sol\":2952:2971  _requireNotPaused() */\n      jump\t// in\n    tag_280:\n        /* \"SampleContract_flat.sol\":3968:3972  true */\n      0x01\n        /* \"SampleContract_flat.sol\":3958:3965  _paused */\n      0x05\n      0x00\n        /* \"SampleContract_flat.sol\":3958:3972  _paused = true */\n      0x0100\n      exp\n      dup2\n      sload\n      dup2\n      0xff\n      mul\n      not\n      and\n      swap1\n      dup4\n      iszero\n      iszero\n      mul\n      or\n      swap1\n      sstore\n      pop\n        /* \"SampleContract_flat.sol\":3987:4007  Paused(_msgSender()) */\n      0x62e78cea01bee320cd4e420270b5ea74000d11b0c9f74754ebdbfc544b05a258\n        /* \"SampleContract_flat.sol\":3994:4006  _msgSender() */\n      tag_283\n        /* \"SampleContract_flat.sol\":3994:4004  _msgSender */\n      tag_147\n        /* \"SampleContract_flat.sol\":3994:4006  _msgSender() */\n      jump\t// in\n    tag_283:\n        /* \"SampleContract_flat.sol\":3987:4007  Paused(_msgSender()) */\n      mload(0x40)\n      tag_284\n      swap2\n      swap1\n      tag_102\n      jump\t// in\n    tag_284:\n      mload(0x40)\n      dup1\n      swap2\n      sub\n      swap1\n      log1\n        /* \"SampleContract_flat.sol\":3899:4014  function _pause() internal virtual whenNotPaused {... */\n      jump\t// out\n        /* \"SampleContract_flat.sol\":22514:22709  function _beforeTokenTransfer(... */\n    tag_249:\n        /* \"SampleContract_flat.sol\":2952:2971  _requireNotPaused() */\n      tag_286\n        /* \"SampleContract_flat.sol\":2952:2969  _requireNotPaused */\n      tag_281\n        /* \"SampleContract_flat.sol\":2952:2971  _requireNotPaused() */\n      jump\t// in\n    tag_286:\n        /* \"SampleContract_flat.sol\":22658:22702  super._beforeTokenTransfer(from, to, amount) */\n      tag_288\n        /* \"SampleContract_flat.sol\":22685:22689  from */\n      dup4\n        /* \"SampleContract_flat.sol\":22691:22693  to */\n      dup4\n        /* \"SampleContract_flat.sol\":22695:22701  amount */\n      dup4\n        /* \"SampleContract_flat.sol\":22658:22684  super._beforeTokenTransfer */\n      tag_289\n        /* \"SampleContract_flat.sol\":22658:22702  super._beforeTokenTransfer(from, to, amount) */\n      jump\t// in\n    tag_288:\n        /* \"SampleContract_flat.sol\":22514:22709  function _beforeTokenTransfer(... */\n      pop\n      pop\n      pop\n      jump\t// out\n        /* \"SampleContract_flat.sol\":20583:20703  function _afterTokenTransfer(... */\n    tag_255:\n      pop\n      pop\n      pop\n      jump\t// out\n        /* \"SampleContract_flat.sol\":3658:3764  function _requirePaused() internal view virtual {... */\n    tag_264:\n        /* \"SampleContract_flat.sol\":3724:3732  paused() */\n      tag_292\n        /* \"SampleContract_flat.sol\":3724:3730  paused */\n      tag_76\n        /* \"SampleContract_flat.sol\":3724:3732  paused() */\n      jump\t// in\n    tag_292:\n        /* \"SampleContract_flat.sol\":3716:3757  require(paused(), \"Pausable: not paused\") */\n      tag_293\n      jumpi\n      mload(0x40)\n      0x08c379a000000000000000000000000000000000000000000000000000000000\n      dup2\n      mstore\n      0x04\n      add\n      tag_294\n      swap1\n      tag_295\n      jump\t// in\n    tag_294:\n      mload(0x40)\n      dup1\n      swap2\n      sub\n      swap1\n      revert\n    tag_293:\n        /* \"SampleContract_flat.sol\":3658:3764  function _requirePaused() internal view virtual {... */\n      jump\t// out\n        /* \"SampleContract_flat.sol\":3480:3586  function _requireNotPaused() internal view virtual {... */\n    tag_281:\n        /* \"SampleContract_flat.sol\":3550:3558  paused() */\n      tag_297\n        /* \"SampleContract_flat.sol\":3550:3556  paused */\n      tag_76\n        /* \"SampleContract_flat.sol\":3550:3558  paused() */\n      jump\t// in\n    tag_297:\n        /* \"SampleContract_flat.sol\":3549:3558  !paused() */\n      iszero\n        /* \"SampleContract_flat.sol\":3541:3579  require(!paused(), \"Pausable: paused\") */\n      tag_298\n      jumpi\n      mload(0x40)\n      0x08c379a000000000000000000000000000000000000000000000000000000000\n      dup2\n      mstore\n      0x04\n      add\n      tag_299\n      swap1\n      tag_300\n      jump\t// in\n    tag_299:\n      mload(0x40)\n      dup1\n      swap2\n      sub\n      swap1\n      revert\n    tag_298:\n        /* \"SampleContract_flat.sol\":3480:3586  function _requireNotPaused() internal view virtual {... */\n      jump\t// out\n        /* \"SampleContract_flat.sol\":19874:19995  function _beforeTokenTransfer(... */\n    tag_289:\n      pop\n      pop\n      pop\n      jump\t// out\n        /* \"#utility.yul\":7:106   */\n    tag_302:\n        /* \"#utility.yul\":59:65   */\n      0x00\n        /* \"#utility.yul\":93:98   */\n      dup2\n        /* \"#utility.yul\":87:99   */\n      mload\n        /* \"#utility.yul\":77:99   */\n      swap1\n      pop\n        /* \"#utility.yul\":7:106   */\n      swap2\n      swap1\n      pop\n      jump\t// out\n        /* \"#utility.yul\":112:281   */\n    tag_303:\n        /* \"#utility.yul\":196:207   */\n      0x00\n        /* \"#utility.yul\":230:236   */\n      dup3\n        /* \"#utility.yul\":225:228   */\n      dup3\n        /* \"#utility.yul\":218:237   */\n      mstore\n        /* \"#utility.yul\":270:274   */\n      0x20\n        /* \"#utility.yul\":265:268   */\n      dup3\n        /* \"#utility.yul\":261:275   */\n      add\n        /* \"#utility.yul\":246:275   */\n      swap1\n      pop\n        /* \"#utility.yul\":112:281   */\n      swap3\n      swap2\n      pop\n      pop\n      jump\t// out\n        /* \"#utility.yul\":287:533   */\n    tag_304:\n        /* \"#utility.yul\":368:369   */\n      0x00\n        /* \"#utility.yul\":378:491   */\n    tag_358:\n        /* \"#utility.yul\":392:398   */\n      dup4\n        /* \"#utility.yul\":389:390   */\n      dup2\n        /* \"#utility.yul\":386:399   */\n      lt\n        /* \"#utility.yul\":378:491   */\n      iszero\n      tag_360\n      jumpi\n        /* \"#utility.yul\":477:478   */\n      dup1\n        /* \"#utility.yul\":472:475   */\n      dup3\n        /* \"#utility.yul\":468:479   */\n      add\n        /* \"#utility.yul\":462:480   */\n      mload\n        /* \"#utility.yul\":458:459   */\n      dup2\n        /* \"#utility.yul\":453:456   */\n      dup5\n        /* \"#utility.yul\":449:460   */\n      add\n        /* \"#utility.yul\":442:481   */\n      mstore\n        /* \"#utility.yul\":414:416   */\n      0x20\n        /* \"#utility.yul\":411:412   */\n      dup2\n        /* \"#utility.yul\":407:417   */\n      add\n        /* \"#utility.yul\":402:417   */\n      swap1\n      pop\n        /* \"#utility.yul\":378:491   */\n      jump(tag_358)\n    tag_360:\n        /* \"#utility.yul\":525:526   */\n      0x00\n        /* \"#utility.yul\":516:522   */\n      dup5\n        /* \"#utility.yul\":511:514   */\n      dup5\n        /* \"#utility.yul\":507:523   */\n      add\n        /* \"#utility.yul\":500:527   */\n      mstore\n        /* \"#utility.yul\":349:533   */\n      pop\n        /* \"#utility.yul\":287:533   */\n      pop\n      pop\n      pop\n      jump\t// out\n        /* \"#utility.yul\":539:641   */\n    tag_305:\n        /* \"#utility.yul\":580:586   */\n      0x00\n        /* \"#utility.yul\":631:633   */\n      0x1f\n        /* \"#utility.yul\":627:634   */\n      not\n        /* \"#utility.yul\":622:624   */\n      0x1f\n        /* \"#utility.yul\":615:620   */\n      dup4\n        /* \"#utility.yul\":611:625   */\n      add\n        /* \"#utility.yul\":607:635   */\n      and\n        /* \"#utility.yul\":597:635   */\n      swap1\n      pop\n        /* \"#utility.yul\":539:641   */\n      swap2\n      swap1\n      pop\n      jump\t// out\n        /* \"#utility.yul\":647:1024   */\n    tag_306:\n        /* \"#utility.yul\":735:738   */\n      0x00\n        /* \"#utility.yul\":763:802   */\n      tag_363\n        /* \"#utility.yul\":796:801   */\n      dup3\n        /* \"#utility.yul\":763:802   */\n      tag_302\n      jump\t// in\n    tag_363:\n        /* \"#utility.yul\":818:889   */\n      tag_364\n        /* \"#utility.yul\":882:888   */\n      dup2\n        /* \"#utility.yul\":877:880   */\n      dup6\n        /* \"#utility.yul\":818:889   */\n      tag_303\n      jump\t// in\n    tag_364:\n        /* \"#utility.yul\":811:889   */\n      swap4\n      pop\n        /* \"#utility.yul\":898:963   */\n      tag_365\n        /* \"#utility.yul\":956:962   */\n      dup2\n        /* \"#utility.yul\":951:954   */\n      dup6\n        /* \"#utility.yul\":944:948   */\n      0x20\n        /* \"#utility.yul\":937:942   */\n      dup7\n        /* \"#utility.yul\":933:949   */\n      add\n        /* \"#utility.yul\":898:963   */\n      tag_304\n      jump\t// in\n    tag_365:\n        /* \"#utility.yul\":988:1017   */\n      tag_366\n        /* \"#utility.yul\":1010:1016   */\n      dup2\n        /* \"#utility.yul\":988:1017   */\n      tag_305\n      jump\t// in\n    tag_366:\n        /* \"#utility.yul\":983:986   */\n      dup5\n        /* \"#utility.yul\":979:1018   */\n      add\n        /* \"#utility.yul\":972:1018   */\n      swap2\n      pop\n        /* \"#utility.yul\":739:1024   */\n      pop\n        /* \"#utility.yul\":647:1024   */\n      swap3\n      swap2\n      pop\n      pop\n      jump\t// out\n        /* \"#utility.yul\":1030:1343   */\n    tag_33:\n        /* \"#utility.yul\":1143:1147   */\n      0x00\n        /* \"#utility.yul\":1181:1183   */\n      0x20\n        /* \"#utility.yul\":1170:1179   */\n      dup3\n        /* \"#utility.yul\":1166:1184   */\n      add\n        /* \"#utility.yul\":1158:1184   */\n      swap1\n      pop\n        /* \"#utility.yul\":1230:1239   */\n      dup2\n        /* \"#utility.yul\":1224:1228   */\n      dup2\n        /* \"#utility.yul\":1220:1240   */\n      sub\n        /* \"#utility.yul\":1216:1217   */\n      0x00\n        /* \"#utility.yul\":1205:1214   */\n      dup4\n        /* \"#utility.yul\":1201:1218   */\n      add\n        /* \"#utility.yul\":1194:1241   */\n      mstore\n        /* \"#utility.yul\":1258:1336   */\n      tag_368\n        /* \"#utility.yul\":1331:1335   */\n      dup2\n        /* \"#utility.yul\":1322:1328   */\n      dup5\n        /* \"#utility.yul\":1258:1336   */\n      tag_306\n      jump\t// in\n    tag_368:\n        /* \"#utility.yul\":1250:1336   */\n      swap1\n      pop\n        /* \"#utility.yul\":1030:1343   */\n      swap3\n      swap2\n      pop\n      pop\n      jump\t// out\n        /* \"#utility.yul\":1430:1547   */\n    tag_308:\n        /* \"#utility.yul\":1539:1540   */\n      0x00\n        /* \"#utility.yul\":1536:1537   */\n      dup1\n        /* \"#utility.yul\":1529:1541   */\n      revert\n        /* \"#utility.yul\":1676:1802   */\n    tag_310:\n        /* \"#utility.yul\":1713:1720   */\n      0x00\n        /* \"#utility.yul\":1753:1795   */\n      0xffffffffffffffffffffffffffffffffffffffff\n        /* \"#utility.yul\":1746:1751   */\n      dup3\n        /* \"#utility.yul\":1742:1796   */\n      and\n        /* \"#utility.yul\":1731:1796   */\n      swap1\n      pop\n        /* \"#utility.yul\":1676:1802   */\n      swap2\n      swap1\n      pop\n      jump\t// out\n        /* \"#utility.yul\":1808:1904   */\n    tag_311:\n        /* \"#utility.yul\":1845:1852   */\n      0x00\n        /* \"#utility.yul\":1874:1898   */\n      tag_374\n        /* \"#utility.yul\":1892:1897   */\n      dup3\n        /* \"#utility.yul\":1874:1898   */\n      tag_310\n      jump\t// in\n    tag_374:\n        /* \"#utility.yul\":1863:1898   */\n      swap1\n      pop\n        /* \"#utility.yul\":1808:1904   */\n      swap2\n      swap1\n      pop\n      jump\t// out\n        /* \"#utility.yul\":1910:2032   */\n    tag_312:\n        /* \"#utility.yul\":1983:2007   */\n      tag_376\n        /* \"#utility.yul\":2001:2006   */\n      dup2\n        /* \"#utility.yul\":1983:2007   */\n      tag_311\n      jump\t// in\n    tag_376:\n        /* \"#utility.yul\":1976:1981   */\n      dup2\n        /* \"#utility.yul\":1973:2008   */\n      eq\n        /* \"#utility.yul\":1963:2026   */\n      tag_377\n      jumpi\n        /* \"#utility.yul\":2022:2023   */\n      0x00\n        /* \"#utility.yul\":2019:2020   */\n      dup1\n        /* \"#utility.yul\":2012:2024   */\n      revert\n        /* \"#utility.yul\":1963:2026   */\n    tag_377:\n        /* \"#utility.yul\":1910:2032   */\n      pop\n      jump\t// out\n        /* \"#utility.yul\":2038:2177   */\n    tag_313:\n        /* \"#utility.yul\":2084:2089   */\n      0x00\n        /* \"#utility.yul\":2122:2128   */\n      dup2\n        /* \"#utility.yul\":2109:2129   */\n      calldataload\n        /* \"#utility.yul\":2100:2129   */\n      swap1\n      pop\n        /* \"#utility.yul\":2138:2171   */\n      tag_379\n        /* \"#utility.yul\":2165:2170   */\n      dup2\n        /* \"#utility.yul\":2138:2171   */\n      tag_312\n      jump\t// in\n    tag_379:\n        /* \"#utility.yul\":2038:2177   */\n      swap3\n      swap2\n      pop\n      pop\n      jump\t// out\n        /* \"#utility.yul\":2183:2260   */\n    tag_314:\n        /* \"#utility.yul\":2220:2227   */\n      0x00\n        /* \"#utility.yul\":2249:2254   */\n      dup2\n        /* \"#utility.yul\":2238:2254   */\n      swap1\n      pop\n        /* \"#utility.yul\":2183:2260   */\n      swap2\n      swap1\n      pop\n      jump\t// out\n        /* \"#utility.yul\":2266:2388   */\n    tag_315:\n        /* \"#utility.yul\":2339:2363   */\n      tag_382\n        /* \"#utility.yul\":2357:2362   */\n      dup2\n        /* \"#utility.yul\":2339:2363   */\n      tag_314\n      jump\t// in\n    tag_382:\n        /* \"#utility.yul\":2332:2337   */\n      dup2\n        /* \"#utility.yul\":2329:2364   */\n      eq\n        /* \"#utility.yul\":2319:2382   */\n      tag_383\n      jumpi\n        /* \"#utility.yul\":2378:2379   */\n      0x00\n        /* \"#utility.yul\":2375:2376   */\n      dup1\n        /* \"#utility.yul\":2368:2380   */\n      revert\n        /* \"#utility.yul\":2319:2382   */\n    tag_383:\n        /* \"#utility.yul\":2266:2388   */\n      pop\n      jump\t// out\n        /* \"#utility.yul\":2394:2533   */\n    tag_316:\n        /* \"#utility.yul\":2440:2445   */\n      0x00\n        /* \"#utility.yul\":2478:2484   */\n      dup2\n        /* \"#utility.yul\":2465:2485   */\n      calldataload\n        /* \"#utility.yul\":2456:2485   */\n      swap1\n      pop\n        /* \"#utility.yul\":2494:2527   */\n      tag_385\n        /* \"#utility.yul\":2521:2526   */\n      dup2\n        /* \"#utility.yul\":2494:2527   */\n      tag_315\n      jump\t// in\n    tag_385:\n        /* \"#utility.yul\":2394:2533   */\n      swap3\n      swap2\n      pop\n      pop\n      jump\t// out\n        /* \"#utility.yul\":2539:3013   */\n    tag_37:\n        /* \"#utility.yul\":2607:2613   */\n      0x00\n        /* \"#utility.yul\":2615:2621   */\n      dup1\n        /* \"#utility.yul\":2664:2666   */\n      0x40\n        /* \"#utility.yul\":2652:2661   */\n      dup4\n        /* \"#utility.yul\":2643:2650   */\n      dup6\n        /* \"#utility.yul\":2639:2662   */\n      sub\n        /* \"#utility.yul\":2635:2667   */\n      slt\n        /* \"#utility.yul\":2632:2751   */\n      iszero\n      tag_387\n      jumpi\n        /* \"#utility.yul\":2670:2749   */\n      tag_388\n      tag_308\n      jump\t// in\n    tag_388:\n        /* \"#utility.yul\":2632:2751   */\n    tag_387:\n        /* \"#utility.yul\":2790:2791   */\n      0x00\n        /* \"#utility.yul\":2815:2868   */\n      tag_389\n        /* \"#utility.yul\":2860:2867   */\n      dup6\n        /* \"#utility.yul\":2851:2857   */\n      dup3\n        /* \"#utility.yul\":2840:2849   */\n      dup7\n        /* \"#utility.yul\":2836:2858   */\n      add\n        /* \"#utility.yul\":2815:2868   */\n      tag_313\n      jump\t// in\n    tag_389:\n        /* \"#utility.yul\":2805:2868   */\n      swap3\n      pop\n        /* \"#utility.yul\":2761:2878   */\n      pop\n        /* \"#utility.yul\":2917:2919   */\n      0x20\n        /* \"#utility.yul\":2943:2996   */\n      tag_390\n        /* \"#utility.yul\":2988:2995   */\n      dup6\n        /* \"#utility.yul\":2979:2985   */\n      dup3\n        /* \"#utility.yul\":2968:2977   */\n      dup7\n        /* \"#utility.yul\":2964:2986   */\n      add\n        /* \"#utility.yul\":2943:2996   */\n      tag_316\n      jump\t// in\n    tag_390:\n        /* \"#utility.yul\":2933:2996   */\n      swap2\n      pop\n        /* \"#utility.yul\":2888:3006   */\n      pop\n        /* \"#utility.yul\":2539:3013   */\n      swap3\n      pop\n      swap3\n      swap1\n      pop\n      jump\t// out\n        /* \"#utility.yul\":3019:3109   */\n    tag_317:\n        /* \"#utility.yul\":3053:3060   */\n      0x00\n        /* \"#utility.yul\":3096:3101   */\n      dup2\n        /* \"#utility.yul\":3089:3102   */\n      iszero\n        /* \"#utility.yul\":3082:3103   */\n      iszero\n        /* \"#utility.yul\":3071:3103   */\n      swap1\n      pop\n        /* \"#utility.yul\":3019:3109   */\n      swap2\n      swap1\n      pop\n      jump\t// out\n        /* \"#utility.yul\":3115:3224   */\n    tag_318:\n        /* \"#utility.yul\":3196:3217   */\n      tag_393\n        /* \"#utility.yul\":3211:3216   */\n      dup2\n        /* \"#utility.yul\":3196:3217   */\n      tag_317\n      jump\t// in\n    tag_393:\n        /* \"#utility.yul\":3191:3194   */\n      dup3\n        /* \"#utility.yul\":3184:3218   */\n      mstore\n        /* \"#utility.yul\":3115:3224   */\n      pop\n      pop\n      jump\t// out\n        /* \"#utility.yul\":3230:3440   */\n    tag_40:\n        /* \"#utility.yul\":3317:3321   */\n      0x00\n        /* \"#utility.yul\":3355:3357   */\n      0x20\n        /* \"#utility.yul\":3344:3353   */\n      dup3\n        /* \"#utility.yul\":3340:3358   */\n      add\n        /* \"#utility.yul\":3332:3358   */\n      swap1\n      pop\n        /* \"#utility.yul\":3368:3433   */\n      tag_395\n        /* \"#utility.yul\":3430:3431   */\n      0x00\n        /* \"#utility.yul\":3419:3428   */\n      dup4\n        /* \"#utility.yul\":3415:3432   */\n      add\n        /* \"#utility.yul\":3406:3412   */\n      dup5\n        /* \"#utility.yul\":3368:3433   */\n      tag_318\n      jump\t// in\n    tag_395:\n        /* \"#utility.yul\":3230:3440   */\n      swap3\n      swap2\n      pop\n      pop\n      jump\t// out\n        /* \"#utility.yul\":3446:3564   */\n    tag_319:\n        /* \"#utility.yul\":3533:3557   */\n      tag_397\n        /* \"#utility.yul\":3551:3556   */\n      dup2\n        /* \"#utility.yul\":3533:3557   */\n      tag_314\n      jump\t// in\n    tag_397:\n        /* \"#utility.yul\":3528:3531   */\n      dup3\n        /* \"#utility.yul\":3521:3558   */\n      mstore\n        /* \"#utility.yul\":3446:3564   */\n      pop\n      pop\n      jump\t// out\n        /* \"#utility.yul\":3570:3792   */\n    tag_45:\n        /* \"#utility.yul\":3663:3667   */\n      0x00\n        /* \"#utility.yul\":3701:3703   */\n      0x20\n        /* \"#utility.yul\":3690:3699   */\n      dup3\n        /* \"#utility.yul\":3686:3704   */\n      add\n        /* \"#utility.yul\":3678:3704   */\n      swap1\n      pop\n        /* \"#utility.yul\":3714:3785   */\n      tag_399\n        /* \"#utility.yul\":3782:3783   */\n      0x00\n        /* \"#utility.yul\":3771:3780   */\n      dup4\n        /* \"#utility.yul\":3767:3784   */\n      add\n        /* \"#utility.yul\":3758:3764   */\n      dup5\n        /* \"#utility.yul\":3714:3785   */\n      tag_319\n      jump\t// in\n    tag_399:\n        /* \"#utility.yul\":3570:3792   */\n      swap3\n      swap2\n      pop\n      pop\n      jump\t// out\n        /* \"#utility.yul\":3798:4417   */\n    tag_53:\n        /* \"#utility.yul\":3875:3881   */\n      0x00\n        /* \"#utility.yul\":3883:3889   */\n      dup1\n        /* \"#utility.yul\":3891:3897   */\n      0x00\n        /* \"#utility.yul\":3940:3942   */\n      0x60\n        /* \"#utility.yul\":3928:3937   */\n      dup5\n        /* \"#utility.yul\":3919:3926   */\n      dup7\n        /* \"#utility.yul\":3915:3938   */\n      sub\n        /* \"#utility.yul\":3911:3943   */\n      slt\n        /* \"#utility.yul\":3908:4027   */\n      iszero\n      tag_401\n      jumpi\n        /* \"#utility.yul\":3946:4025   */\n      tag_402\n      tag_308\n      jump\t// in\n    tag_402:\n        /* \"#utility.yul\":3908:4027   */\n    tag_401:\n        /* \"#utility.yul\":4066:4067   */\n      0x00\n        /* \"#utility.yul\":4091:4144   */\n      tag_403\n        /* \"#utility.yul\":4136:4143   */\n      dup7\n        /* \"#utility.yul\":4127:4133   */\n      dup3\n        /* \"#utility.yul\":4116:4125   */\n      dup8\n        /* \"#utility.yul\":4112:4134   */\n      add\n        /* \"#utility.yul\":4091:4144   */\n      tag_313\n      jump\t// in\n    tag_403:\n        /* \"#utility.yul\":4081:4144   */\n      swap4\n      pop\n        /* \"#utility.yul\":4037:4154   */\n      pop\n        /* \"#utility.yul\":4193:4195   */\n      0x20\n        /* \"#utility.yul\":4219:4272   */\n      tag_404\n        /* \"#utility.yul\":4264:4271   */\n      dup7\n        /* \"#utility.yul\":4255:4261   */\n      dup3\n        /* \"#utility.yul\":4244:4253   */\n      dup8\n        /* \"#utility.yul\":4240:4262   */\n      add\n        /* \"#utility.yul\":4219:4272   */\n      tag_313\n      jump\t// in\n    tag_404:\n        /* \"#utility.yul\":4209:4272   */\n      swap3\n      pop\n        /* \"#utility.yul\":4164:4282   */\n      pop\n        /* \"#utility.yul\":4321:4323   */\n      0x40\n        /* \"#utility.yul\":4347:4400   */\n      tag_405\n        /* \"#utility.yul\":4392:4399   */\n      dup7\n        /* \"#utility.yul\":4383:4389   */\n      dup3\n        /* \"#utility.yul\":4372:4381   */\n      dup8\n        /* \"#utility.yul\":4368:4390   */\n      add\n        /* \"#utility.yul\":4347:4400   */\n      tag_316\n      jump\t// in\n    tag_405:\n        /* \"#utility.yul\":4337:4400   */\n      swap2\n      pop\n        /* \"#utility.yul\":4292:4410   */\n      pop\n        /* \"#utility.yul\":3798:4417   */\n      swap3\n      pop\n      swap3\n      pop\n      swap3\n      jump\t// out\n        /* \"#utility.yul\":4423:4509   */\n    tag_320:\n        /* \"#utility.yul\":4458:4465   */\n      0x00\n        /* \"#utility.yul\":4498:4502   */\n      0xff\n        /* \"#utility.yul\":4491:4496   */\n      dup3\n        /* \"#utility.yul\":4487:4503   */\n      and\n        /* \"#utility.yul\":4476:4503   */\n      swap1\n      pop\n        /* \"#utility.yul\":4423:4509   */\n      swap2\n      swap1\n      pop\n      jump\t// out\n        /* \"#utility.yul\":4515:4627   */\n    tag_321:\n        /* \"#utility.yul\":4598:4620   */\n      tag_408\n        /* \"#utility.yul\":4614:4619   */\n      dup2\n        /* \"#utility.yul\":4598:4620   */\n      tag_320\n      jump\t// in\n    tag_408:\n        /* \"#utility.yul\":4593:4596   */\n      dup3\n        /* \"#utility.yul\":4586:4621   */\n      mstore\n        /* \"#utility.yul\":4515:4627   */\n      pop\n      pop\n      jump\t// out\n        /* \"#utility.yul\":4633:4847   */\n    tag_60:\n        /* \"#utility.yul\":4722:4726   */\n      0x00\n        /* \"#utility.yul\":4760:4762   */\n      0x20\n        /* \"#utility.yul\":4749:4758   */\n      dup3\n        /* \"#utility.yul\":4745:4763   */\n      add\n        /* \"#utility.yul\":4737:4763   */\n      swap1\n      pop\n        /* \"#utility.yul\":4773:4840   */\n      tag_410\n        /* \"#utility.yul\":4837:4838   */\n      0x00\n        /* \"#utility.yul\":4826:4835   */\n      dup4\n        /* \"#utility.yul\":4822:4839   */\n      add\n        /* \"#utility.yul\":4813:4819   */\n      dup5\n        /* \"#utility.yul\":4773:4840   */\n      tag_321\n      jump\t// in\n    tag_410:\n        /* \"#utility.yul\":4633:4847   */\n      swap3\n      swap2\n      pop\n      pop\n      jump\t// out\n        /* \"#utility.yul\":4853:5182   */\n    tag_72:\n        /* \"#utility.yul\":4912:4918   */\n      0x00\n        /* \"#utility.yul\":4961:4963   */\n      0x20\n        /* \"#utility.yul\":4949:4958   */\n      dup3\n        /* \"#utility.yul\":4940:4947   */\n      dup5\n        /* \"#utility.yul\":4936:4959   */\n      sub\n        /* \"#utility.yul\":4932:4964   */\n      slt\n        /* \"#utility.yul\":4929:5048   */\n      iszero\n      tag_412\n      jumpi\n        /* \"#utility.yul\":4967:5046   */\n      tag_413\n      tag_308\n      jump\t// in\n    tag_413:\n        /* \"#utility.yul\":4929:5048   */\n    tag_412:\n        /* \"#utility.yul\":5087:5088   */\n      0x00\n        /* \"#utility.yul\":5112:5165   */\n      tag_414\n        /* \"#utility.yul\":5157:5164   */\n      dup5\n        /* \"#utility.yul\":5148:5154   */\n      dup3\n        /* \"#utility.yul\":5137:5146   */\n      dup6\n        /* \"#utility.yul\":5133:5155   */\n      add\n        /* \"#utility.yul\":5112:5165   */\n      tag_316\n      jump\t// in\n    tag_414:\n        /* \"#utility.yul\":5102:5165   */\n      swap2\n      pop\n        /* \"#utility.yul\":5058:5175   */\n      pop\n        /* \"#utility.yul\":4853:5182   */\n      swap3\n      swap2\n      pop\n      pop\n      jump\t// out\n        /* \"#utility.yul\":5188:5517   */\n    tag_81:\n        /* \"#utility.yul\":5247:5253   */\n      0x00\n        /* \"#utility.yul\":5296:5298   */\n      0x20\n        /* \"#utility.yul\":5284:5293   */\n      dup3\n        /* \"#utility.yul\":5275:5282   */\n      dup5\n        /* \"#utility.yul\":5271:5294   */\n      sub\n        /* \"#utility.yul\":5267:5299   */\n      slt\n        /* \"#utility.yul\":5264:5383   */\n      iszero\n      tag_416\n      jumpi\n        /* \"#utility.yul\":5302:5381   */\n      tag_417\n      tag_308\n      jump\t// in\n    tag_417:\n        /* \"#utility.yul\":5264:5383   */\n    tag_416:\n        /* \"#utility.yul\":5422:5423   */\n      0x00\n        /* \"#utility.yul\":5447:5500   */\n      tag_418\n        /* \"#utility.yul\":5492:5499   */\n      dup5\n        /* \"#utility.yul\":5483:5489   */\n      dup3\n        /* \"#utility.yul\":5472:5481   */\n      dup6\n        /* \"#utility.yul\":5468:5490   */\n      add\n        /* \"#utility.yul\":5447:5500   */\n      tag_313\n      jump\t// in\n    tag_418:\n        /* \"#utility.yul\":5437:5500   */\n      swap2\n      pop\n        /* \"#utility.yul\":5393:5510   */\n      pop\n        /* \"#utility.yul\":5188:5517   */\n      swap3\n      swap2\n      pop\n      pop\n      jump\t// out\n        /* \"#utility.yul\":5523:5641   */\n    tag_322:\n        /* \"#utility.yul\":5610:5634   */\n      tag_420\n        /* \"#utility.yul\":5628:5633   */\n      dup2\n        /* \"#utility.yul\":5610:5634   */\n      tag_311\n      jump\t// in\n    tag_420:\n        /* \"#utility.yul\":5605:5608   */\n      dup3\n        /* \"#utility.yul\":5598:5635   */\n      mstore\n        /* \"#utility.yul\":5523:5641   */\n      pop\n      pop\n      jump\t// out\n        /* \"#utility.yul\":5647:5869   */\n    tag_102:\n        /* \"#utility.yul\":5740:5744   */\n      0x00\n        /* \"#utility.yul\":5778:5780   */\n      0x20\n        /* \"#utility.yul\":5767:5776   */\n      dup3\n        /* \"#utility.yul\":5763:5781   */\n      add\n        /* \"#utility.yul\":5755:5781   */\n      swap1\n      pop\n        /* \"#utility.yul\":5791:5862   */\n      tag_422\n        /* \"#utility.yul\":5859:5860   */\n      0x00\n        /* \"#utility.yul\":5848:5857   */\n      dup4\n        /* \"#utility.yul\":5844:5861   */\n      add\n        /* \"#utility.yul\":5835:5841   */\n      dup5\n        /* \"#utility.yul\":5791:5862   */\n      tag_322\n      jump\t// in\n    tag_422:\n        /* \"#utility.yul\":5647:5869   */\n      swap3\n      swap2\n      pop\n      pop\n      jump\t// out\n        /* \"#utility.yul\":5875:5979   */\n    tag_323:\n        /* \"#utility.yul\":5920:5927   */\n      0x00\n        /* \"#utility.yul\":5949:5973   */\n      tag_424\n        /* \"#utility.yul\":5967:5972   */\n      dup3\n        /* \"#utility.yul\":5949:5973   */\n      tag_310\n      jump\t// in\n    tag_424:\n        /* \"#utility.yul\":5938:5973   */\n      swap1\n      pop\n        /* \"#utility.yul\":5875:5979   */\n      swap2\n      swap1\n      pop\n      jump\t// out\n        /* \"#utility.yul\":5985:6123   */\n    tag_324:\n        /* \"#utility.yul\":6066:6098   */\n      tag_426\n        /* \"#utility.yul\":6092:6097   */\n      dup2\n        /* \"#utility.yul\":6066:6098   */\n      tag_323\n      jump\t// in\n    tag_426:\n        /* \"#utility.yul\":6059:6064   */\n      dup2\n        /* \"#utility.yul\":6056:6099   */\n      eq\n        /* \"#utility.yul\":6046:6117   */\n      tag_427\n      jumpi\n        /* \"#utility.yul\":6113:6114   */\n      0x00\n        /* \"#utility.yul\":6110:6111   */\n      dup1\n        /* \"#utility.yul\":6103:6115   */\n      revert\n        /* \"#utility.yul\":6046:6117   */\n    tag_427:\n        /* \"#utility.yul\":5985:6123   */\n      pop\n      jump\t// out\n        /* \"#utility.yul\":6129:6284   */\n    tag_325:\n        /* \"#utility.yul\":6183:6188   */\n      0x00\n        /* \"#utility.yul\":6221:6227   */\n      dup2\n        /* \"#utility.yul\":6208:6228   */\n      calldataload\n        /* \"#utility.yul\":6199:6228   */\n      swap1\n      pop\n        /* \"#utility.yul\":6237:6278   */\n      tag_429\n        /* \"#utility.yul\":6272:6277   */\n      dup2\n        /* \"#utility.yul\":6237:6278   */\n      tag_324\n      jump\t// in\n    tag_429:\n        /* \"#utility.yul\":6129:6284   */\n      swap3\n      swap2\n      pop\n      pop\n      jump\t// out\n        /* \"#utility.yul\":6290:6780   */\n    tag_120:\n        /* \"#utility.yul\":6366:6372   */\n      0x00\n        /* \"#utility.yul\":6374:6380   */\n      dup1\n        /* \"#utility.yul\":6423:6425   */\n      0x40\n        /* \"#utility.yul\":6411:6420   */\n      dup4\n        /* \"#utility.yul\":6402:6409   */\n      dup6\n        /* \"#utility.yul\":6398:6421   */\n      sub\n        /* \"#utility.yul\":6394:6426   */\n      slt\n        /* \"#utility.yul\":6391:6510   */\n      iszero\n      tag_431\n      jumpi\n        /* \"#utility.yul\":6429:6508   */\n      tag_432\n      tag_308\n      jump\t// in\n    tag_432:\n        /* \"#utility.yul\":6391:6510   */\n    tag_431:\n        /* \"#utility.yul\":6549:6550   */\n      0x00\n        /* \"#utility.yul\":6574:6635   */\n      tag_433\n        /* \"#utility.yul\":6627:6634   */\n      dup6\n        /* \"#utility.yul\":6618:6624   */\n      dup3\n        /* \"#utility.yul\":6607:6616   */\n      dup7\n        /* \"#utility.yul\":6603:6625   */\n      add\n        /* \"#utility.yul\":6574:6635   */\n      tag_325\n      jump\t// in\n    tag_433:\n        /* \"#utility.yul\":6564:6635   */\n      swap3\n      pop\n        /* \"#utility.yul\":6520:6645   */\n      pop\n        /* \"#utility.yul\":6684:6686   */\n      0x20\n        /* \"#utility.yul\":6710:6763   */\n      tag_434\n        /* \"#utility.yul\":6755:6762   */\n      dup6\n        /* \"#utility.yul\":6746:6752   */\n      dup3\n        /* \"#utility.yul\":6735:6744   */\n      dup7\n        /* \"#utility.yul\":6731:6753   */\n      add\n        /* \"#utility.yul\":6710:6763   */\n      tag_316\n      jump\t// in\n    tag_434:\n        /* \"#utility.yul\":6700:6763   */\n      swap2\n      pop\n        /* \"#utility.yul\":6655:6773   */\n      pop\n        /* \"#utility.yul\":6290:6780   */\n      swap3\n      pop\n      swap3\n      swap1\n      pop\n      jump\t// out\n        /* \"#utility.yul\":6786:7260   */\n    tag_129:\n        /* \"#utility.yul\":6854:6860   */\n      0x00\n        /* \"#utility.yul\":6862:6868   */\n      dup1\n        /* \"#utility.yul\":6911:6913   */\n      0x40\n        /* \"#utility.yul\":6899:6908   */\n      dup4\n        /* \"#utility.yul\":6890:6897   */\n      dup6\n        /* \"#utility.yul\":6886:6909   */\n      sub\n        /* \"#utility.yul\":6882:6914   */\n      slt\n        /* \"#utility.yul\":6879:6998   */\n      iszero\n      tag_436\n      jumpi\n        /* \"#utility.yul\":6917:6996   */\n      tag_437\n      tag_308\n      jump\t// in\n    tag_437:\n        /* \"#utility.yul\":6879:6998   */\n    tag_436:\n        /* \"#utility.yul\":7037:7038   */\n      0x00\n        /* \"#utility.yul\":7062:7115   */\n      tag_438\n        /* \"#utility.yul\":7107:7114   */\n      dup6\n        /* \"#utility.yul\":7098:7104   */\n      dup3\n        /* \"#utility.yul\":7087:7096   */\n      dup7\n        /* \"#utility.yul\":7083:7105   */\n      add\n        /* \"#utility.yul\":7062:7115   */\n      tag_313\n      jump\t// in\n    tag_438:\n        /* \"#utility.yul\":7052:7115   */\n      swap3\n      pop\n        /* \"#utility.yul\":7008:7125   */\n      pop\n        /* \"#utility.yul\":7164:7166   */\n      0x20\n        /* \"#utility.yul\":7190:7243   */\n      tag_439\n        /* \"#utility.yul\":7235:7242   */\n      dup6\n        /* \"#utility.yul\":7226:7232   */\n      dup3\n        /* \"#utility.yul\":7215:7224   */\n      dup7\n        /* \"#utility.yul\":7211:7233   */\n      add\n        /* \"#utility.yul\":7190:7243   */\n      tag_313\n      jump\t// in\n    tag_439:\n        /* \"#utility.yul\":7180:7243   */\n      swap2\n      pop\n        /* \"#utility.yul\":7135:7253   */\n      pop\n        /* \"#utility.yul\":6786:7260   */\n      swap3\n      pop\n      swap3\n      swap1\n      pop\n      jump\t// out\n        /* \"#utility.yul\":7266:7446   */\n    tag_326:\n        /* \"#utility.yul\":7314:7391   */\n      0x4e487b7100000000000000000000000000000000000000000000000000000000\n        /* \"#utility.yul\":7311:7312   */\n      0x00\n        /* \"#utility.yul\":7304:7392   */\n      mstore\n        /* \"#utility.yul\":7411:7415   */\n      0x22\n        /* \"#utility.yul\":7408:7409   */\n      0x04\n        /* \"#utility.yul\":7401:7416   */\n      mstore\n        /* \"#utility.yul\":7435:7439   */\n      0x24\n        /* \"#utility.yul\":7432:7433   */\n      0x00\n        /* \"#utility.yul\":7425:7440   */\n      revert\n        /* \"#utility.yul\":7452:7772   */\n    tag_140:\n        /* \"#utility.yul\":7496:7502   */\n      0x00\n        /* \"#utility.yul\":7533:7534   */\n      0x02\n        /* \"#utility.yul\":7527:7531   */\n      dup3\n        /* \"#utility.yul\":7523:7535   */\n      div\n        /* \"#utility.yul\":7513:7535   */\n      swap1\n      pop\n        /* \"#utility.yul\":7580:7581   */\n      0x01\n        /* \"#utility.yul\":7574:7578   */\n      dup3\n        /* \"#utility.yul\":7570:7582   */\n      and\n        /* \"#utility.yul\":7601:7619   */\n      dup1\n        /* \"#utility.yul\":7591:7672   */\n      tag_442\n      jumpi\n        /* \"#utility.yul\":7657:7661   */\n      0x7f\n        /* \"#utility.yul\":7649:7655   */\n      dup3\n        /* \"#utility.yul\":7645:7662   */\n      and\n        /* \"#utility.yul\":7635:7662   */\n      swap2\n      pop\n        /* \"#utility.yul\":7591:7672   */\n    tag_442:\n        /* \"#utility.yul\":7719:7721   */\n      0x20\n        /* \"#utility.yul\":7711:7717   */\n      dup3\n        /* \"#utility.yul\":7708:7722   */\n      lt\n        /* \"#utility.yul\":7688:7706   */\n      dup2\n        /* \"#utility.yul\":7685:7723   */\n      sub\n        /* \"#utility.yul\":7682:7766   */\n      tag_443\n      jumpi\n        /* \"#utility.yul\":7738:7756   */\n      tag_444\n      tag_326\n      jump\t// in\n    tag_444:\n        /* \"#utility.yul\":7682:7766   */\n    tag_443:\n        /* \"#utility.yul\":7503:7772   */\n      pop\n        /* \"#utility.yul\":7452:7772   */\n      swap2\n      swap1\n      pop\n      jump\t// out\n        /* \"#utility.yul\":7778:7958   */\n    tag_327:\n        /* \"#utility.yul\":7826:7903   */\n      0x4e487b7100000000000000000000000000000000000000000000000000000000\n        /* \"#utility.yul\":7823:7824   */\n      0x00\n        /* \"#utility.yul\":7816:7904   */\n      mstore\n        /* \"#utility.yul\":7923:7927   */\n      0x11\n        /* \"#utility.yul\":7920:7921   */\n      0x04\n        /* \"#utility.yul\":7913:7928   */\n      mstore\n        /* \"#utility.yul\":7947:7951   */\n      0x24\n        /* \"#utility.yul\":7944:7945   */\n      0x00\n        /* \"#utility.yul\":7937:7952   */\n      revert\n        /* \"#utility.yul\":7964:8155   */\n    tag_164:\n        /* \"#utility.yul\":8004:8007   */\n      0x00\n        /* \"#utility.yul\":8023:8043   */\n      tag_447\n        /* \"#utility.yul\":8041:8042   */\n      dup3\n        /* \"#utility.yul\":8023:8043   */\n      tag_314\n      jump\t// in\n    tag_447:\n        /* \"#utility.yul\":8018:8043   */\n      swap2\n      pop\n        /* \"#utility.yul\":8057:8077   */\n      tag_448\n        /* \"#utility.yul\":8075:8076   */\n      dup4\n        /* \"#utility.yul\":8057:8077   */\n      tag_314\n      jump\t// in\n    tag_448:\n        /* \"#utility.yul\":8052:8077   */\n      swap3\n      pop\n        /* \"#utility.yul\":8100:8101   */\n      dup3\n        /* \"#utility.yul\":8097:8098   */\n      dup3\n        /* \"#utility.yul\":8093:8102   */\n      add\n        /* \"#utility.yul\":8086:8102   */\n      swap1\n      pop\n        /* \"#utility.yul\":8121:8124   */\n      dup1\n        /* \"#utility.yul\":8118:8119   */\n      dup3\n        /* \"#utility.yul\":8115:8125   */\n      gt\n        /* \"#utility.yul\":8112:8148   */\n      iszero\n      tag_449\n      jumpi\n        /* \"#utility.yul\":8128:8146   */\n      tag_450\n      tag_327\n      jump\t// in\n    tag_450:\n        /* \"#utility.yul\":8112:8148   */\n    tag_449:\n        /* \"#utility.yul\":7964:8155   */\n      swap3\n      swap2\n      pop\n      pop\n      jump\t// out\n        /* \"#utility.yul\":8161:8385   */\n    tag_328:\n        /* \"#utility.yul\":8301:8335   */\n      0x45524332303a2064656372656173656420616c6c6f77616e63652062656c6f77\n        /* \"#utility.yul\":8297:8298   */\n      0x00\n        /* \"#utility.yul\":8289:8295   */\n      dup3\n        /* \"#utility.yul\":8285:8299   */\n      add\n        /* \"#utility.yul\":8278:8336   */\n      mstore\n        /* \"#utility.yul\":8370:8377   */\n      0x207a65726f000000000000000000000000000000000000000000000000000000\n        /* \"#utility.yul\":8365:8367   */\n      0x20\n        /* \"#utility.yul\":8357:8363   */\n      dup3\n        /* \"#utility.yul\":8353:8368   */\n      add\n        /* \"#utility.yul\":8346:8378   */\n      mstore\n        /* \"#utility.yul\":8161:8385   */\n      pop\n      jump\t// out\n        /* \"#utility.yul\":8391:8757   */\n    tag_329:\n        /* \"#utility.yul\":8533:8536   */\n      0x00\n        /* \"#utility.yul\":8554:8621   */\n      tag_453\n        /* \"#utility.yul\":8618:8620   */\n      0x25\n        /* \"#utility.yul\":8613:8616   */\n      dup4\n        /* \"#utility.yul\":8554:8621   */\n      tag_303\n      jump\t// in\n    tag_453:\n        /* \"#utility.yul\":8547:8621   */\n      swap2\n      pop\n        /* \"#utility.yul\":8630:8723   */\n      tag_454\n        /* \"#utility.yul\":8719:8722   */\n      dup3\n        /* \"#utility.yul\":8630:8723   */\n      tag_328\n      jump\t// in\n    tag_454:\n        /* \"#utility.yul\":8748:8750   */\n      0x40\n        /* \"#utility.yul\":8743:8746   */\n      dup3\n        /* \"#utility.yul\":8739:8751   */\n      add\n        /* \"#utility.yul\":8732:8751   */\n      swap1\n      pop\n        /* \"#utility.yul\":8391:8757   */\n      swap2\n      swap1\n      pop\n      jump\t// out\n        /* \"#utility.yul\":8763:9182   */\n    tag_206:\n        /* \"#utility.yul\":8929:8933   */\n      0x00\n        /* \"#utility.yul\":8967:8969   */\n      0x20\n        /* \"#utility.yul\":8956:8965   */\n      dup3\n        /* \"#utility.yul\":8952:8970   */\n      add\n        /* \"#utility.yul\":8944:8970   */\n      swap1\n      pop\n        /* \"#utility.yul\":9016:9025   */\n      dup2\n        /* \"#utility.yul\":9010:9014   */\n      dup2\n        /* \"#utility.yul\":9006:9026   */\n      sub\n        /* \"#utility.yul\":9002:9003   */\n      0x00\n        /* \"#utility.yul\":8991:9000   */\n      dup4\n        /* \"#utility.yul\":8987:9004   */\n      add\n        /* \"#utility.yul\":8980:9027   */\n      mstore\n        /* \"#utility.yul\":9044:9175   */\n      tag_456\n        /* \"#utility.yul\":9170:9174   */\n      dup2\n        /* \"#utility.yul\":9044:9175   */\n      tag_329\n      jump\t// in\n    tag_456:\n        /* \"#utility.yul\":9036:9175   */\n      swap1\n      pop\n        /* \"#utility.yul\":8763:9182   */\n      swap2\n      swap1\n      pop\n      jump\t// out\n        /* \"#utility.yul\":9188:9413   */\n    tag_330:\n        /* \"#utility.yul\":9328:9362   */\n      0x4f776e61626c653a206e6577206f776e657220697320746865207a65726f2061\n        /* \"#utility.yul\":9324:9325   */\n      0x00\n        /* \"#utility.yul\":9316:9322   */\n      dup3\n        /* \"#utility.yul\":9312:9326   */\n      add\n        /* \"#utility.yul\":9305:9363   */\n      mstore\n        /* \"#utility.yul\":9397:9405   */\n      0x6464726573730000000000000000000000000000000000000000000000000000\n        /* \"#utility.yul\":9392:9394   */\n      0x20\n        /* \"#utility.yul\":9384:9390   */\n      dup3\n        /* \"#utility.yul\":9380:9395   */\n      add\n        /* \"#utility.yul\":9373:9406   */\n      mstore\n        /* \"#utility.yul\":9188:9413   */\n      pop\n      jump\t// out\n        /* \"#utility.yul\":9419:9785   */\n    tag_331:\n        /* \"#utility.yul\":9561:9564   */\n      0x00\n        /* \"#utility.yul\":9582:9649   */\n      tag_459\n        /* \"#utility.yul\":9646:9648   */\n      0x26\n        /* \"#utility.yul\":9641:9644   */\n      dup4\n        /* \"#utility.yul\":9582:9649   */\n      tag_303\n      jump\t// in\n    tag_459:\n        /* \"#utility.yul\":9575:9649   */\n      swap2\n      pop\n        /* \"#utility.yul\":9658:9751   */\n      tag_460\n        /* \"#utility.yul\":9747:9750   */\n      dup3\n        /* \"#utility.yul\":9658:9751   */\n      tag_330\n      jump\t// in\n    tag_460:\n        /* \"#utility.yul\":9776:9778   */\n      0x40\n        /* \"#utility.yul\":9771:9774   */\n      dup3\n        /* \"#utility.yul\":9767:9779   */\n      add\n        /* \"#utility.yul\":9760:9779   */\n      swap1\n      pop\n        /* \"#utility.yul\":9419:9785   */\n      swap2\n      swap1\n      pop\n      jump\t// out\n        /* \"#utility.yul\":9791:10210   */\n    tag_223:\n        /* \"#utility.yul\":9957:9961   */\n      0x00\n        /* \"#utility.yul\":9995:9997   */\n      0x20\n        /* \"#utility.yul\":9984:9993   */\n      dup3\n        /* \"#utility.yul\":9980:9998   */\n      add\n        /* \"#utility.yul\":9972:9998   */\n      swap1\n      pop\n        /* \"#utility.yul\":10044:10053   */\n      dup2\n        /* \"#utility.yul\":10038:10042   */\n      dup2\n        /* \"#utility.yul\":10034:10054   */\n      sub\n        /* \"#utility.yul\":10030:10031   */\n      0x00\n        /* \"#utility.yul\":10019:10028   */\n      dup4\n        /* \"#utility.yul\":10015:10032   */\n      add\n        /* \"#utility.yul\":10008:10055   */\n      mstore\n        /* \"#utility.yul\":10072:10203   */\n      tag_462\n        /* \"#utility.yul\":10198:10202   */\n      dup2\n        /* \"#utility.yul\":10072:10203   */\n      tag_331\n      jump\t// in\n    tag_462:\n        /* \"#utility.yul\":10064:10203   */\n      swap1\n      pop\n        /* \"#utility.yul\":9791:10210   */\n      swap2\n      swap1\n      pop\n      jump\t// out\n        /* \"#utility.yul\":10216:10439   */\n    tag_332:\n        /* \"#utility.yul\":10356:10390   */\n      0x45524332303a20617070726f76652066726f6d20746865207a65726f20616464\n        /* \"#utility.yul\":10352:10353   */\n      0x00\n        /* \"#utility.yul\":10344:10350   */\n      dup3\n        /* \"#utility.yul\":10340:10354   */\n      add\n        /* \"#utility.yul\":10333:10391   */\n      mstore\n        /* \"#utility.yul\":10425:10431   */\n      0x7265737300000000000000000000000000000000000000000000000000000000\n        /* \"#utility.yul\":10420:10422   */\n      0x20\n        /* \"#utility.yul\":10412:10418   */\n      dup3\n        /* \"#utility.yul\":10408:10423   */\n      add\n        /* \"#utility.yul\":10401:10432   */\n      mstore\n        /* \"#utility.yul\":10216:10439   */\n      pop\n      jump\t// out\n        /* \"#utility.yul\":10445:10811   */\n    tag_333:\n        /* \"#utility.yul\":10587:10590   */\n      0x00\n        /* \"#utility.yul\":10608:10675   */\n      tag_465\n        /* \"#utility.yul\":10672:10674   */\n      0x24\n        /* \"#utility.yul\":10667:10670   */\n      dup4\n        /* \"#utility.yul\":10608:10675   */\n      tag_303\n      jump\t// in\n    tag_465:\n        /* \"#utility.yul\":10601:10675   */\n      swap2\n      pop\n        /* \"#utility.yul\":10684:10777   */\n      tag_466\n        /* \"#utility.yul\":10773:10776   */\n      dup3\n        /* \"#utility.yul\":10684:10777   */\n      tag_332\n      jump\t// in\n    tag_466:\n        /* \"#utility.yul\":10802:10804   */\n      0x40\n        /* \"#utility.yul\":10797:10800   */\n      dup3\n        /* \"#utility.yul\":10793:10805   */\n      add\n        /* \"#utility.yul\":10786:10805   */\n      swap1\n      pop\n        /* \"#utility.yul\":10445:10811   */\n      swap2\n      swap1\n      pop\n      jump\t// out\n        /* \"#utility.yul\":10817:11236   */\n    tag_229:\n        /* \"#utility.yul\":10983:10987   */\n      0x00\n        /* \"#utility.yul\":11021:11023   */\n      0x20\n        /* \"#utility.yul\":11010:11019   */\n      dup3\n        /* \"#utility.yul\":11006:11024   */\n      add\n        /* \"#utility.yul\":10998:11024   */\n      swap1\n      pop\n        /* \"#utility.yul\":11070:11079   */\n      dup2\n        /* \"#utility.yul\":11064:11068   */\n      dup2\n        /* \"#utility.yul\":11060:11080   */\n      sub\n        /* \"#utility.yul\":11056:11057   */\n      0x00\n        /* \"#utility.yul\":11045:11054   */\n      dup4\n        /* \"#utility.yul\":11041:11058   */\n      add\n        /* \"#utility.yul\":11034:11081   */\n      mstore\n        /* \"#utility.yul\":11098:11229   */\n      tag_468\n        /* \"#utility.yul\":11224:11228   */\n      dup2\n        /* \"#utility.yul\":11098:11229   */\n      tag_333\n      jump\t// in\n    tag_468:\n        /* \"#utility.yul\":11090:11229   */\n      swap1\n      pop\n        /* \"#utility.yul\":10817:11236   */\n      swap2\n      swap1\n      pop\n      jump\t// out\n        /* \"#utility.yul\":11242:11463   */\n    tag_334:\n        /* \"#utility.yul\":11382:11416   */\n      0x45524332303a20617070726f766520746f20746865207a65726f206164647265\n        /* \"#utility.yul\":11378:11379   */\n      0x00\n        /* \"#utility.yul\":11370:11376   */\n      dup3\n        /* \"#utility.yul\":11366:11380   */\n      add\n        /* \"#utility.yul\":11359:11417   */\n      mstore\n        /* \"#utility.yul\":11451:11455   */\n      0x7373000000000000000000000000000000000000000000000000000000000000\n        /* \"#utility.yul\":11446:11448   */\n      0x20\n        /* \"#utility.yul\":11438:11444   */\n      dup3\n        /* \"#utility.yul\":11434:11449   */\n      add\n        /* \"#utility.yul\":11427:11456   */\n      mstore\n        /* \"#utility.yul\":11242:11463   */\n      pop\n      jump\t// out\n        /* \"#utility.yul\":11469:11835   */\n    tag_335:\n        /* \"#utility.yul\":11611:11614   */\n      0x00\n        /* \"#utility.yul\":11632:11699   */\n      tag_471\n        /* \"#utility.yul\":11696:11698   */\n      0x22\n        /* \"#utility.yul\":11691:11694   */\n      dup4\n        /* \"#utility.yul\":11632:11699   */\n      tag_303\n      jump\t// in\n    tag_471:\n        /* \"#utility.yul\":11625:11699   */\n      swap2\n      pop\n        /* \"#utility.yul\":11708:11801   */\n      tag_472\n        /* \"#utility.yul\":11797:11800   */\n      dup3\n        /* \"#utility.yul\":11708:11801   */\n      tag_334\n      jump\t// in\n    tag_472:\n        /* \"#utility.yul\":11826:11828   */\n      0x40\n        /* \"#utility.yul\":11821:11824   */\n      dup3\n        /* \"#utility.yul\":11817:11829   */\n      add\n        /* \"#utility.yul\":11810:11829   */\n      swap1\n      pop\n        /* \"#utility.yul\":11469:11835   */\n      swap2\n      swap1\n      pop\n      jump\t// out\n        /* \"#utility.yul\":11841:12260   */\n    tag_232:\n        /* \"#utility.yul\":12007:12011   */\n      0x00\n        /* \"#utility.yul\":12045:12047   */\n      0x20\n        /* \"#utility.yul\":12034:12043   */\n      dup3\n        /* \"#utility.yul\":12030:12048   */\n      add\n        /* \"#utility.yul\":12022:12048   */\n      swap1\n      pop\n        /* \"#utility.yul\":12094:12103   */\n      dup2\n        /* \"#utility.yul\":12088:12092   */\n      dup2\n        /* \"#utility.yul\":12084:12104   */\n      sub\n        /* \"#utility.yul\":12080:12081   */\n      0x00\n        /* \"#utility.yul\":12069:12078   */\n      dup4\n        /* \"#utility.yul\":12065:12082   */\n      add\n        /* \"#utility.yul\":12058:12105   */\n      mstore\n        /* \"#utility.yul\":12122:12253   */\n      tag_474\n        /* \"#utility.yul\":12248:12252   */\n      dup2\n        /* \"#utility.yul\":12122:12253   */\n      tag_335\n      jump\t// in\n    tag_474:\n        /* \"#utility.yul\":12114:12253   */\n      swap1\n      pop\n        /* \"#utility.yul\":11841:12260   */\n      swap2\n      swap1\n      pop\n      jump\t// out\n        /* \"#utility.yul\":12266:12445   */\n    tag_336:\n        /* \"#utility.yul\":12406:12437   */\n      0x45524332303a20696e73756666696369656e7420616c6c6f77616e6365000000\n        /* \"#utility.yul\":12402:12403   */\n      0x00\n        /* \"#utility.yul\":12394:12400   */\n      dup3\n        /* \"#utility.yul\":12390:12404   */\n      add\n        /* \"#utility.yul\":12383:12438   */\n      mstore\n        /* \"#utility.yul\":12266:12445   */\n      pop\n      jump\t// out\n        /* \"#utility.yul\":12451:12817   */\n    tag_337:\n        /* \"#utility.yul\":12593:12596   */\n      0x00\n        /* \"#utility.yul\":12614:12681   */\n      tag_477\n        /* \"#utility.yul\":12678:12680   */\n      0x1d\n        /* \"#utility.yul\":12673:12676   */\n      dup4\n        /* \"#utility.yul\":12614:12681   */\n      tag_303\n      jump\t// in\n    tag_477:\n        /* \"#utility.yul\":12607:12681   */\n      swap2\n      pop\n        /* \"#utility.yul\":12690:12783   */\n      tag_478\n        /* \"#utility.yul\":12779:12782   */\n      dup3\n        /* \"#utility.yul\":12690:12783   */\n      tag_336\n      jump\t// in\n    tag_478:\n        /* \"#utility.yul\":12808:12810   */\n      0x20\n        /* \"#utility.yul\":12803:12806   */\n      dup3\n        /* \"#utility.yul\":12799:12811   */\n      add\n        /* \"#utility.yul\":12792:12811   */\n      swap1\n      pop\n        /* \"#utility.yul\":12451:12817   */\n      swap2\n      swap1\n      pop\n      jump\t// out\n        /* \"#utility.yul\":12823:13242   */\n    tag_239:\n        /* \"#utility.yul\":12989:12993   */\n      0x00\n        /* \"#utility.yul\":13027:13029   */\n      0x20\n        /* \"#utility.yul\":13016:13025   */\n      dup3\n        /* \"#utility.yul\":13012:13030   */\n      add\n        /* \"#utility.yul\":13004:13030   */\n      swap1\n      pop\n        /* \"#utility.yul\":13076:13085   */\n      dup2\n        /* \"#utility.yul\":13070:13074   */\n      dup2\n        /* \"#utility.yul\":13066:13086   */\n      sub\n        /* \"#utility.yul\":13062:13063   */\n      0x00\n        /* \"#utility.yul\":13051:13060   */\n      dup4\n        /* \"#utility.yul\":13047:13064   */\n      add\n        /* \"#utility.yul\":13040:13087   */\n      mstore\n        /* \"#utility.yul\":13104:13235   */\n      tag_480\n        /* \"#utility.yul\":13230:13234   */\n      dup2\n        /* \"#utility.yul\":13104:13235   */\n      tag_337\n      jump\t// in\n    tag_480:\n        /* \"#utility.yul\":13096:13235   */\n      swap1\n      pop\n        /* \"#utility.yul\":12823:13242   */\n      swap2\n      swap1\n      pop\n      jump\t// out\n        /* \"#utility.yul\":13248:13472   */\n    tag_338:\n        /* \"#utility.yul\":13388:13422   */\n      0x45524332303a207472616e736665722066726f6d20746865207a65726f206164\n        /* \"#utility.yul\":13384:13385   */\n      0x00\n        /* \"#utility.yul\":13376:13382   */\n      dup3\n        /* \"#utility.yul\":13372:13386   */\n      add\n        /* \"#utility.yul\":13365:13423   */\n      mstore\n        /* \"#utility.yul\":13457:13464   */\n      0x6472657373000000000000000000000000000000000000000000000000000000\n        /* \"#utility.yul\":13452:13454   */\n      0x20\n        /* \"#utility.yul\":13444:13450   */\n      dup3\n        /* \"#utility.yul\":13440:13455   */\n      add\n        /* \"#utility.yul\":13433:13465   */\n      mstore\n        /* \"#utility.yul\":13248:13472   */\n      pop\n      jump\t// out\n        /* \"#utility.yul\":13478:13844   */\n    tag_339:\n        /* \"#utility.yul\":13620:13623   */\n      0x00\n        /* \"#utility.yul\":13641:13708   */\n      tag_483\n        /* \"#utility.yul\":13705:13707   */\n      0x25\n        /* \"#utility.yul\":13700:13703   */\n      dup4\n        /* \"#utility.yul\":13641:13708   */\n      tag_303\n      jump\t// in\n    tag_483:\n        /* \"#utility.yul\":13634:13708   */\n      swap2\n      pop\n        /* \"#utility.yul\":13717:13810   */\n      tag_484\n        /* \"#utility.yul\":13806:13809   */\n      dup3\n        /* \"#utility.yul\":13717:13810   */\n      tag_338\n      jump\t// in\n    tag_484:\n        /* \"#utility.yul\":13835:13837   */\n      0x40\n        /* \"#utility.yul\":13830:13833   */\n      dup3\n        /* \"#utility.yul\":13826:13838   */\n      add\n        /* \"#utility.yul\":13819:13838   */\n      swap1\n      pop\n        /* \"#utility.yul\":13478:13844   */\n      swap2\n      swap1\n      pop\n      jump\t// out\n        /* \"#utility.yul\":13850:14269   */\n    tag_244:\n        /* \"#utility.yul\":14016:14020   */\n      0x00\n        /* \"#utility.yul\":14054:14056   */\n      0x20\n        /* \"#utility.yul\":14043:14052   */\n      dup3\n        /* \"#utility.yul\":14039:14057   */\n      add\n        /* \"#utility.yul\":14031:14057   */\n      swap1\n      pop\n        /* \"#utility.yul\":14103:14112   */\n      dup2\n        /* \"#utility.yul\":14097:14101   */\n      dup2\n        /* \"#utility.yul\":14093:14113   */\n      sub\n        /* \"#utility.yul\":14089:14090   */\n      0x00\n        /* \"#utility.yul\":14078:14087   */\n      dup4\n        /* \"#utility.yul\":14074:14091   */\n      add\n        /* \"#utility.yul\":14067:14114   */\n      mstore\n        /* \"#utility.yul\":14131:14262   */\n      tag_486\n        /* \"#utility.yul\":14257:14261   */\n      dup2\n        /* \"#utility.yul\":14131:14262   */\n      tag_339\n      jump\t// in\n    tag_486:\n        /* \"#utility.yul\":14123:14262   */\n      swap1\n      pop\n        /* \"#utility.yul\":13850:14269   */\n      swap2\n      swap1\n      pop\n      jump\t// out\n        /* \"#utility.yul\":14275:14497   */\n    tag_340:\n        /* \"#utility.yul\":14415:14449   */\n      0x45524332303a207472616e7366657220746f20746865207a65726f2061646472\n        /* \"#utility.yul\":14411:14412   */\n      0x00\n        /* \"#utility.yul\":14403:14409   */\n      dup3\n        /* \"#utility.yul\":14399:14413   */\n      add\n        /* \"#utility.yul\":14392:14450   */\n      mstore\n        /* \"#utility.yul\":14484:14489   */\n      0x6573730000000000000000000000000000000000000000000000000000000000\n        /* \"#utility.yul\":14479:14481   */\n      0x20\n        /* \"#utility.yul\":14471:14477   */\n      dup3\n        /* \"#utility.yul\":14467:14482   */\n      add\n        /* \"#utility.yul\":14460:14490   */\n      mstore\n        /* \"#utility.yul\":14275:14497   */\n      pop\n      jump\t// out\n        /* \"#utility.yul\":14503:14869   */\n    tag_341:\n        /* \"#utility.yul\":14645:14648   */\n      0x00\n        /* \"#utility.yul\":14666:14733   */\n      tag_489\n        /* \"#utility.yul\":14730:14732   */\n      0x23\n        /* \"#utility.yul\":14725:14728   */\n      dup4\n        /* \"#utility.yul\":14666:14733   */\n      tag_303\n      jump\t// in\n    tag_489:\n        /* \"#utility.yul\":14659:14733   */\n      swap2\n      pop\n        /* \"#utility.yul\":14742:14835   */\n      tag_490\n        /* \"#utility.yul\":14831:14834   */\n      dup3\n        /* \"#utility.yul\":14742:14835   */\n      tag_340\n      jump\t// in\n    tag_490:\n        /* \"#utility.yul\":14860:14862   */\n      0x40\n        /* \"#utility.yul\":14855:14858   */\n      dup3\n        /* \"#utility.yul\":14851:14863   */\n      add\n        /* \"#utility.yul\":14844:14863   */\n      swap1\n      pop\n        /* \"#utility.yul\":14503:14869   */\n      swap2\n      swap1\n      pop\n      jump\t// out\n        /* \"#utility.yul\":14875:15294   */\n    tag_247:\n        /* \"#utility.yul\":15041:15045   */\n      0x00\n        /* \"#utility.yul\":15079:15081   */\n      0x20\n        /* \"#utility.yul\":15068:15077   */\n      dup3\n        /* \"#utility.yul\":15064:15082   */\n      add\n        /* \"#utility.yul\":15056:15082   */\n      swap1\n      pop\n        /* \"#utility.yul\":15128:15137   */\n      dup2\n        /* \"#utility.yul\":15122:15126   */\n      dup2\n        /* \"#utility.yul\":15118:15138   */\n      sub\n        /* \"#utility.yul\":15114:15115   */\n      0x00\n        /* \"#utility.yul\":15103:15112   */\n      dup4\n        /* \"#utility.yul\":15099:15116   */\n      add\n        /* \"#utility.yul\":15092:15139   */\n      mstore\n        /* \"#utility.yul\":15156:15287   */\n      tag_492\n        /* \"#utility.yul\":15282:15286   */\n      dup2\n        /* \"#utility.yul\":15156:15287   */\n      tag_341\n      jump\t// in\n    tag_492:\n        /* \"#utility.yul\":15148:15287   */\n      swap1\n      pop\n        /* \"#utility.yul\":14875:15294   */\n      swap2\n      swap1\n      pop\n      jump\t// out\n        /* \"#utility.yul\":15300:15525   */\n    tag_342:\n        /* \"#utility.yul\":15440:15474   */\n      0x45524332303a207472616e7366657220616d6f756e7420657863656564732062\n        /* \"#utility.yul\":15436:15437   */\n      0x00\n        /* \"#utility.yul\":15428:15434   */\n      dup3\n        /* \"#utility.yul\":15424:15438   */\n      add\n        /* \"#utility.yul\":15417:15475   */\n      mstore\n        /* \"#utility.yul\":15509:15517   */\n      0x616c616e63650000000000000000000000000000000000000000000000000000\n        /* \"#utility.yul\":15504:15506   */\n      0x20\n        /* \"#utility.yul\":15496:15502   */\n      dup3\n        /* \"#utility.yul\":15492:15507   */\n      add\n        /* \"#utility.yul\":15485:15518   */\n      mstore\n        /* \"#utility.yul\":15300:15525   */\n      pop\n      jump\t// out\n        /* \"#utility.yul\":15531:15897   */\n    tag_343:\n        /* \"#utility.yul\":15673:15676   */\n      0x00\n        /* \"#utility.yul\":15694:15761   */\n      tag_495\n        /* \"#utility.yul\":15758:15760   */\n      0x26\n        /* \"#utility.yul\":15753:15756   */\n      dup4\n        /* \"#utility.yul\":15694:15761   */\n      tag_303\n      jump\t// in\n    tag_495:\n        /* \"#utility.yul\":15687:15761   */\n      swap2\n      pop\n        /* \"#utility.yul\":15770:15863   */\n      tag_496\n        /* \"#utility.yul\":15859:15862   */\n      dup3\n        /* \"#utility.yul\":15770:15863   */\n      tag_342\n      jump\t// in\n    tag_496:\n        /* \"#utility.yul\":15888:15890   */\n      0x40\n        /* \"#utility.yul\":15883:15886   */\n      dup3\n        /* \"#utility.yul\":15879:15891   */\n      add\n        /* \"#utility.yul\":15872:15891   */\n      swap1\n      pop\n        /* \"#utility.yul\":15531:15897   */\n      swap2\n      swap1\n      pop\n      jump\t// out\n        /* \"#utility.yul\":15903:16322   */\n    tag_252:\n        /* \"#utility.yul\":16069:16073   */\n      0x00\n        /* \"#utility.yul\":16107:16109   */\n      0x20\n        /* \"#utility.yul\":16096:16105   */\n      dup3\n        /* \"#utility.yul\":16092:16110   */\n      add\n        /* \"#utility.yul\":16084:16110   */\n      swap1\n      pop\n        /* \"#utility.yul\":16156:16165   */\n      dup2\n        /* \"#utility.yul\":16150:16154   */\n      dup2\n        /* \"#utility.yul\":16146:16166   */\n      sub\n        /* \"#utility.yul\":16142:16143   */\n      0x00\n        /* \"#utility.yul\":16131:16140   */\n      dup4\n        /* \"#utility.yul\":16127:16144   */\n      add\n        /* \"#utility.yul\":16120:16167   */\n      mstore\n        /* \"#utility.yul\":16184:16315   */\n      tag_498\n        /* \"#utility.yul\":16310:16314   */\n      dup2\n        /* \"#utility.yul\":16184:16315   */\n      tag_343\n      jump\t// in\n    tag_498:\n        /* \"#utility.yul\":16176:16315   */\n      swap1\n      pop\n        /* \"#utility.yul\":15903:16322   */\n      swap2\n      swap1\n      pop\n      jump\t// out\n        /* \"#utility.yul\":16328:16510   */\n    tag_344:\n        /* \"#utility.yul\":16468:16502   */\n      0x4f776e61626c653a2063616c6c6572206973206e6f7420746865206f776e6572\n        /* \"#utility.yul\":16464:16465   */\n      0x00\n        /* \"#utility.yul\":16456:16462   */\n      dup3\n        /* \"#utility.yul\":16452:16466   */\n      add\n        /* \"#utility.yul\":16445:16503   */\n      mstore\n        /* \"#utility.yul\":16328:16510   */\n      pop\n      jump\t// out\n        /* \"#utility.yul\":16516:16882   */\n    tag_345:\n        /* \"#utility.yul\":16658:16661   */\n      0x00\n        /* \"#utility.yul\":16679:16746   */\n      tag_501\n        /* \"#utility.yul\":16743:16745   */\n      0x20\n        /* \"#utility.yul\":16738:16741   */\n      dup4\n        /* \"#utility.yul\":16679:16746   */\n      tag_303\n      jump\t// in\n    tag_501:\n        /* \"#utility.yul\":16672:16746   */\n      swap2\n      pop\n        /* \"#utility.yul\":16755:16848   */\n      tag_502\n        /* \"#utility.yul\":16844:16847   */\n      dup3\n        /* \"#utility.yul\":16755:16848   */\n      tag_344\n      jump\t// in\n    tag_502:\n        /* \"#utility.yul\":16873:16875   */\n      0x20\n        /* \"#utility.yul\":16868:16871   */\n      dup3\n        /* \"#utility.yul\":16864:16876   */\n      add\n        /* \"#utility.yul\":16857:16876   */\n      swap1\n      pop\n        /* \"#utility.yul\":16516:16882   */\n      swap2\n      swap1\n      pop\n      jump\t// out\n        /* \"#utility.yul\":16888:17307   */\n    tag_261:\n        /* \"#utility.yul\":17054:17058   */\n      0x00\n        /* \"#utility.yul\":17092:17094   */\n      0x20\n        /* \"#utility.yul\":17081:17090   */\n      dup3\n        /* \"#utility.yul\":17077:17095   */\n      add\n        /* \"#utility.yul\":17069:17095   */\n      swap1\n      pop\n        /* \"#utility.yul\":17141:17150   */\n      dup2\n        /* \"#utility.yul\":17135:17139   */\n      dup2\n        /* \"#utility.yul\":17131:17151   */\n      sub\n        /* \"#utility.yul\":17127:17128   */\n      0x00\n        /* \"#utility.yul\":17116:17125   */\n      dup4\n        /* \"#utility.yul\":17112:17129   */\n      add\n        /* \"#utility.yul\":17105:17152   */\n      mstore\n        /* \"#utility.yul\":17169:17300   */\n      tag_504\n        /* \"#utility.yul\":17295:17299   */\n      dup2\n        /* \"#utility.yul\":17169:17300   */\n      tag_345\n      jump\t// in\n    tag_504:\n        /* \"#utility.yul\":17161:17300   */\n      swap1\n      pop\n        /* \"#utility.yul\":16888:17307   */\n      swap2\n      swap1\n      pop\n      jump\t// out\n        /* \"#utility.yul\":17313:17533   */\n    tag_346:\n        /* \"#utility.yul\":17453:17487   */\n      0x45524332303a206275726e2066726f6d20746865207a65726f20616464726573\n        /* \"#utility.yul\":17449:17450   */\n      0x00\n        /* \"#utility.yul\":17441:17447   */\n      dup3\n        /* \"#utility.yul\":17437:17451   */\n      add\n        /* \"#utility.yul\":17430:17488   */\n      mstore\n        /* \"#utility.yul\":17522:17525   */\n      0x7300000000000000000000000000000000000000000000000000000000000000\n        /* \"#utility.yul\":17517:17519   */\n      0x20\n        /* \"#utility.yul\":17509:17515   */\n      dup3\n        /* \"#utility.yul\":17505:17520   */\n      add\n        /* \"#utility.yul\":17498:17526   */\n      mstore\n        /* \"#utility.yul\":17313:17533   */\n      pop\n      jump\t// out\n        /* \"#utility.yul\":17539:17905   */\n    tag_347:\n        /* \"#utility.yul\":17681:17684   */\n      0x00\n        /* \"#utility.yul\":17702:17769   */\n      tag_507\n        /* \"#utility.yul\":17766:17768   */\n      0x21\n        /* \"#utility.yul\":17761:17764   */\n      dup4\n        /* \"#utility.yul\":17702:17769   */\n      tag_303\n      jump\t// in\n    tag_507:\n        /* \"#utility.yul\":17695:17769   */\n      swap2\n      pop\n        /* \"#utility.yul\":17778:17871   */\n      tag_508\n        /* \"#utility.yul\":17867:17870   */\n      dup3\n        /* \"#utility.yul\":17778:17871   */\n      tag_346\n      jump\t// in\n    tag_508:\n        /* \"#utility.yul\":17896:17898   */\n      0x40\n        /* \"#utility.yul\":17891:17894   */\n      dup3\n        /* \"#utility.yul\":17887:17899   */\n      add\n        /* \"#utility.yul\":17880:17899   */\n      swap1\n      pop\n        /* \"#utility.yul\":17539:17905   */\n      swap2\n      swap1\n      pop\n      jump\t// out\n        /* \"#utility.yul\":17911:18330   */\n    tag_271:\n        /* \"#utility.yul\":18077:18081   */\n      0x00\n        /* \"#utility.yul\":18115:18117   */\n      0x20\n        /* \"#utility.yul\":18104:18113   */\n      dup3\n        /* \"#utility.yul\":18100:18118   */\n      add\n        /* \"#utility.yul\":18092:18118   */\n      swap1\n      pop\n        /* \"#utility.yul\":18164:18173   */\n      dup2\n        /* \"#utility.yul\":18158:18162   */\n      dup2\n        /* \"#utility.yul\":18154:18174   */\n      sub\n        /* \"#utility.yul\":18150:18151   */\n      0x00\n        /* \"#utility.yul\":18139:18148   */\n      dup4\n        /* \"#utility.yul\":18135:18152   */\n      add\n        /* \"#utility.yul\":18128:18175   */\n      mstore\n        /* \"#utility.yul\":18192:18323   */\n      tag_510\n        /* \"#utility.yul\":18318:18322   */\n      dup2\n        /* \"#utility.yul\":18192:18323   */\n      tag_347\n      jump\t// in\n    tag_510:\n        /* \"#utility.yul\":18184:18323   */\n      swap1\n      pop\n        /* \"#utility.yul\":17911:18330   */\n      swap2\n      swap1\n      pop\n      jump\t// out\n        /* \"#utility.yul\":18336:18557   */\n    tag_348:\n        /* \"#utility.yul\":18476:18510   */\n      0x45524332303a206275726e20616d6f756e7420657863656564732062616c616e\n        /* \"#utility.yul\":18472:18473   */\n      0x00\n        /* \"#utility.yul\":18464:18470   */\n      dup3\n        /* \"#utility.yul\":18460:18474   */\n      add\n        /* \"#utility.yul\":18453:18511   */\n      mstore\n        /* \"#utility.yul\":18545:18549   */\n      0x6365000000000000000000000000000000000000000000000000000000000000\n        /* \"#utility.yul\":18540:18542   */\n      0x20\n        /* \"#utility.yul\":18532:18538   */\n      dup3\n        /* \"#utility.yul\":18528:18543   */\n      add\n        /* \"#utility.yul\":18521:18550   */\n      mstore\n        /* \"#utility.yul\":18336:18557   */\n      pop\n      jump\t// out\n        /* \"#utility.yul\":18563:18929   */\n    tag_349:\n        /* \"#utility.yul\":18705:18708   */\n      0x00\n        /* \"#utility.yul\":18726:18793   */\n      tag_513\n        /* \"#utility.yul\":18790:18792   */\n      0x22\n        /* \"#utility.yul\":18785:18788   */\n      dup4\n        /* \"#utility.yul\":18726:18793   */\n      tag_303\n      jump\t// in\n    tag_513:\n        /* \"#utility.yul\":18719:18793   */\n      swap2\n      pop\n        /* \"#utility.yul\":18802:18895   */\n      tag_514\n        /* \"#utility.yul\":18891:18894   */\n      dup3\n        /* \"#utility.yul\":18802:18895   */\n      tag_348\n      jump\t// in\n    tag_514:\n        /* \"#utility.yul\":18920:18922   */\n      0x40\n        /* \"#utility.yul\":18915:18918   */\n      dup3\n        /* \"#utility.yul\":18911:18923   */\n      add\n        /* \"#utility.yul\":18904:18923   */\n      swap1\n      pop\n        /* \"#utility.yul\":18563:18929   */\n      swap2\n      swap1\n      pop\n      jump\t// out\n        /* \"#utility.yul\":18935:19354   */\n    tag_275:\n        /* \"#utility.yul\":19101:19105   */\n      0x00\n        /* \"#utility.yul\":19139:19141   */\n      0x20\n        /* \"#utility.yul\":19128:19137   */\n      dup3\n        /* \"#utility.yul\":19124:19142   */\n      add\n        /* \"#utility.yul\":19116:19142   */\n      swap1\n      pop\n        /* \"#utility.yul\":19188:19197   */\n      dup2\n        /* \"#utility.yul\":19182:19186   */\n      dup2\n        /* \"#utility.yul\":19178:19198   */\n      sub\n        /* \"#utility.yul\":19174:19175   */\n      0x00\n        /* \"#utility.yul\":19163:19172   */\n      dup4\n        /* \"#utility.yul\":19159:19176   */\n      add\n        /* \"#utility.yul\":19152:19199   */\n      mstore\n        /* \"#utility.yul\":19216:19347   */\n      tag_516\n        /* \"#utility.yul\":19342:19346   */\n      dup2\n        /* \"#utility.yul\":19216:19347   */\n      tag_349\n      jump\t// in\n    tag_516:\n        /* \"#utility.yul\":19208:19347   */\n      swap1\n      pop\n        /* \"#utility.yul\":18935:19354   */\n      swap2\n      swap1\n      pop\n      jump\t// out\n        /* \"#utility.yul\":19360:19530   */\n    tag_350:\n        /* \"#utility.yul\":19500:19522   */\n      0x5061757361626c653a206e6f7420706175736564000000000000000000000000\n        /* \"#utility.yul\":19496:19497   */\n      0x00\n        /* \"#utility.yul\":19488:19494   */\n      dup3\n        /* \"#utility.yul\":19484:19498   */\n      add\n        /* \"#utility.yul\":19477:19523   */\n      mstore\n        /* \"#utility.yul\":19360:19530   */\n      pop\n      jump\t// out\n        /* \"#utility.yul\":19536:19902   */\n    tag_351:\n        /* \"#utility.yul\":19678:19681   */\n      0x00\n        /* \"#utility.yul\":19699:19766   */\n      tag_519\n        /* \"#utility.yul\":19763:19765   */\n      0x14\n        /* \"#utility.yul\":19758:19761   */\n      dup4\n        /* \"#utility.yul\":19699:19766   */\n      tag_303\n      jump\t// in\n    tag_519:\n        /* \"#utility.yul\":19692:19766   */\n      swap2\n      pop\n        /* \"#utility.yul\":19775:19868   */\n      tag_520\n        /* \"#utility.yul\":19864:19867   */\n      dup3\n        /* \"#utility.yul\":19775:19868   */\n      tag_350\n      jump\t// in\n    tag_520:\n        /* \"#utility.yul\":19893:19895   */\n      0x20\n        /* \"#utility.yul\":19888:19891   */\n      dup3\n        /* \"#utility.yul\":19884:19896   */\n      add\n        /* \"#utility.yul\":19877:19896   */\n      swap1\n      pop\n        /* \"#utility.yul\":19536:19902   */\n      swap2\n      swap1\n      pop\n      jump\t// out\n        /* \"#utility.yul\":19908:20327   */\n    tag_295:\n        /* \"#utility.yul\":20074:20078   */\n      0x00\n        /* \"#utility.yul\":20112:20114   */\n      0x20\n        /* \"#utility.yul\":20101:20110   */\n      dup3\n        /* \"#utility.yul\":20097:20115   */\n      add\n        /* \"#utility.yul\":20089:20115   */\n      swap1\n      pop\n        /* \"#utility.yul\":20161:20170   */\n      dup2\n        /* \"#utility.yul\":20155:20159   */\n      dup2\n        /* \"#utility.yul\":20151:20171   */\n      sub\n        /* \"#utility.yul\":20147:20148   */\n      0x00\n        /* \"#utility.yul\":20136:20145   */\n      dup4\n        /* \"#utility.yul\":20132:20149   */\n      add\n        /* \"#utility.yul\":20125:20172   */\n      mstore\n        /* \"#utility.yul\":20189:20320   */\n      tag_522\n        /* \"#utility.yul\":20315:20319   */\n      dup2\n        /* \"#utility.yul\":20189:20320   */\n      tag_351\n      jump\t// in\n    tag_522:\n        /* \"#utility.yul\":20181:20320   */\n      swap1\n      pop\n        /* \"#utility.yul\":19908:20327   */\n      swap2\n      swap1\n      pop\n      jump\t// out\n        /* \"#utility.yul\":20333:20499   */\n    tag_352:\n        /* \"#utility.yul\":20473:20491   */\n      0x5061757361626c653a2070617573656400000000000000000000000000000000\n        /* \"#utility.yul\":20469:20470   */\n      0x00\n        /* \"#utility.yul\":20461:20467   */\n      dup3\n        /* \"#utility.yul\":20457:20471   */\n      add\n        /* \"#utility.yul\":20450:20492   */\n      mstore\n        /* \"#utility.yul\":20333:20499   */\n      pop\n      jump\t// out\n        /* \"#utility.yul\":20505:20871   */\n    tag_353:\n        /* \"#utility.yul\":20647:20650   */\n      0x00\n        /* \"#utility.yul\":20668:20735   */\n      tag_525\n        /* \"#utility.yul\":20732:20734   */\n      0x10\n        /* \"#utility.yul\":20727:20730   */\n      dup4\n        /* \"#utility.yul\":20668:20735   */\n      tag_303\n      jump\t// in\n    tag_525:\n        /* \"#utility.yul\":20661:20735   */\n      swap2\n      pop\n        /* \"#utility.yul\":20744:20837   */\n      tag_526\n        /* \"#utility.yul\":20833:20836   */\n      dup3\n        /* \"#utility.yul\":20744:20837   */\n      tag_352\n      jump\t// in\n    tag_526:\n        /* \"#utility.yul\":20862:20864   */\n      0x20\n        /* \"#utility.yul\":20857:20860   */\n      dup3\n        /* \"#utility.yul\":20853:20865   */\n      add\n        /* \"#utility.yul\":20846:20865   */\n      swap1\n      pop\n        /* \"#utility.yul\":20505:20871   */\n      swap2\n      swap1\n      pop\n      jump\t// out\n        /* \"#utility.yul\":20877:21296   */\n    tag_300:\n        /* \"#utility.yul\":21043:21047   */\n      0x00\n        /* \"#utility.yul\":21081:21083   */\n      0x20\n        /* \"#utility.yul\":21070:21079   */\n      dup3\n        /* \"#utility.yul\":21066:21084   */\n      add\n        /* \"#utility.yul\":21058:21084   */\n      swap1\n      pop\n        /* \"#utility.yul\":21130:21139   */\n      dup2\n        /* \"#utility.yul\":21124:21128   */\n      dup2\n        /* \"#utility.yul\":21120:21140   */\n      sub\n        /* \"#utility.yul\":21116:21117   */\n      0x00\n        /* \"#utility.yul\":21105:21114   */\n      dup4\n        /* \"#utility.yul\":21101:21118   */\n      add\n        /* \"#utility.yul\":21094:21141   */\n      mstore\n        /* \"#utility.yul\":21158:21289   */\n      tag_528\n        /* \"#utility.yul\":21284:21288   */\n      dup2\n        /* \"#utility.yul\":21158:21289   */\n      tag_353\n      jump\t// in\n    tag_528:\n        /* \"#utility.yul\":21150:21289   */\n      swap1\n      pop\n        /* \"#utility.yul\":20877:21296   */\n      swap2\n      swap1\n      pop\n      jump\t// out\n\n    auxdata: 0xa26469706673582212204f0dc583f6caf30b1392f4017c8541d712f964e53067d18d142935a782462aa664736f6c63430008110033\n}\n",
				"bytecode": {
					"linkReferences": {},
					"object": "60806040523480156200001157600080fd5b506040518060400160405280600c81526020017f43506f73436f6e747261637400000000000000000000000000000000000000008152506040518060400160405280600381526020017f435043000000000000000000000000000000000000000000000000000000000081525081600390816200008f91906200042d565b508060049081620000a191906200042d565b5050506000600560006101000a81548160ff021916908315150217905550620000df620000d3620000e560201b60201c565b620000ed60201b60201c565b62000514565b600033905090565b6000600560019054906101000a900473ffffffffffffffffffffffffffffffffffffffff16905081600560016101000a81548173ffffffffffffffffffffffffffffffffffffffff021916908373ffffffffffffffffffffffffffffffffffffffff1602179055508173ffffffffffffffffffffffffffffffffffffffff168173ffffffffffffffffffffffffffffffffffffffff167f8be0079c531659141344cd1fd0a4f28419497f9722a3daafe3b4186f6b6457e060405160405180910390a35050565b600081519050919050565b7f4e487b7100000000000000000000000000000000000000000000000000000000600052604160045260246000fd5b7f4e487b7100000000000000000000000000000000000000000000000000000000600052602260045260246000fd5b600060028204905060018216806200023557607f821691505b6020821081036200024b576200024a620001ed565b5b50919050565b60008190508160005260206000209050919050565b60006020601f8301049050919050565b600082821b905092915050565b600060088302620002b57fffffffffffffffffffffffffffffffffffffffffffffffffffffffffffffffff8262000276565b620002c1868362000276565b95508019841693508086168417925050509392505050565b6000819050919050565b6000819050919050565b60006200030e620003086200030284620002d9565b620002e3565b620002d9565b9050919050565b6000819050919050565b6200032a83620002ed565b62000342620003398262000315565b84845462000283565b825550505050565b600090565b620003596200034a565b620003668184846200031f565b505050565b5b818110156200038e57620003826000826200034f565b6001810190506200036c565b5050565b601f821115620003dd57620003a78162000251565b620003b28462000266565b81016020851015620003c2578190505b620003da620003d18562000266565b8301826200036b565b50505b505050565b600082821c905092915050565b60006200040260001984600802620003e2565b1980831691505092915050565b60006200041d8383620003ef565b9150826002028217905092915050565b6200043882620001b3565b67ffffffffffffffff811115620004545762000453620001be565b5b6200046082546200021c565b6200046d82828562000392565b600060209050601f831160018114620004a5576000841562000490578287015190505b6200049c85826200040f565b8655506200050c565b601f198416620004b58662000251565b60005b82811015620004df57848901518255600182019150602085019450602081019050620004b8565b86831015620004ff5784890151620004fb601f891682620003ef565b8355505b6001600288020188555050505b505050505050565b611fa380620005246000396000f3fe60806040526004361061014b5760003560e01c8063722713f7116100b6578063a9059cbb1161006f578063a9059cbb14610470578063c1756a2c146104ad578063c605f76c146104d6578063dd62ed3e14610501578063e8b5e51f1461053e578063f2fde38b146105485761014b565b8063722713f71461037257806379cc67901461039d5780638456cb59146103c65780638da5cb5b146103dd57806395d89b4114610408578063a457c2d7146104335761014b565b8063395093511161010857806339509351146102765780633f4ba83a146102b357806342966c68146102ca5780635c975abb146102f357806370a082311461031e578063715018a61461035b5761014b565b806306fdde0314610150578063095ea7b31461017b57806318160ddd146101b85780631bb2cb1f146101e357806323b872dd1461020e578063313ce5671461024b575b600080fd5b34801561015c57600080fd5b50610165610571565b60405161017291906114b1565b60405180910390f35b34801561018757600080fd5b506101a2600480360381019061019d919061156c565b610603565b6040516101af91906115c7565b60405180910390f35b3480156101c457600080fd5b506101cd610626565b6040516101da91906115f1565b60405180910390f35b3480156101ef57600080fd5b506101f8610630565b60405161020591906115f1565b60405180910390f35b34801561021a57600080fd5b506102356004803603810190610230919061160c565b610638565b60405161024291906115c7565b60405180910390f35b34801561025757600080fd5b50610260610667565b60405161026d919061167b565b60405180910390f35b34801561028257600080fd5b5061029d6004803603810190610298919061156c565b610670565b6040516102aa91906115c7565b60405180910390f35b3480156102bf57600080fd5b506102c86106a7565b005b3480156102d657600080fd5b506102f160048036038101906102ec9190611696565b6106b9565b005b3480156102ff57600080fd5b506103086106d5565b60405161031591906115c7565b60405180910390f35b34801561032a57600080fd5b50610345600480360381019061034091906116c3565b6106ec565b60405161035291906115f1565b60405180910390f35b34801561036757600080fd5b50610370610734565b005b34801561037e57600080fd5b50610387610748565b60405161039491906115f1565b60405180910390f35b3480156103a957600080fd5b506103c460048036038101906103bf919061156c565b610750565b005b3480156103d257600080fd5b506103db610770565b005b3480156103e957600080fd5b506103f2610782565b6040516103ff91906116ff565b60405180910390f35b34801561041457600080fd5b5061041d6107ac565b60405161042a91906114b1565b60405180910390f35b34801561043f57600080fd5b5061045a6004803603810190610455919061156c565b61083e565b60405161046791906115c7565b60405180910390f35b34801561047c57600080fd5b506104976004803603810190610492919061156c565b6108b5565b6040516104a491906115c7565b60405180910390f35b3480156104b957600080fd5b506104d460048036038101906104cf9190611758565b6108d8565b005b3480156104e257600080fd5b506104eb610923565b6040516104f891906114b1565b60405180910390f35b34801561050d57600080fd5b5061052860048036038101906105239190611798565b610960565b60405161053591906115f1565b60405180910390f35b6105466109e7565b005b34801561055457600080fd5b5061056f600480360381019061056a91906116c3565b610a3f565b005b60606003805461058090611807565b80601f01602080910402602001604051908101604052809291908181526020018280546105ac90611807565b80156105f95780601f106105ce576101008083540402835291602001916105f9565b820191906000526020600020905b8154815290600101906020018083116105dc57829003601f168201915b5050505050905090565b60008061060e610ac2565b905061061b818585610aca565b600191505092915050565b6000600254905090565b600047905090565b600080610643610ac2565b9050610650858285610c93565b61065b858585610d1f565b60019150509392505050565b60006012905090565b60008061067b610ac2565b905061069c81858561068d8589610960565b6106979190611867565b610aca565b600191505092915050565b6106af610f95565b6106b7611013565b565b6106c1610f95565b6106d26106cc610ac2565b82611076565b50565b6000600560009054906101000a900460ff16905090565b60008060008373ffffffffffffffffffffffffffffffffffffffff1673ffffffffffffffffffffffffffffffffffffffff168152602001908152602001600020549050919050565b61073c610f95565b6107466000611243565b565b600047905090565b6107628261075c610ac2565b83610c93565b61076c8282611076565b5050565b610778610f95565b610780611309565b565b6000600560019054906101000a900473ffffffffffffffffffffffffffffffffffffffff16905090565b6060600480546107bb90611807565b80601f01602080910402602001604051908101604052809291908181526020018280546107e790611807565b80156108345780601f1061080957610100808354040283529160200191610834565b820191906000526020600020905b81548152906001019060200180831161081757829003601f168201915b5050505050905090565b600080610849610ac2565b905060006108578286610960565b90508381101561089c576040517f08c379a00000000000000000000000000000000000000000000000000000000081526004016108939061190d565b60405180910390fd5b6108a98286868403610aca565b60019250505092915050565b6000806108c0610ac2565b90506108cd818585610d1f565b600191505092915050565b8173ffffffffffffffffffffffffffffffffffffffff166108fc829081150290604051600060405180830381858888f1935050505015801561091e573d6000803e3d6000fd5b505050565b60606040518060400160405280600a81526020017f48656c6c6f576f726c6400000000000000000000000000000000000000000000815250905090565b6000600160008473ffffffffffffffffffffffffffffffffffffffff1673ffffffffffffffffffffffffffffffffffffffff16815260200190815260200160002060008373ffffffffffffffffffffffffffffffffffffffff1673ffffffffffffffffffffffffffffffffffffffff16815260200190815260200160002054905092915050565b34600660003373ffffffffffffffffffffffffffffffffffffffff1673ffffffffffffffffffffffffffffffffffffffff1681526020019081526020016000206000828254610a369190611867565b92505081905550565b610a47610f95565b600073ffffffffffffffffffffffffffffffffffffffff168173ffffffffffffffffffffffffffffffffffffffff1603610ab6576040517f08c379a0000000000000000000000000000000000000000000000000000000008152600401610aad9061199f565b60405180910390fd5b610abf81611243565b50565b600033905090565b600073ffffffffffffffffffffffffffffffffffffffff168373ffffffffffffffffffffffffffffffffffffffff1603610b39576040517f08c379a0000000000000000000000000000000000000000000000000000000008152600401610b3090611a31565b60405180910390fd5b600073ffffffffffffffffffffffffffffffffffffffff168273ffffffffffffffffffffffffffffffffffffffff1603610ba8576040517f08c379a0000000000000000000000000000000000000000000000000000000008152600401610b9f90611ac3565b60405180910390fd5b80600160008573ffffffffffffffffffffffffffffffffffffffff1673ffffffffffffffffffffffffffffffffffffffff16815260200190815260200160002060008473ffffffffffffffffffffffffffffffffffffffff1673ffffffffffffffffffffffffffffffffffffffff168152602001908152602001600020819055508173ffffffffffffffffffffffffffffffffffffffff168373ffffffffffffffffffffffffffffffffffffffff167f8c5be1e5ebec7d5bd14f71427d1e84f3dd0314c0f7b2291e5b200ac8c7c3b92583604051610c8691906115f1565b60405180910390a3505050565b6000610c9f8484610960565b90507fffffffffffffffffffffffffffffffffffffffffffffffffffffffffffffffff8114610d195781811015610d0b576040517f08c379a0000000000000000000000000000000000000000000000000000000008152600401610d0290611b2f565b60405180910390fd5b610d188484848403610aca565b5b50505050565b600073ffffffffffffffffffffffffffffffffffffffff168373ffffffffffffffffffffffffffffffffffffffff1603610d8e576040517f08c379a0000000000000000000000000000000000000000000000000000000008152600401610d8590611bc1565b60405180910390fd5b600073ffffffffffffffffffffffffffffffffffffffff168273ffffffffffffffffffffffffffffffffffffffff1603610dfd576040517f08c379a0000000000000000000000000000000000000000000000000000000008152600401610df490611c53565b60405180910390fd5b610e0883838361136c565b60008060008573ffffffffffffffffffffffffffffffffffffffff1673ffffffffffffffffffffffffffffffffffffffff16815260200190815260200160002054905081811015610e8e576040517f08c379a0000000000000000000000000000000000000000000000000000000008152600401610e8590611ce5565b60405180910390fd5b8181036000808673ffffffffffffffffffffffffffffffffffffffff1673ffffffffffffffffffffffffffffffffffffffff16815260200190815260200160002081905550816000808573ffffffffffffffffffffffffffffffffffffffff1673ffffffffffffffffffffffffffffffffffffffff168152602001908152602001600020600082825401925050819055508273ffffffffffffffffffffffffffffffffffffffff168473ffffffffffffffffffffffffffffffffffffffff167fddf252ad1be2c89b69c2b068fc378daa952ba7f163c4a11628f55a4df523b3ef84604051610f7c91906115f1565b60405180910390a3610f8f848484611384565b50505050565b610f9d610ac2565b73ffffffffffffffffffffffffffffffffffffffff16610fbb610782565b73ffffffffffffffffffffffffffffffffffffffff1614611011576040517f08c379a000000000000000000000000000000000000000000000000000000000815260040161100890611d51565b60405180910390fd5b565b61101b611389565b6000600560006101000a81548160ff0219169083151502179055507f5db9ee0a495bf2e6ff9c91a7834c1ba4fdd244a5e8aa4e537bd38aeae4b073aa61105f610ac2565b60405161106c91906116ff565b60405180910390a1565b600073ffffffffffffffffffffffffffffffffffffffff168273ffffffffffffffffffffffffffffffffffffffff16036110e5576040517f08c379a00000000000000000000000000000000000000000000000000000000081526004016110dc90611de3565b60405180910390fd5b6110f18260008361136c565b60008060008473ffffffffffffffffffffffffffffffffffffffff1673ffffffffffffffffffffffffffffffffffffffff16815260200190815260200160002054905081811015611177576040517f08c379a000000000000000000000000000000000000000000000000000000000815260040161116e90611e75565b60405180910390fd5b8181036000808573ffffffffffffffffffffffffffffffffffffffff1673ffffffffffffffffffffffffffffffffffffffff1681526020019081526020016000208190555081600260008282540392505081905550600073ffffffffffffffffffffffffffffffffffffffff168373ffffffffffffffffffffffffffffffffffffffff167fddf252ad1be2c89b69c2b068fc378daa952ba7f163c4a11628f55a4df523b3ef8460405161122a91906115f1565b60405180910390a361123e83600084611384565b505050565b6000600560019054906101000a900473ffffffffffffffffffffffffffffffffffffffff16905081600560016101000a81548173ffffffffffffffffffffffffffffffffffffffff021916908373ffffffffffffffffffffffffffffffffffffffff1602179055508173ffffffffffffffffffffffffffffffffffffffff168173ffffffffffffffffffffffffffffffffffffffff167f8be0079c531659141344cd1fd0a4f28419497f9722a3daafe3b4186f6b6457e060405160405180910390a35050565b6113116113d2565b6001600560006101000a81548160ff0219169083151502179055507f62e78cea01bee320cd4e420270b5ea74000d11b0c9f74754ebdbfc544b05a258611355610ac2565b60405161136291906116ff565b60405180910390a1565b6113746113d2565b61137f83838361141c565b505050565b505050565b6113916106d5565b6113d0576040517f08c379a00000000000000000000000000000000000000000000000000000000081526004016113c790611ee1565b60405180910390fd5b565b6113da6106d5565b1561141a576040517f08c379a000000000000000000000000000000000000000000000000000000000815260040161141190611f4d565b60405180910390fd5b565b505050565b600081519050919050565b600082825260208201905092915050565b60005b8381101561145b578082015181840152602081019050611440565b60008484015250505050565b6000601f19601f8301169050919050565b600061148382611421565b61148d818561142c565b935061149d81856020860161143d565b6114a681611467565b840191505092915050565b600060208201905081810360008301526114cb8184611478565b905092915050565b600080fd5b600073ffffffffffffffffffffffffffffffffffffffff82169050919050565b6000611503826114d8565b9050919050565b611513816114f8565b811461151e57600080fd5b50565b6000813590506115308161150a565b92915050565b6000819050919050565b61154981611536565b811461155457600080fd5b50565b60008135905061156681611540565b92915050565b60008060408385031215611583576115826114d3565b5b600061159185828601611521565b92505060206115a285828601611557565b9150509250929050565b60008115159050919050565b6115c1816115ac565b82525050565b60006020820190506115dc60008301846115b8565b92915050565b6115eb81611536565b82525050565b600060208201905061160660008301846115e2565b92915050565b600080600060608486031215611625576116246114d3565b5b600061163386828701611521565b935050602061164486828701611521565b925050604061165586828701611557565b9150509250925092565b600060ff82169050919050565b6116758161165f565b82525050565b6000602082019050611690600083018461166c565b92915050565b6000602082840312156116ac576116ab6114d3565b5b60006116ba84828501611557565b91505092915050565b6000602082840312156116d9576116d86114d3565b5b60006116e784828501611521565b91505092915050565b6116f9816114f8565b82525050565b600060208201905061171460008301846116f0565b92915050565b6000611725826114d8565b9050919050565b6117358161171a565b811461174057600080fd5b50565b6000813590506117528161172c565b92915050565b6000806040838503121561176f5761176e6114d3565b5b600061177d85828601611743565b925050602061178e85828601611557565b9150509250929050565b600080604083850312156117af576117ae6114d3565b5b60006117bd85828601611521565b92505060206117ce85828601611521565b9150509250929050565b7f4e487b7100000000000000000000000000000000000000000000000000000000600052602260045260246000fd5b6000600282049050600182168061181f57607f821691505b602082108103611832576118316117d8565b5b50919050565b7f4e487b7100000000000000000000000000000000000000000000000000000000600052601160045260246000fd5b600061187282611536565b915061187d83611536565b925082820190508082111561189557611894611838565b5b92915050565b7f45524332303a2064656372656173656420616c6c6f77616e63652062656c6f7760008201527f207a65726f000000000000000000000000000000000000000000000000000000602082015250565b60006118f760258361142c565b91506119028261189b565b604082019050919050565b60006020820190508181036000830152611926816118ea565b9050919050565b7f4f776e61626c653a206e6577206f776e657220697320746865207a65726f206160008201527f6464726573730000000000000000000000000000000000000000000000000000602082015250565b600061198960268361142c565b91506119948261192d565b604082019050919050565b600060208201905081810360008301526119b88161197c565b9050919050565b7f45524332303a20617070726f76652066726f6d20746865207a65726f2061646460008201527f7265737300000000000000000000000000000000000000000000000000000000602082015250565b6000611a1b60248361142c565b9150611a26826119bf565b604082019050919050565b60006020820190508181036000830152611a4a81611a0e565b9050919050565b7f45524332303a20617070726f766520746f20746865207a65726f20616464726560008201527f7373000000000000000000000000000000000000000000000000000000000000602082015250565b6000611aad60228361142c565b9150611ab882611a51565b604082019050919050565b60006020820190508181036000830152611adc81611aa0565b9050919050565b7f45524332303a20696e73756666696369656e7420616c6c6f77616e6365000000600082015250565b6000611b19601d8361142c565b9150611b2482611ae3565b602082019050919050565b60006020820190508181036000830152611b4881611b0c565b9050919050565b7f45524332303a207472616e736665722066726f6d20746865207a65726f20616460008201527f6472657373000000000000000000000000000000000000000000000000000000602082015250565b6000611bab60258361142c565b9150611bb682611b4f565b604082019050919050565b60006020820190508181036000830152611bda81611b9e565b9050919050565b7f45524332303a207472616e7366657220746f20746865207a65726f206164647260008201527f6573730000000000000000000000000000000000000000000000000000000000602082015250565b6000611c3d60238361142c565b9150611c4882611be1565b604082019050919050565b60006020820190508181036000830152611c6c81611c30565b9050919050565b7f45524332303a207472616e7366657220616d6f756e742065786365656473206260008201527f616c616e63650000000000000000000000000000000000000000000000000000602082015250565b6000611ccf60268361142c565b9150611cda82611c73565b604082019050919050565b60006020820190508181036000830152611cfe81611cc2565b9050919050565b7f4f776e61626c653a2063616c6c6572206973206e6f7420746865206f776e6572600082015250565b6000611d3b60208361142c565b9150611d4682611d05565b602082019050919050565b60006020820190508181036000830152611d6a81611d2e565b9050919050565b7f45524332303a206275726e2066726f6d20746865207a65726f2061646472657360008201527f7300000000000000000000000000000000000000000000000000000000000000602082015250565b6000611dcd60218361142c565b9150611dd882611d71565b604082019050919050565b60006020820190508181036000830152611dfc81611dc0565b9050919050565b7f45524332303a206275726e20616d6f756e7420657863656564732062616c616e60008201527f6365000000000000000000000000000000000000000000000000000000000000602082015250565b6000611e5f60228361142c565b9150611e6a82611e03565b604082019050919050565b60006020820190508181036000830152611e8e81611e52565b9050919050565b7f5061757361626c653a206e6f7420706175736564000000000000000000000000600082015250565b6000611ecb60148361142c565b9150611ed682611e95565b602082019050919050565b60006020820190508181036000830152611efa81611ebe565b9050919050565b7f5061757361626c653a2070617573656400000000000000000000000000000000600082015250565b6000611f3760108361142c565b9150611f4282611f01565b602082019050919050565b60006020820190508181036000830152611f6681611f2a565b905091905056fea26469706673582212204f0dc583f6caf30b1392f4017c8541d712f964e53067d18d142935a782462aa664736f6c63430008110033",
					"opcodes": "PUSH1 0x80 PUSH1 0x40 MSTORE CALLVALUE DUP1 ISZERO PUSH3 0x11 JUMPI PUSH1 0x0 DUP1 REVERT JUMPDEST POP PUSH1 0x40 MLOAD DUP1 PUSH1 0x40 ADD PUSH1 0x40 MSTORE DUP1 PUSH1 0xC DUP2 MSTORE PUSH1 0x20 ADD PUSH32 0x43506F73436F6E74726163740000000000000000000000000000000000000000 DUP2 MSTORE POP PUSH1 0x40 MLOAD DUP1 PUSH1 0x40 ADD PUSH1 0x40 MSTORE DUP1 PUSH1 0x3 DUP2 MSTORE PUSH1 0x20 ADD PUSH32 0x4350430000000000000000000000000000000000000000000000000000000000 DUP2 MSTORE POP DUP2 PUSH1 0x3 SWAP1 DUP2 PUSH3 0x8F SWAP2 SWAP1 PUSH3 0x42D JUMP JUMPDEST POP DUP1 PUSH1 0x4 SWAP1 DUP2 PUSH3 0xA1 SWAP2 SWAP1 PUSH3 0x42D JUMP JUMPDEST POP POP POP PUSH1 0x0 PUSH1 0x5 PUSH1 0x0 PUSH2 0x100 EXP DUP2 SLOAD DUP2 PUSH1 0xFF MUL NOT AND SWAP1 DUP4 ISZERO ISZERO MUL OR SWAP1 SSTORE POP PUSH3 0xDF PUSH3 0xD3 PUSH3 0xE5 PUSH1 0x20 SHL PUSH1 0x20 SHR JUMP JUMPDEST PUSH3 0xED PUSH1 0x20 SHL PUSH1 0x20 SHR JUMP JUMPDEST PUSH3 0x514 JUMP JUMPDEST PUSH1 0x0 CALLER SWAP1 POP SWAP1 JUMP JUMPDEST PUSH1 0x0 PUSH1 0x5 PUSH1 0x1 SWAP1 SLOAD SWAP1 PUSH2 0x100 EXP SWAP1 DIV PUSH20 0xFFFFFFFFFFFFFFFFFFFFFFFFFFFFFFFFFFFFFFFF AND SWAP1 POP DUP2 PUSH1 0x5 PUSH1 0x1 PUSH2 0x100 EXP DUP2 SLOAD DUP2 PUSH20 0xFFFFFFFFFFFFFFFFFFFFFFFFFFFFFFFFFFFFFFFF MUL NOT AND SWAP1 DUP4 PUSH20 0xFFFFFFFFFFFFFFFFFFFFFFFFFFFFFFFFFFFFFFFF AND MUL OR SWAP1 SSTORE POP DUP2 PUSH20 0xFFFFFFFFFFFFFFFFFFFFFFFFFFFFFFFFFFFFFFFF AND DUP2 PUSH20 0xFFFFFFFFFFFFFFFFFFFFFFFFFFFFFFFFFFFFFFFF AND PUSH32 0x8BE0079C531659141344CD1FD0A4F28419497F9722A3DAAFE3B4186F6B6457E0 PUSH1 0x40 MLOAD PUSH1 0x40 MLOAD DUP1 SWAP2 SUB SWAP1 LOG3 POP POP JUMP JUMPDEST PUSH1 0x0 DUP2 MLOAD SWAP1 POP SWAP2 SWAP1 POP JUMP JUMPDEST PUSH32 0x4E487B7100000000000000000000000000000000000000000000000000000000 PUSH1 0x0 MSTORE PUSH1 0x41 PUSH1 0x4 MSTORE PUSH1 0x24 PUSH1 0x0 REVERT JUMPDEST PUSH32 0x4E487B7100000000000000000000000000000000000000000000000000000000 PUSH1 0x0 MSTORE PUSH1 0x22 PUSH1 0x4 MSTORE PUSH1 0x24 PUSH1 0x0 REVERT JUMPDEST PUSH1 0x0 PUSH1 0x2 DUP3 DIV SWAP1 POP PUSH1 0x1 DUP3 AND DUP1 PUSH3 0x235 JUMPI PUSH1 0x7F DUP3 AND SWAP2 POP JUMPDEST PUSH1 0x20 DUP3 LT DUP2 SUB PUSH3 0x24B JUMPI PUSH3 0x24A PUSH3 0x1ED JUMP JUMPDEST JUMPDEST POP SWAP2 SWAP1 POP JUMP JUMPDEST PUSH1 0x0 DUP2 SWAP1 POP DUP2 PUSH1 0x0 MSTORE PUSH1 0x20 PUSH1 0x0 KECCAK256 SWAP1 POP SWAP2 SWAP1 POP JUMP JUMPDEST PUSH1 0x0 PUSH1 0x20 PUSH1 0x1F DUP4 ADD DIV SWAP1 POP SWAP2 SWAP1 POP JUMP JUMPDEST PUSH1 0x0 DUP3 DUP3 SHL SWAP1 POP SWAP3 SWAP2 POP POP JUMP JUMPDEST PUSH1 0x0 PUSH1 0x8 DUP4 MUL PUSH3 0x2B5 PUSH32 0xFFFFFFFFFFFFFFFFFFFFFFFFFFFFFFFFFFFFFFFFFFFFFFFFFFFFFFFFFFFFFFFF DUP3 PUSH3 0x276 JUMP JUMPDEST PUSH3 0x2C1 DUP7 DUP4 PUSH3 0x276 JUMP JUMPDEST SWAP6 POP DUP1 NOT DUP5 AND SWAP4 POP DUP1 DUP7 AND DUP5 OR SWAP3 POP POP POP SWAP4 SWAP3 POP POP POP JUMP JUMPDEST PUSH1 0x0 DUP2 SWAP1 POP SWAP2 SWAP1 POP JUMP JUMPDEST PUSH1 0x0 DUP2 SWAP1 POP SWAP2 SWAP1 POP JUMP JUMPDEST PUSH1 0x0 PUSH3 0x30E PUSH3 0x308 PUSH3 0x302 DUP5 PUSH3 0x2D9 JUMP JUMPDEST PUSH3 0x2E3 JUMP JUMPDEST PUSH3 0x2D9 JUMP JUMPDEST SWAP1 POP SWAP2 SWAP1 POP JUMP JUMPDEST PUSH1 0x0 DUP2 SWAP1 POP SWAP2 SWAP1 POP JUMP JUMPDEST PUSH3 0x32A DUP4 PUSH3 0x2ED JUMP JUMPDEST PUSH3 0x342 PUSH3 0x339 DUP3 PUSH3 0x315 JUMP JUMPDEST DUP5 DUP5 SLOAD PUSH3 0x283 JUMP JUMPDEST DUP3 SSTORE POP POP POP POP JUMP JUMPDEST PUSH1 0x0 SWAP1 JUMP JUMPDEST PUSH3 0x359 PUSH3 0x34A JUMP JUMPDEST PUSH3 0x366 DUP2 DUP5 DUP5 PUSH3 0x31F JUMP JUMPDEST POP POP POP JUMP JUMPDEST JUMPDEST DUP2 DUP2 LT ISZERO PUSH3 0x38E JUMPI PUSH3 0x382 PUSH1 0x0 DUP3 PUSH3 0x34F JUMP JUMPDEST PUSH1 0x1 DUP2 ADD SWAP1 POP PUSH3 0x36C JUMP JUMPDEST POP POP JUMP JUMPDEST PUSH1 0x1F DUP3 GT ISZERO PUSH3 0x3DD JUMPI PUSH3 0x3A7 DUP2 PUSH3 0x251 JUMP JUMPDEST PUSH3 0x3B2 DUP5 PUSH3 0x266 JUMP JUMPDEST DUP2 ADD PUSH1 0x20 DUP6 LT ISZERO PUSH3 0x3C2 JUMPI DUP2 SWAP1 POP JUMPDEST PUSH3 0x3DA PUSH3 0x3D1 DUP6 PUSH3 0x266 JUMP JUMPDEST DUP4 ADD DUP3 PUSH3 0x36B JUMP JUMPDEST POP POP JUMPDEST POP POP POP JUMP JUMPDEST PUSH1 0x0 DUP3 DUP3 SHR SWAP1 POP SWAP3 SWAP2 POP POP JUMP JUMPDEST PUSH1 0x0 PUSH3 0x402 PUSH1 0x0 NOT DUP5 PUSH1 0x8 MUL PUSH3 0x3E2 JUMP JUMPDEST NOT DUP1 DUP4 AND SWAP2 POP POP SWAP3 SWAP2 POP POP JUMP JUMPDEST PUSH1 0x0 PUSH3 0x41D DUP4 DUP4 PUSH3 0x3EF JUMP JUMPDEST SWAP2 POP DUP3 PUSH1 0x2 MUL DUP3 OR SWAP1 POP SWAP3 SWAP2 POP POP JUMP JUMPDEST PUSH3 0x438 DUP3 PUSH3 0x1B3 JUMP JUMPDEST PUSH8 0xFFFFFFFFFFFFFFFF DUP2 GT ISZERO PUSH3 0x454 JUMPI PUSH3 0x453 PUSH3 0x1BE JUMP JUMPDEST JUMPDEST PUSH3 0x460 DUP3 SLOAD PUSH3 0x21C JUMP JUMPDEST PUSH3 0x46D DUP3 DUP3 DUP6 PUSH3 0x392 JUMP JUMPDEST PUSH1 0x0 PUSH1 0x20 SWAP1 POP PUSH1 0x1F DUP4 GT PUSH1 0x1 DUP2 EQ PUSH3 0x4A5 JUMPI PUSH1 0x0 DUP5 ISZERO PUSH3 0x490 JUMPI DUP3 DUP8 ADD MLOAD SWAP1 POP JUMPDEST PUSH3 0x49C DUP6 DUP3 PUSH3 0x40F JUMP JUMPDEST DUP7 SSTORE POP PUSH3 0x50C JUMP JUMPDEST PUSH1 0x1F NOT DUP5 AND PUSH3 0x4B5 DUP7 PUSH3 0x251 JUMP JUMPDEST PUSH1 0x0 JUMPDEST DUP3 DUP2 LT ISZERO PUSH3 0x4DF JUMPI DUP5 DUP10 ADD MLOAD DUP3 SSTORE PUSH1 0x1 DUP3 ADD SWAP2 POP PUSH1 0x20 DUP6 ADD SWAP5 POP PUSH1 0x20 DUP2 ADD SWAP1 POP PUSH3 0x4B8 JUMP JUMPDEST DUP7 DUP4 LT ISZERO PUSH3 0x4FF JUMPI DUP5 DUP10 ADD MLOAD PUSH3 0x4FB PUSH1 0x1F DUP10 AND DUP3 PUSH3 0x3EF JUMP JUMPDEST DUP4 SSTORE POP JUMPDEST PUSH1 0x1 PUSH1 0x2 DUP9 MUL ADD DUP9 SSTORE POP POP POP JUMPDEST POP POP POP POP POP POP JUMP JUMPDEST PUSH2 0x1FA3 DUP1 PUSH3 0x524 PUSH1 0x0 CODECOPY PUSH1 0x0 RETURN INVALID PUSH1 0x80 PUSH1 0x40 MSTORE PUSH1 0x4 CALLDATASIZE LT PUSH2 0x14B JUMPI PUSH1 0x0 CALLDATALOAD PUSH1 0xE0 SHR DUP1 PUSH4 0x722713F7 GT PUSH2 0xB6 JUMPI DUP1 PUSH4 0xA9059CBB GT PUSH2 0x6F JUMPI DUP1 PUSH4 0xA9059CBB EQ PUSH2 0x470 JUMPI DUP1 PUSH4 0xC1756A2C EQ PUSH2 0x4AD JUMPI DUP1 PUSH4 0xC605F76C EQ PUSH2 0x4D6 JUMPI DUP1 PUSH4 0xDD62ED3E EQ PUSH2 0x501 JUMPI DUP1 PUSH4 0xE8B5E51F EQ PUSH2 0x53E JUMPI DUP1 PUSH4 0xF2FDE38B EQ PUSH2 0x548 JUMPI PUSH2 0x14B JUMP JUMPDEST DUP1 PUSH4 0x722713F7 EQ PUSH2 0x372 JUMPI DUP1 PUSH4 0x79CC6790 EQ PUSH2 0x39D JUMPI DUP1 PUSH4 0x8456CB59 EQ PUSH2 0x3C6 JUMPI DUP1 PUSH4 0x8DA5CB5B EQ PUSH2 0x3DD JUMPI DUP1 PUSH4 0x95D89B41 EQ PUSH2 0x408 JUMPI DUP1 PUSH4 0xA457C2D7 EQ PUSH2 0x433 JUMPI PUSH2 0x14B JUMP JUMPDEST DUP1 PUSH4 0x39509351 GT PUSH2 0x108 JUMPI DUP1 PUSH4 0x39509351 EQ PUSH2 0x276 JUMPI DUP1 PUSH4 0x3F4BA83A EQ PUSH2 0x2B3 JUMPI DUP1 PUSH4 0x42966C68 EQ PUSH2 0x2CA JUMPI DUP1 PUSH4 0x5C975ABB EQ PUSH2 0x2F3 JUMPI DUP1 PUSH4 0x70A08231 EQ PUSH2 0x31E JUMPI DUP1 PUSH4 0x715018A6 EQ PUSH2 0x35B JUMPI PUSH2 0x14B JUMP JUMPDEST DUP1 PUSH4 0x6FDDE03 EQ PUSH2 0x150 JUMPI DUP1 PUSH4 0x95EA7B3 EQ PUSH2 0x17B JUMPI DUP1 PUSH4 0x18160DDD EQ PUSH2 0x1B8 JUMPI DUP1 PUSH4 0x1BB2CB1F EQ PUSH2 0x1E3 JUMPI DUP1 PUSH4 0x23B872DD EQ PUSH2 0x20E JUMPI DUP1 PUSH4 0x313CE567 EQ PUSH2 0x24B JUMPI JUMPDEST PUSH1 0x0 DUP1 REVERT JUMPDEST CALLVALUE DUP1 ISZERO PUSH2 0x15C JUMPI PUSH1 0x0 DUP1 REVERT JUMPDEST POP PUSH2 0x165 PUSH2 0x571 JUMP JUMPDEST PUSH1 0x40 MLOAD PUSH2 0x172 SWAP2 SWAP1 PUSH2 0x14B1 JUMP JUMPDEST PUSH1 0x40 MLOAD DUP1 SWAP2 SUB SWAP1 RETURN JUMPDEST CALLVALUE DUP1 ISZERO PUSH2 0x187 JUMPI PUSH1 0x0 DUP1 REVERT JUMPDEST POP PUSH2 0x1A2 PUSH1 0x4 DUP1 CALLDATASIZE SUB DUP2 ADD SWAP1 PUSH2 0x19D SWAP2 SWAP1 PUSH2 0x156C JUMP JUMPDEST PUSH2 0x603 JUMP JUMPDEST PUSH1 0x40 MLOAD PUSH2 0x1AF SWAP2 SWAP1 PUSH2 0x15C7 JUMP JUMPDEST PUSH1 0x40 MLOAD DUP1 SWAP2 SUB SWAP1 RETURN JUMPDEST CALLVALUE DUP1 ISZERO PUSH2 0x1C4 JUMPI PUSH1 0x0 DUP1 REVERT JUMPDEST POP PUSH2 0x1CD PUSH2 0x626 JUMP JUMPDEST PUSH1 0x40 MLOAD PUSH2 0x1DA SWAP2 SWAP1 PUSH2 0x15F1 JUMP JUMPDEST PUSH1 0x40 MLOAD DUP1 SWAP2 SUB SWAP1 RETURN JUMPDEST CALLVALUE DUP1 ISZERO PUSH2 0x1EF JUMPI PUSH1 0x0 DUP1 REVERT JUMPDEST POP PUSH2 0x1F8 PUSH2 0x630 JUMP JUMPDEST PUSH1 0x40 MLOAD PUSH2 0x205 SWAP2 SWAP1 PUSH2 0x15F1 JUMP JUMPDEST PUSH1 0x40 MLOAD DUP1 SWAP2 SUB SWAP1 RETURN JUMPDEST CALLVALUE DUP1 ISZERO PUSH2 0x21A JUMPI PUSH1 0x0 DUP1 REVERT JUMPDEST POP PUSH2 0x235 PUSH1 0x4 DUP1 CALLDATASIZE SUB DUP2 ADD SWAP1 PUSH2 0x230 SWAP2 SWAP1 PUSH2 0x160C JUMP JUMPDEST PUSH2 0x638 JUMP JUMPDEST PUSH1 0x40 MLOAD PUSH2 0x242 SWAP2 SWAP1 PUSH2 0x15C7 JUMP JUMPDEST PUSH1 0x40 MLOAD DUP1 SWAP2 SUB SWAP1 RETURN JUMPDEST CALLVALUE DUP1 ISZERO PUSH2 0x257 JUMPI PUSH1 0x0 DUP1 REVERT JUMPDEST POP PUSH2 0x260 PUSH2 0x667 JUMP JUMPDEST PUSH1 0x40 MLOAD PUSH2 0x26D SWAP2 SWAP1 PUSH2 0x167B JUMP JUMPDEST PUSH1 0x40 MLOAD DUP1 SWAP2 SUB SWAP1 RETURN JUMPDEST CALLVALUE DUP1 ISZERO PUSH2 0x282 JUMPI PUSH1 0x0 DUP1 REVERT JUMPDEST POP PUSH2 0x29D PUSH1 0x4 DUP1 CALLDATASIZE SUB DUP2 ADD SWAP1 PUSH2 0x298 SWAP2 SWAP1 PUSH2 0x156C JUMP JUMPDEST PUSH2 0x670 JUMP JUMPDEST PUSH1 0x40 MLOAD PUSH2 0x2AA SWAP2 SWAP1 PUSH2 0x15C7 JUMP JUMPDEST PUSH1 0x40 MLOAD DUP1 SWAP2 SUB SWAP1 RETURN JUMPDEST CALLVALUE DUP1 ISZERO PUSH2 0x2BF JUMPI PUSH1 0x0 DUP1 REVERT JUMPDEST POP PUSH2 0x2C8 PUSH2 0x6A7 JUMP JUMPDEST STOP JUMPDEST CALLVALUE DUP1 ISZERO PUSH2 0x2D6 JUMPI PUSH1 0x0 DUP1 REVERT JUMPDEST POP PUSH2 0x2F1 PUSH1 0x4 DUP1 CALLDATASIZE SUB DUP2 ADD SWAP1 PUSH2 0x2EC SWAP2 SWAP1 PUSH2 0x1696 JUMP JUMPDEST PUSH2 0x6B9 JUMP JUMPDEST STOP JUMPDEST CALLVALUE DUP1 ISZERO PUSH2 0x2FF JUMPI PUSH1 0x0 DUP1 REVERT JUMPDEST POP PUSH2 0x308 PUSH2 0x6D5 JUMP JUMPDEST PUSH1 0x40 MLOAD PUSH2 0x315 SWAP2 SWAP1 PUSH2 0x15C7 JUMP JUMPDEST PUSH1 0x40 MLOAD DUP1 SWAP2 SUB SWAP1 RETURN JUMPDEST CALLVALUE DUP1 ISZERO PUSH2 0x32A JUMPI PUSH1 0x0 DUP1 REVERT JUMPDEST POP PUSH2 0x345 PUSH1 0x4 DUP1 CALLDATASIZE SUB DUP2 ADD SWAP1 PUSH2 0x340 SWAP2 SWAP1 PUSH2 0x16C3 JUMP JUMPDEST PUSH2 0x6EC JUMP JUMPDEST PUSH1 0x40 MLOAD PUSH2 0x352 SWAP2 SWAP1 PUSH2 0x15F1 JUMP JUMPDEST PUSH1 0x40 MLOAD DUP1 SWAP2 SUB SWAP1 RETURN JUMPDEST CALLVALUE DUP1 ISZERO PUSH2 0x367 JUMPI PUSH1 0x0 DUP1 REVERT JUMPDEST POP PUSH2 0x370 PUSH2 0x734 JUMP JUMPDEST STOP JUMPDEST CALLVALUE DUP1 ISZERO PUSH2 0x37E JUMPI PUSH1 0x0 DUP1 REVERT JUMPDEST POP PUSH2 0x387 PUSH2 0x748 JUMP JUMPDEST PUSH1 0x40 MLOAD PUSH2 0x394 SWAP2 SWAP1 PUSH2 0x15F1 JUMP JUMPDEST PUSH1 0x40 MLOAD DUP1 SWAP2 SUB SWAP1 RETURN JUMPDEST CALLVALUE DUP1 ISZERO PUSH2 0x3A9 JUMPI PUSH1 0x0 DUP1 REVERT JUMPDEST POP PUSH2 0x3C4 PUSH1 0x4 DUP1 CALLDATASIZE SUB DUP2 ADD SWAP1 PUSH2 0x3BF SWAP2 SWAP1 PUSH2 0x156C JUMP JUMPDEST PUSH2 0x750 JUMP JUMPDEST STOP JUMPDEST CALLVALUE DUP1 ISZERO PUSH2 0x3D2 JUMPI PUSH1 0x0 DUP1 REVERT JUMPDEST POP PUSH2 0x3DB PUSH2 0x770 JUMP JUMPDEST STOP JUMPDEST CALLVALUE DUP1 ISZERO PUSH2 0x3E9 JUMPI PUSH1 0x0 DUP1 REVERT JUMPDEST POP PUSH2 0x3F2 PUSH2 0x782 JUMP JUMPDEST PUSH1 0x40 MLOAD PUSH2 0x3FF SWAP2 SWAP1 PUSH2 0x16FF JUMP JUMPDEST PUSH1 0x40 MLOAD DUP1 SWAP2 SUB SWAP1 RETURN JUMPDEST CALLVALUE DUP1 ISZERO PUSH2 0x414 JUMPI PUSH1 0x0 DUP1 REVERT JUMPDEST POP PUSH2 0x41D PUSH2 0x7AC JUMP JUMPDEST PUSH1 0x40 MLOAD PUSH2 0x42A SWAP2 SWAP1 PUSH2 0x14B1 JUMP JUMPDEST PUSH1 0x40 MLOAD DUP1 SWAP2 SUB SWAP1 RETURN JUMPDEST CALLVALUE DUP1 ISZERO PUSH2 0x43F JUMPI PUSH1 0x0 DUP1 REVERT JUMPDEST POP PUSH2 0x45A PUSH1 0x4 DUP1 CALLDATASIZE SUB DUP2 ADD SWAP1 PUSH2 0x455 SWAP2 SWAP1 PUSH2 0x156C JUMP JUMPDEST PUSH2 0x83E JUMP JUMPDEST PUSH1 0x40 MLOAD PUSH2 0x467 SWAP2 SWAP1 PUSH2 0x15C7 JUMP JUMPDEST PUSH1 0x40 MLOAD DUP1 SWAP2 SUB SWAP1 RETURN JUMPDEST CALLVALUE DUP1 ISZERO PUSH2 0x47C JUMPI PUSH1 0x0 DUP1 REVERT JUMPDEST POP PUSH2 0x497 PUSH1 0x4 DUP1 CALLDATASIZE SUB DUP2 ADD SWAP1 PUSH2 0x492 SWAP2 SWAP1 PUSH2 0x156C JUMP JUMPDEST PUSH2 0x8B5 JUMP JUMPDEST PUSH1 0x40 MLOAD PUSH2 0x4A4 SWAP2 SWAP1 PUSH2 0x15C7 JUMP JUMPDEST PUSH1 0x40 MLOAD DUP1 SWAP2 SUB SWAP1 RETURN JUMPDEST CALLVALUE DUP1 ISZERO PUSH2 0x4B9 JUMPI PUSH1 0x0 DUP1 REVERT JUMPDEST POP PUSH2 0x4D4 PUSH1 0x4 DUP1 CALLDATASIZE SUB DUP2 ADD SWAP1 PUSH2 0x4CF SWAP2 SWAP1 PUSH2 0x1758 JUMP JUMPDEST PUSH2 0x8D8 JUMP JUMPDEST STOP JUMPDEST CALLVALUE DUP1 ISZERO PUSH2 0x4E2 JUMPI PUSH1 0x0 DUP1 REVERT JUMPDEST POP PUSH2 0x4EB PUSH2 0x923 JUMP JUMPDEST PUSH1 0x40 MLOAD PUSH2 0x4F8 SWAP2 SWAP1 PUSH2 0x14B1 JUMP JUMPDEST PUSH1 0x40 MLOAD DUP1 SWAP2 SUB SWAP1 RETURN JUMPDEST CALLVALUE DUP1 ISZERO PUSH2 0x50D JUMPI PUSH1 0x0 DUP1 REVERT JUMPDEST POP PUSH2 0x528 PUSH1 0x4 DUP1 CALLDATASIZE SUB DUP2 ADD SWAP1 PUSH2 0x523 SWAP2 SWAP1 PUSH2 0x1798 JUMP JUMPDEST PUSH2 0x960 JUMP JUMPDEST PUSH1 0x40 MLOAD PUSH2 0x535 SWAP2 SWAP1 PUSH2 0x15F1 JUMP JUMPDEST PUSH1 0x40 MLOAD DUP1 SWAP2 SUB SWAP1 RETURN JUMPDEST PUSH2 0x546 PUSH2 0x9E7 JUMP JUMPDEST STOP JUMPDEST CALLVALUE DUP1 ISZERO PUSH2 0x554 JUMPI PUSH1 0x0 DUP1 REVERT JUMPDEST POP PUSH2 0x56F PUSH1 0x4 DUP1 CALLDATASIZE SUB DUP2 ADD SWAP1 PUSH2 0x56A SWAP2 SWAP1 PUSH2 0x16C3 JUMP JUMPDEST PUSH2 0xA3F JUMP JUMPDEST STOP JUMPDEST PUSH1 0x60 PUSH1 0x3 DUP1 SLOAD PUSH2 0x580 SWAP1 PUSH2 0x1807 JUMP JUMPDEST DUP1 PUSH1 0x1F ADD PUSH1 0x20 DUP1 SWAP2 DIV MUL PUSH1 0x20 ADD PUSH1 0x40 MLOAD SWAP1 DUP2 ADD PUSH1 0x40 MSTORE DUP1 SWAP3 SWAP2 SWAP1 DUP2 DUP2 MSTORE PUSH1 0x20 ADD DUP3 DUP1 SLOAD PUSH2 0x5AC SWAP1 PUSH2 0x1807 JUMP JUMPDEST DUP1 ISZERO PUSH2 0x5F9 JUMPI DUP1 PUSH1 0x1F LT PUSH2 0x5CE JUMPI PUSH2 0x100 DUP1 DUP4 SLOAD DIV MUL DUP4 MSTORE SWAP2 PUSH1 0x20 ADD SWAP2 PUSH2 0x5F9 JUMP JUMPDEST DUP3 ADD SWAP2 SWAP1 PUSH1 0x0 MSTORE PUSH1 0x20 PUSH1 0x0 KECCAK256 SWAP1 JUMPDEST DUP2 SLOAD DUP2 MSTORE SWAP1 PUSH1 0x1 ADD SWAP1 PUSH1 0x20 ADD DUP1 DUP4 GT PUSH2 0x5DC JUMPI DUP3 SWAP1 SUB PUSH1 0x1F AND DUP3 ADD SWAP2 JUMPDEST POP POP POP POP POP SWAP1 POP SWAP1 JUMP JUMPDEST PUSH1 0x0 DUP1 PUSH2 0x60E PUSH2 0xAC2 JUMP JUMPDEST SWAP1 POP PUSH2 0x61B DUP2 DUP6 DUP6 PUSH2 0xACA JUMP JUMPDEST PUSH1 0x1 SWAP2 POP POP SWAP3 SWAP2 POP POP JUMP JUMPDEST PUSH1 0x0 PUSH1 0x2 SLOAD SWAP1 POP SWAP1 JUMP JUMPDEST PUSH1 0x0 SELFBALANCE SWAP1 POP SWAP1 JUMP JUMPDEST PUSH1 0x0 DUP1 PUSH2 0x643 PUSH2 0xAC2 JUMP JUMPDEST SWAP1 POP PUSH2 0x650 DUP6 DUP3 DUP6 PUSH2 0xC93 JUMP JUMPDEST PUSH2 0x65B DUP6 DUP6 DUP6 PUSH2 0xD1F JUMP JUMPDEST PUSH1 0x1 SWAP2 POP POP SWAP4 SWAP3 POP POP POP JUMP JUMPDEST PUSH1 0x0 PUSH1 0x12 SWAP1 POP SWAP1 JUMP JUMPDEST PUSH1 0x0 DUP1 PUSH2 0x67B PUSH2 0xAC2 JUMP JUMPDEST SWAP1 POP PUSH2 0x69C DUP2 DUP6 DUP6 PUSH2 0x68D DUP6 DUP10 PUSH2 0x960 JUMP JUMPDEST PUSH2 0x697 SWAP2 SWAP1 PUSH2 0x1867 JUMP JUMPDEST PUSH2 0xACA JUMP JUMPDEST PUSH1 0x1 SWAP2 POP POP SWAP3 SWAP2 POP POP JUMP JUMPDEST PUSH2 0x6AF PUSH2 0xF95 JUMP JUMPDEST PUSH2 0x6B7 PUSH2 0x1013 JUMP JUMPDEST JUMP JUMPDEST PUSH2 0x6C1 PUSH2 0xF95 JUMP JUMPDEST PUSH2 0x6D2 PUSH2 0x6CC PUSH2 0xAC2 JUMP JUMPDEST DUP3 PUSH2 0x1076 JUMP JUMPDEST POP JUMP JUMPDEST PUSH1 0x0 PUSH1 0x5 PUSH1 0x0 SWAP1 SLOAD SWAP1 PUSH2 0x100 EXP SWAP1 DIV PUSH1 0xFF AND SWAP1 POP SWAP1 JUMP JUMPDEST PUSH1 0x0 DUP1 PUSH1 0x0 DUP4 PUSH20 0xFFFFFFFFFFFFFFFFFFFFFFFFFFFFFFFFFFFFFFFF AND PUSH20 0xFFFFFFFFFFFFFFFFFFFFFFFFFFFFFFFFFFFFFFFF AND DUP2 MSTORE PUSH1 0x20 ADD SWAP1 DUP2 MSTORE PUSH1 0x20 ADD PUSH1 0x0 KECCAK256 SLOAD SWAP1 POP SWAP2 SWAP1 POP JUMP JUMPDEST PUSH2 0x73C PUSH2 0xF95 JUMP JUMPDEST PUSH2 0x746 PUSH1 0x0 PUSH2 0x1243 JUMP JUMPDEST JUMP JUMPDEST PUSH1 0x0 SELFBALANCE SWAP1 POP SWAP1 JUMP JUMPDEST PUSH2 0x762 DUP3 PUSH2 0x75C PUSH2 0xAC2 JUMP JUMPDEST DUP4 PUSH2 0xC93 JUMP JUMPDEST PUSH2 0x76C DUP3 DUP3 PUSH2 0x1076 JUMP JUMPDEST POP POP JUMP JUMPDEST PUSH2 0x778 PUSH2 0xF95 JUMP JUMPDEST PUSH2 0x780 PUSH2 0x1309 JUMP JUMPDEST JUMP JUMPDEST PUSH1 0x0 PUSH1 0x5 PUSH1 0x1 SWAP1 SLOAD SWAP1 PUSH2 0x100 EXP SWAP1 DIV PUSH20 0xFFFFFFFFFFFFFFFFFFFFFFFFFFFFFFFFFFFFFFFF AND SWAP1 POP SWAP1 JUMP JUMPDEST PUSH1 0x60 PUSH1 0x4 DUP1 SLOAD PUSH2 0x7BB SWAP1 PUSH2 0x1807 JUMP JUMPDEST DUP1 PUSH1 0x1F ADD PUSH1 0x20 DUP1 SWAP2 DIV MUL PUSH1 0x20 ADD PUSH1 0x40 MLOAD SWAP1 DUP2 ADD PUSH1 0x40 MSTORE DUP1 SWAP3 SWAP2 SWAP1 DUP2 DUP2 MSTORE PUSH1 0x20 ADD DUP3 DUP1 SLOAD PUSH2 0x7E7 SWAP1 PUSH2 0x1807 JUMP JUMPDEST DUP1 ISZERO PUSH2 0x834 JUMPI DUP1 PUSH1 0x1F LT PUSH2 0x809 JUMPI PUSH2 0x100 DUP1 DUP4 SLOAD DIV MUL DUP4 MSTORE SWAP2 PUSH1 0x20 ADD SWAP2 PUSH2 0x834 JUMP JUMPDEST DUP3 ADD SWAP2 SWAP1 PUSH1 0x0 MSTORE PUSH1 0x20 PUSH1 0x0 KECCAK256 SWAP1 JUMPDEST DUP2 SLOAD DUP2 MSTORE SWAP1 PUSH1 0x1 ADD SWAP1 PUSH1 0x20 ADD DUP1 DUP4 GT PUSH2 0x817 JUMPI DUP3 SWAP1 SUB PUSH1 0x1F AND DUP3 ADD SWAP2 JUMPDEST POP POP POP POP POP SWAP1 POP SWAP1 JUMP JUMPDEST PUSH1 0x0 DUP1 PUSH2 0x849 PUSH2 0xAC2 JUMP JUMPDEST SWAP1 POP PUSH1 0x0 PUSH2 0x857 DUP3 DUP7 PUSH2 0x960 JUMP JUMPDEST SWAP1 POP DUP4 DUP2 LT ISZERO PUSH2 0x89C JUMPI PUSH1 0x40 MLOAD PUSH32 0x8C379A000000000000000000000000000000000000000000000000000000000 DUP2 MSTORE PUSH1 0x4 ADD PUSH2 0x893 SWAP1 PUSH2 0x190D JUMP JUMPDEST PUSH1 0x40 MLOAD DUP1 SWAP2 SUB SWAP1 REVERT JUMPDEST PUSH2 0x8A9 DUP3 DUP7 DUP7 DUP5 SUB PUSH2 0xACA JUMP JUMPDEST PUSH1 0x1 SWAP3 POP POP POP SWAP3 SWAP2 POP POP JUMP JUMPDEST PUSH1 0x0 DUP1 PUSH2 0x8C0 PUSH2 0xAC2 JUMP JUMPDEST SWAP1 POP PUSH2 0x8CD DUP2 DUP6 DUP6 PUSH2 0xD1F JUMP JUMPDEST PUSH1 0x1 SWAP2 POP POP SWAP3 SWAP2 POP POP JUMP JUMPDEST DUP2 PUSH20 0xFFFFFFFFFFFFFFFFFFFFFFFFFFFFFFFFFFFFFFFF AND PUSH2 0x8FC DUP3 SWAP1 DUP2 ISZERO MUL SWAP1 PUSH1 0x40 MLOAD PUSH1 0x0 PUSH1 0x40 MLOAD DUP1 DUP4 SUB DUP2 DUP6 DUP9 DUP9 CALL SWAP4 POP POP POP POP ISZERO DUP1 ISZERO PUSH2 0x91E JUMPI RETURNDATASIZE PUSH1 0x0 DUP1 RETURNDATACOPY RETURNDATASIZE PUSH1 0x0 REVERT JUMPDEST POP POP POP JUMP JUMPDEST PUSH1 0x60 PUSH1 0x40 MLOAD DUP1 PUSH1 0x40 ADD PUSH1 0x40 MSTORE DUP1 PUSH1 0xA DUP2 MSTORE PUSH1 0x20 ADD PUSH32 0x48656C6C6F576F726C6400000000000000000000000000000000000000000000 DUP2 MSTORE POP SWAP1 POP SWAP1 JUMP JUMPDEST PUSH1 0x0 PUSH1 0x1 PUSH1 0x0 DUP5 PUSH20 0xFFFFFFFFFFFFFFFFFFFFFFFFFFFFFFFFFFFFFFFF AND PUSH20 0xFFFFFFFFFFFFFFFFFFFFFFFFFFFFFFFFFFFFFFFF AND DUP2 MSTORE PUSH1 0x20 ADD SWAP1 DUP2 MSTORE PUSH1 0x20 ADD PUSH1 0x0 KECCAK256 PUSH1 0x0 DUP4 PUSH20 0xFFFFFFFFFFFFFFFFFFFFFFFFFFFFFFFFFFFFFFFF AND PUSH20 0xFFFFFFFFFFFFFFFFFFFFFFFFFFFFFFFFFFFFFFFF AND DUP2 MSTORE PUSH1 0x20 ADD SWAP1 DUP2 MSTORE PUSH1 0x20 ADD PUSH1 0x0 KECCAK256 SLOAD SWAP1 POP SWAP3 SWAP2 POP POP JUMP JUMPDEST CALLVALUE PUSH1 0x6 PUSH1 0x0 CALLER PUSH20 0xFFFFFFFFFFFFFFFFFFFFFFFFFFFFFFFFFFFFFFFF AND PUSH20 0xFFFFFFFFFFFFFFFFFFFFFFFFFFFFFFFFFFFFFFFF AND DUP2 MSTORE PUSH1 0x20 ADD SWAP1 DUP2 MSTORE PUSH1 0x20 ADD PUSH1 0x0 KECCAK256 PUSH1 0x0 DUP3 DUP3 SLOAD PUSH2 0xA36 SWAP2 SWAP1 PUSH2 0x1867 JUMP JUMPDEST SWAP3 POP POP DUP2 SWAP1 SSTORE POP JUMP JUMPDEST PUSH2 0xA47 PUSH2 0xF95 JUMP JUMPDEST PUSH1 0x0 PUSH20 0xFFFFFFFFFFFFFFFFFFFFFFFFFFFFFFFFFFFFFFFF AND DUP2 PUSH20 0xFFFFFFFFFFFFFFFFFFFFFFFFFFFFFFFFFFFFFFFF AND SUB PUSH2 0xAB6 JUMPI PUSH1 0x40 MLOAD PUSH32 0x8C379A000000000000000000000000000000000000000000000000000000000 DUP2 MSTORE PUSH1 0x4 ADD PUSH2 0xAAD SWAP1 PUSH2 0x199F JUMP JUMPDEST PUSH1 0x40 MLOAD DUP1 SWAP2 SUB SWAP1 REVERT JUMPDEST PUSH2 0xABF DUP2 PUSH2 0x1243 JUMP JUMPDEST POP JUMP JUMPDEST PUSH1 0x0 CALLER SWAP1 POP SWAP1 JUMP JUMPDEST PUSH1 0x0 PUSH20 0xFFFFFFFFFFFFFFFFFFFFFFFFFFFFFFFFFFFFFFFF AND DUP4 PUSH20 0xFFFFFFFFFFFFFFFFFFFFFFFFFFFFFFFFFFFFFFFF AND SUB PUSH2 0xB39 JUMPI PUSH1 0x40 MLOAD PUSH32 0x8C379A000000000000000000000000000000000000000000000000000000000 DUP2 MSTORE PUSH1 0x4 ADD PUSH2 0xB30 SWAP1 PUSH2 0x1A31 JUMP JUMPDEST PUSH1 0x40 MLOAD DUP1 SWAP2 SUB SWAP1 REVERT JUMPDEST PUSH1 0x0 PUSH20 0xFFFFFFFFFFFFFFFFFFFFFFFFFFFFFFFFFFFFFFFF AND DUP3 PUSH20 0xFFFFFFFFFFFFFFFFFFFFFFFFFFFFFFFFFFFFFFFF AND SUB PUSH2 0xBA8 JUMPI PUSH1 0x40 MLOAD PUSH32 0x8C379A000000000000000000000000000000000000000000000000000000000 DUP2 MSTORE PUSH1 0x4 ADD PUSH2 0xB9F SWAP1 PUSH2 0x1AC3 JUMP JUMPDEST PUSH1 0x40 MLOAD DUP1 SWAP2 SUB SWAP1 REVERT JUMPDEST DUP1 PUSH1 0x1 PUSH1 0x0 DUP6 PUSH20 0xFFFFFFFFFFFFFFFFFFFFFFFFFFFFFFFFFFFFFFFF AND PUSH20 0xFFFFFFFFFFFFFFFFFFFFFFFFFFFFFFFFFFFFFFFF AND DUP2 MSTORE PUSH1 0x20 ADD SWAP1 DUP2 MSTORE PUSH1 0x20 ADD PUSH1 0x0 KECCAK256 PUSH1 0x0 DUP5 PUSH20 0xFFFFFFFFFFFFFFFFFFFFFFFFFFFFFFFFFFFFFFFF AND PUSH20 0xFFFFFFFFFFFFFFFFFFFFFFFFFFFFFFFFFFFFFFFF AND DUP2 MSTORE PUSH1 0x20 ADD SWAP1 DUP2 MSTORE PUSH1 0x20 ADD PUSH1 0x0 KECCAK256 DUP2 SWAP1 SSTORE POP DUP2 PUSH20 0xFFFFFFFFFFFFFFFFFFFFFFFFFFFFFFFFFFFFFFFF AND DUP4 PUSH20 0xFFFFFFFFFFFFFFFFFFFFFFFFFFFFFFFFFFFFFFFF AND PUSH32 0x8C5BE1E5EBEC7D5BD14F71427D1E84F3DD0314C0F7B2291E5B200AC8C7C3B925 DUP4 PUSH1 0x40 MLOAD PUSH2 0xC86 SWAP2 SWAP1 PUSH2 0x15F1 JUMP JUMPDEST PUSH1 0x40 MLOAD DUP1 SWAP2 SUB SWAP1 LOG3 POP POP POP JUMP JUMPDEST PUSH1 0x0 PUSH2 0xC9F DUP5 DUP5 PUSH2 0x960 JUMP JUMPDEST SWAP1 POP PUSH32 0xFFFFFFFFFFFFFFFFFFFFFFFFFFFFFFFFFFFFFFFFFFFFFFFFFFFFFFFFFFFFFFFF DUP2 EQ PUSH2 0xD19 JUMPI DUP2 DUP2 LT ISZERO PUSH2 0xD0B JUMPI PUSH1 0x40 MLOAD PUSH32 0x8C379A000000000000000000000000000000000000000000000000000000000 DUP2 MSTORE PUSH1 0x4 ADD PUSH2 0xD02 SWAP1 PUSH2 0x1B2F JUMP JUMPDEST PUSH1 0x40 MLOAD DUP1 SWAP2 SUB SWAP1 REVERT JUMPDEST PUSH2 0xD18 DUP5 DUP5 DUP5 DUP5 SUB PUSH2 0xACA JUMP JUMPDEST JUMPDEST POP POP POP POP JUMP JUMPDEST PUSH1 0x0 PUSH20 0xFFFFFFFFFFFFFFFFFFFFFFFFFFFFFFFFFFFFFFFF AND DUP4 PUSH20 0xFFFFFFFFFFFFFFFFFFFFFFFFFFFFFFFFFFFFFFFF AND SUB PUSH2 0xD8E JUMPI PUSH1 0x40 MLOAD PUSH32 0x8C379A000000000000000000000000000000000000000000000000000000000 DUP2 MSTORE PUSH1 0x4 ADD PUSH2 0xD85 SWAP1 PUSH2 0x1BC1 JUMP JUMPDEST PUSH1 0x40 MLOAD DUP1 SWAP2 SUB SWAP1 REVERT JUMPDEST PUSH1 0x0 PUSH20 0xFFFFFFFFFFFFFFFFFFFFFFFFFFFFFFFFFFFFFFFF AND DUP3 PUSH20 0xFFFFFFFFFFFFFFFFFFFFFFFFFFFFFFFFFFFFFFFF AND SUB PUSH2 0xDFD JUMPI PUSH1 0x40 MLOAD PUSH32 0x8C379A000000000000000000000000000000000000000000000000000000000 DUP2 MSTORE PUSH1 0x4 ADD PUSH2 0xDF4 SWAP1 PUSH2 0x1C53 JUMP JUMPDEST PUSH1 0x40 MLOAD DUP1 SWAP2 SUB SWAP1 REVERT JUMPDEST PUSH2 0xE08 DUP4 DUP4 DUP4 PUSH2 0x136C JUMP JUMPDEST PUSH1 0x0 DUP1 PUSH1 0x0 DUP6 PUSH20 0xFFFFFFFFFFFFFFFFFFFFFFFFFFFFFFFFFFFFFFFF AND PUSH20 0xFFFFFFFFFFFFFFFFFFFFFFFFFFFFFFFFFFFFFFFF AND DUP2 MSTORE PUSH1 0x20 ADD SWAP1 DUP2 MSTORE PUSH1 0x20 ADD PUSH1 0x0 KECCAK256 SLOAD SWAP1 POP DUP2 DUP2 LT ISZERO PUSH2 0xE8E JUMPI PUSH1 0x40 MLOAD PUSH32 0x8C379A000000000000000000000000000000000000000000000000000000000 DUP2 MSTORE PUSH1 0x4 ADD PUSH2 0xE85 SWAP1 PUSH2 0x1CE5 JUMP JUMPDEST PUSH1 0x40 MLOAD DUP1 SWAP2 SUB SWAP1 REVERT JUMPDEST DUP2 DUP2 SUB PUSH1 0x0 DUP1 DUP7 PUSH20 0xFFFFFFFFFFFFFFFFFFFFFFFFFFFFFFFFFFFFFFFF AND PUSH20 0xFFFFFFFFFFFFFFFFFFFFFFFFFFFFFFFFFFFFFFFF AND DUP2 MSTORE PUSH1 0x20 ADD SWAP1 DUP2 MSTORE PUSH1 0x20 ADD PUSH1 0x0 KECCAK256 DUP2 SWAP1 SSTORE POP DUP2 PUSH1 0x0 DUP1 DUP6 PUSH20 0xFFFFFFFFFFFFFFFFFFFFFFFFFFFFFFFFFFFFFFFF AND PUSH20 0xFFFFFFFFFFFFFFFFFFFFFFFFFFFFFFFFFFFFFFFF AND DUP2 MSTORE PUSH1 0x20 ADD SWAP1 DUP2 MSTORE PUSH1 0x20 ADD PUSH1 0x0 KECCAK256 PUSH1 0x0 DUP3 DUP3 SLOAD ADD SWAP3 POP POP DUP2 SWAP1 SSTORE POP DUP3 PUSH20 0xFFFFFFFFFFFFFFFFFFFFFFFFFFFFFFFFFFFFFFFF AND DUP5 PUSH20 0xFFFFFFFFFFFFFFFFFFFFFFFFFFFFFFFFFFFFFFFF AND PUSH32 0xDDF252AD1BE2C89B69C2B068FC378DAA952BA7F163C4A11628F55A4DF523B3EF DUP5 PUSH1 0x40 MLOAD PUSH2 0xF7C SWAP2 SWAP1 PUSH2 0x15F1 JUMP JUMPDEST PUSH1 0x40 MLOAD DUP1 SWAP2 SUB SWAP1 LOG3 PUSH2 0xF8F DUP5 DUP5 DUP5 PUSH2 0x1384 JUMP JUMPDEST POP POP POP POP JUMP JUMPDEST PUSH2 0xF9D PUSH2 0xAC2 JUMP JUMPDEST PUSH20 0xFFFFFFFFFFFFFFFFFFFFFFFFFFFFFFFFFFFFFFFF AND PUSH2 0xFBB PUSH2 0x782 JUMP JUMPDEST PUSH20 0xFFFFFFFFFFFFFFFFFFFFFFFFFFFFFFFFFFFFFFFF AND EQ PUSH2 0x1011 JUMPI PUSH1 0x40 MLOAD PUSH32 0x8C379A000000000000000000000000000000000000000000000000000000000 DUP2 MSTORE PUSH1 0x4 ADD PUSH2 0x1008 SWAP1 PUSH2 0x1D51 JUMP JUMPDEST PUSH1 0x40 MLOAD DUP1 SWAP2 SUB SWAP1 REVERT JUMPDEST JUMP JUMPDEST PUSH2 0x101B PUSH2 0x1389 JUMP JUMPDEST PUSH1 0x0 PUSH1 0x5 PUSH1 0x0 PUSH2 0x100 EXP DUP2 SLOAD DUP2 PUSH1 0xFF MUL NOT AND SWAP1 DUP4 ISZERO ISZERO MUL OR SWAP1 SSTORE POP PUSH32 0x5DB9EE0A495BF2E6FF9C91A7834C1BA4FDD244A5E8AA4E537BD38AEAE4B073AA PUSH2 0x105F PUSH2 0xAC2 JUMP JUMPDEST PUSH1 0x40 MLOAD PUSH2 0x106C SWAP2 SWAP1 PUSH2 0x16FF JUMP JUMPDEST PUSH1 0x40 MLOAD DUP1 SWAP2 SUB SWAP1 LOG1 JUMP JUMPDEST PUSH1 0x0 PUSH20 0xFFFFFFFFFFFFFFFFFFFFFFFFFFFFFFFFFFFFFFFF AND DUP3 PUSH20 0xFFFFFFFFFFFFFFFFFFFFFFFFFFFFFFFFFFFFFFFF AND SUB PUSH2 0x10E5 JUMPI PUSH1 0x40 MLOAD PUSH32 0x8C379A000000000000000000000000000000000000000000000000000000000 DUP2 MSTORE PUSH1 0x4 ADD PUSH2 0x10DC SWAP1 PUSH2 0x1DE3 JUMP JUMPDEST PUSH1 0x40 MLOAD DUP1 SWAP2 SUB SWAP1 REVERT JUMPDEST PUSH2 0x10F1 DUP3 PUSH1 0x0 DUP4 PUSH2 0x136C JUMP JUMPDEST PUSH1 0x0 DUP1 PUSH1 0x0 DUP5 PUSH20 0xFFFFFFFFFFFFFFFFFFFFFFFFFFFFFFFFFFFFFFFF AND PUSH20 0xFFFFFFFFFFFFFFFFFFFFFFFFFFFFFFFFFFFFFFFF AND DUP2 MSTORE PUSH1 0x20 ADD SWAP1 DUP2 MSTORE PUSH1 0x20 ADD PUSH1 0x0 KECCAK256 SLOAD SWAP1 POP DUP2 DUP2 LT ISZERO PUSH2 0x1177 JUMPI PUSH1 0x40 MLOAD PUSH32 0x8C379A000000000000000000000000000000000000000000000000000000000 DUP2 MSTORE PUSH1 0x4 ADD PUSH2 0x116E SWAP1 PUSH2 0x1E75 JUMP JUMPDEST PUSH1 0x40 MLOAD DUP1 SWAP2 SUB SWAP1 REVERT JUMPDEST DUP2 DUP2 SUB PUSH1 0x0 DUP1 DUP6 PUSH20 0xFFFFFFFFFFFFFFFFFFFFFFFFFFFFFFFFFFFFFFFF AND PUSH20 0xFFFFFFFFFFFFFFFFFFFFFFFFFFFFFFFFFFFFFFFF AND DUP2 MSTORE PUSH1 0x20 ADD SWAP1 DUP2 MSTORE PUSH1 0x20 ADD PUSH1 0x0 KECCAK256 DUP2 SWAP1 SSTORE POP DUP2 PUSH1 0x2 PUSH1 0x0 DUP3 DUP3 SLOAD SUB SWAP3 POP POP DUP2 SWAP1 SSTORE POP PUSH1 0x0 PUSH20 0xFFFFFFFFFFFFFFFFFFFFFFFFFFFFFFFFFFFFFFFF AND DUP4 PUSH20 0xFFFFFFFFFFFFFFFFFFFFFFFFFFFFFFFFFFFFFFFF AND PUSH32 0xDDF252AD1BE2C89B69C2B068FC378DAA952BA7F163C4A11628F55A4DF523B3EF DUP5 PUSH1 0x40 MLOAD PUSH2 0x122A SWAP2 SWAP1 PUSH2 0x15F1 JUMP JUMPDEST PUSH1 0x40 MLOAD DUP1 SWAP2 SUB SWAP1 LOG3 PUSH2 0x123E DUP4 PUSH1 0x0 DUP5 PUSH2 0x1384 JUMP JUMPDEST POP POP POP JUMP JUMPDEST PUSH1 0x0 PUSH1 0x5 PUSH1 0x1 SWAP1 SLOAD SWAP1 PUSH2 0x100 EXP SWAP1 DIV PUSH20 0xFFFFFFFFFFFFFFFFFFFFFFFFFFFFFFFFFFFFFFFF AND SWAP1 POP DUP2 PUSH1 0x5 PUSH1 0x1 PUSH2 0x100 EXP DUP2 SLOAD DUP2 PUSH20 0xFFFFFFFFFFFFFFFFFFFFFFFFFFFFFFFFFFFFFFFF MUL NOT AND SWAP1 DUP4 PUSH20 0xFFFFFFFFFFFFFFFFFFFFFFFFFFFFFFFFFFFFFFFF AND MUL OR SWAP1 SSTORE POP DUP2 PUSH20 0xFFFFFFFFFFFFFFFFFFFFFFFFFFFFFFFFFFFFFFFF AND DUP2 PUSH20 0xFFFFFFFFFFFFFFFFFFFFFFFFFFFFFFFFFFFFFFFF AND PUSH32 0x8BE0079C531659141344CD1FD0A4F28419497F9722A3DAAFE3B4186F6B6457E0 PUSH1 0x40 MLOAD PUSH1 0x40 MLOAD DUP1 SWAP2 SUB SWAP1 LOG3 POP POP JUMP JUMPDEST PUSH2 0x1311 PUSH2 0x13D2 JUMP JUMPDEST PUSH1 0x1 PUSH1 0x5 PUSH1 0x0 PUSH2 0x100 EXP DUP2 SLOAD DUP2 PUSH1 0xFF MUL NOT AND SWAP1 DUP4 ISZERO ISZERO MUL OR SWAP1 SSTORE POP PUSH32 0x62E78CEA01BEE320CD4E420270B5EA74000D11B0C9F74754EBDBFC544B05A258 PUSH2 0x1355 PUSH2 0xAC2 JUMP JUMPDEST PUSH1 0x40 MLOAD PUSH2 0x1362 SWAP2 SWAP1 PUSH2 0x16FF JUMP JUMPDEST PUSH1 0x40 MLOAD DUP1 SWAP2 SUB SWAP1 LOG1 JUMP JUMPDEST PUSH2 0x1374 PUSH2 0x13D2 JUMP JUMPDEST PUSH2 0x137F DUP4 DUP4 DUP4 PUSH2 0x141C JUMP JUMPDEST POP POP POP JUMP JUMPDEST POP POP POP JUMP JUMPDEST PUSH2 0x1391 PUSH2 0x6D5 JUMP JUMPDEST PUSH2 0x13D0 JUMPI PUSH1 0x40 MLOAD PUSH32 0x8C379A000000000000000000000000000000000000000000000000000000000 DUP2 MSTORE PUSH1 0x4 ADD PUSH2 0x13C7 SWAP1 PUSH2 0x1EE1 JUMP JUMPDEST PUSH1 0x40 MLOAD DUP1 SWAP2 SUB SWAP1 REVERT JUMPDEST JUMP JUMPDEST PUSH2 0x13DA PUSH2 0x6D5 JUMP JUMPDEST ISZERO PUSH2 0x141A JUMPI PUSH1 0x40 MLOAD PUSH32 0x8C379A000000000000000000000000000000000000000000000000000000000 DUP2 MSTORE PUSH1 0x4 ADD PUSH2 0x1411 SWAP1 PUSH2 0x1F4D JUMP JUMPDEST PUSH1 0x40 MLOAD DUP1 SWAP2 SUB SWAP1 REVERT JUMPDEST JUMP JUMPDEST POP POP POP JUMP JUMPDEST PUSH1 0x0 DUP2 MLOAD SWAP1 POP SWAP2 SWAP1 POP JUMP JUMPDEST PUSH1 0x0 DUP3 DUP3 MSTORE PUSH1 0x20 DUP3 ADD SWAP1 POP SWAP3 SWAP2 POP POP JUMP JUMPDEST PUSH1 0x0 JUMPDEST DUP4 DUP2 LT ISZERO PUSH2 0x145B JUMPI DUP1 DUP3 ADD MLOAD DUP2 DUP5 ADD MSTORE PUSH1 0x20 DUP2 ADD SWAP1 POP PUSH2 0x1440 JUMP JUMPDEST PUSH1 0x0 DUP5 DUP5 ADD MSTORE POP POP POP POP JUMP JUMPDEST PUSH1 0x0 PUSH1 0x1F NOT PUSH1 0x1F DUP4 ADD AND SWAP1 POP SWAP2 SWAP1 POP JUMP JUMPDEST PUSH1 0x0 PUSH2 0x1483 DUP3 PUSH2 0x1421 JUMP JUMPDEST PUSH2 0x148D DUP2 DUP6 PUSH2 0x142C JUMP JUMPDEST SWAP4 POP PUSH2 0x149D DUP2 DUP6 PUSH1 0x20 DUP7 ADD PUSH2 0x143D JUMP JUMPDEST PUSH2 0x14A6 DUP2 PUSH2 0x1467 JUMP JUMPDEST DUP5 ADD SWAP2 POP POP SWAP3 SWAP2 POP POP JUMP JUMPDEST PUSH1 0x0 PUSH1 0x20 DUP3 ADD SWAP1 POP DUP2 DUP2 SUB PUSH1 0x0 DUP4 ADD MSTORE PUSH2 0x14CB DUP2 DUP5 PUSH2 0x1478 JUMP JUMPDEST SWAP1 POP SWAP3 SWAP2 POP POP JUMP JUMPDEST PUSH1 0x0 DUP1 REVERT JUMPDEST PUSH1 0x0 PUSH20 0xFFFFFFFFFFFFFFFFFFFFFFFFFFFFFFFFFFFFFFFF DUP3 AND SWAP1 POP SWAP2 SWAP1 POP JUMP JUMPDEST PUSH1 0x0 PUSH2 0x1503 DUP3 PUSH2 0x14D8 JUMP JUMPDEST SWAP1 POP SWAP2 SWAP1 POP JUMP JUMPDEST PUSH2 0x1513 DUP2 PUSH2 0x14F8 JUMP JUMPDEST DUP2 EQ PUSH2 0x151E JUMPI PUSH1 0x0 DUP1 REVERT JUMPDEST POP JUMP JUMPDEST PUSH1 0x0 DUP2 CALLDATALOAD SWAP1 POP PUSH2 0x1530 DUP2 PUSH2 0x150A JUMP JUMPDEST SWAP3 SWAP2 POP POP JUMP JUMPDEST PUSH1 0x0 DUP2 SWAP1 POP SWAP2 SWAP1 POP JUMP JUMPDEST PUSH2 0x1549 DUP2 PUSH2 0x1536 JUMP JUMPDEST DUP2 EQ PUSH2 0x1554 JUMPI PUSH1 0x0 DUP1 REVERT JUMPDEST POP JUMP JUMPDEST PUSH1 0x0 DUP2 CALLDATALOAD SWAP1 POP PUSH2 0x1566 DUP2 PUSH2 0x1540 JUMP JUMPDEST SWAP3 SWAP2 POP POP JUMP JUMPDEST PUSH1 0x0 DUP1 PUSH1 0x40 DUP4 DUP6 SUB SLT ISZERO PUSH2 0x1583 JUMPI PUSH2 0x1582 PUSH2 0x14D3 JUMP JUMPDEST JUMPDEST PUSH1 0x0 PUSH2 0x1591 DUP6 DUP3 DUP7 ADD PUSH2 0x1521 JUMP JUMPDEST SWAP3 POP POP PUSH1 0x20 PUSH2 0x15A2 DUP6 DUP3 DUP7 ADD PUSH2 0x1557 JUMP JUMPDEST SWAP2 POP POP SWAP3 POP SWAP3 SWAP1 POP JUMP JUMPDEST PUSH1 0x0 DUP2 ISZERO ISZERO SWAP1 POP SWAP2 SWAP1 POP JUMP JUMPDEST PUSH2 0x15C1 DUP2 PUSH2 0x15AC JUMP JUMPDEST DUP3 MSTORE POP POP JUMP JUMPDEST PUSH1 0x0 PUSH1 0x20 DUP3 ADD SWAP1 POP PUSH2 0x15DC PUSH1 0x0 DUP4 ADD DUP5 PUSH2 0x15B8 JUMP JUMPDEST SWAP3 SWAP2 POP POP JUMP JUMPDEST PUSH2 0x15EB DUP2 PUSH2 0x1536 JUMP JUMPDEST DUP3 MSTORE POP POP JUMP JUMPDEST PUSH1 0x0 PUSH1 0x20 DUP3 ADD SWAP1 POP PUSH2 0x1606 PUSH1 0x0 DUP4 ADD DUP5 PUSH2 0x15E2 JUMP JUMPDEST SWAP3 SWAP2 POP POP JUMP JUMPDEST PUSH1 0x0 DUP1 PUSH1 0x0 PUSH1 0x60 DUP5 DUP7 SUB SLT ISZERO PUSH2 0x1625 JUMPI PUSH2 0x1624 PUSH2 0x14D3 JUMP JUMPDEST JUMPDEST PUSH1 0x0 PUSH2 0x1633 DUP7 DUP3 DUP8 ADD PUSH2 0x1521 JUMP JUMPDEST SWAP4 POP POP PUSH1 0x20 PUSH2 0x1644 DUP7 DUP3 DUP8 ADD PUSH2 0x1521 JUMP JUMPDEST SWAP3 POP POP PUSH1 0x40 PUSH2 0x1655 DUP7 DUP3 DUP8 ADD PUSH2 0x1557 JUMP JUMPDEST SWAP2 POP POP SWAP3 POP SWAP3 POP SWAP3 JUMP JUMPDEST PUSH1 0x0 PUSH1 0xFF DUP3 AND SWAP1 POP SWAP2 SWAP1 POP JUMP JUMPDEST PUSH2 0x1675 DUP2 PUSH2 0x165F JUMP JUMPDEST DUP3 MSTORE POP POP JUMP JUMPDEST PUSH1 0x0 PUSH1 0x20 DUP3 ADD SWAP1 POP PUSH2 0x1690 PUSH1 0x0 DUP4 ADD DUP5 PUSH2 0x166C JUMP JUMPDEST SWAP3 SWAP2 POP POP JUMP JUMPDEST PUSH1 0x0 PUSH1 0x20 DUP3 DUP5 SUB SLT ISZERO PUSH2 0x16AC JUMPI PUSH2 0x16AB PUSH2 0x14D3 JUMP JUMPDEST JUMPDEST PUSH1 0x0 PUSH2 0x16BA DUP5 DUP3 DUP6 ADD PUSH2 0x1557 JUMP JUMPDEST SWAP2 POP POP SWAP3 SWAP2 POP POP JUMP JUMPDEST PUSH1 0x0 PUSH1 0x20 DUP3 DUP5 SUB SLT ISZERO PUSH2 0x16D9 JUMPI PUSH2 0x16D8 PUSH2 0x14D3 JUMP JUMPDEST JUMPDEST PUSH1 0x0 PUSH2 0x16E7 DUP5 DUP3 DUP6 ADD PUSH2 0x1521 JUMP JUMPDEST SWAP2 POP POP SWAP3 SWAP2 POP POP JUMP JUMPDEST PUSH2 0x16F9 DUP2 PUSH2 0x14F8 JUMP JUMPDEST DUP3 MSTORE POP POP JUMP JUMPDEST PUSH1 0x0 PUSH1 0x20 DUP3 ADD SWAP1 POP PUSH2 0x1714 PUSH1 0x0 DUP4 ADD DUP5 PUSH2 0x16F0 JUMP JUMPDEST SWAP3 SWAP2 POP POP JUMP JUMPDEST PUSH1 0x0 PUSH2 0x1725 DUP3 PUSH2 0x14D8 JUMP JUMPDEST SWAP1 POP SWAP2 SWAP1 POP JUMP JUMPDEST PUSH2 0x1735 DUP2 PUSH2 0x171A JUMP JUMPDEST DUP2 EQ PUSH2 0x1740 JUMPI PUSH1 0x0 DUP1 REVERT JUMPDEST POP JUMP JUMPDEST PUSH1 0x0 DUP2 CALLDATALOAD SWAP1 POP PUSH2 0x1752 DUP2 PUSH2 0x172C JUMP JUMPDEST SWAP3 SWAP2 POP POP JUMP JUMPDEST PUSH1 0x0 DUP1 PUSH1 0x40 DUP4 DUP6 SUB SLT ISZERO PUSH2 0x176F JUMPI PUSH2 0x176E PUSH2 0x14D3 JUMP JUMPDEST JUMPDEST PUSH1 0x0 PUSH2 0x177D DUP6 DUP3 DUP7 ADD PUSH2 0x1743 JUMP JUMPDEST SWAP3 POP POP PUSH1 0x20 PUSH2 0x178E DUP6 DUP3 DUP7 ADD PUSH2 0x1557 JUMP JUMPDEST SWAP2 POP POP SWAP3 POP SWAP3 SWAP1 POP JUMP JUMPDEST PUSH1 0x0 DUP1 PUSH1 0x40 DUP4 DUP6 SUB SLT ISZERO PUSH2 0x17AF JUMPI PUSH2 0x17AE PUSH2 0x14D3 JUMP JUMPDEST JUMPDEST PUSH1 0x0 PUSH2 0x17BD DUP6 DUP3 DUP7 ADD PUSH2 0x1521 JUMP JUMPDEST SWAP3 POP POP PUSH1 0x20 PUSH2 0x17CE DUP6 DUP3 DUP7 ADD PUSH2 0x1521 JUMP JUMPDEST SWAP2 POP POP SWAP3 POP SWAP3 SWAP1 POP JUMP JUMPDEST PUSH32 0x4E487B7100000000000000000000000000000000000000000000000000000000 PUSH1 0x0 MSTORE PUSH1 0x22 PUSH1 0x4 MSTORE PUSH1 0x24 PUSH1 0x0 REVERT JUMPDEST PUSH1 0x0 PUSH1 0x2 DUP3 DIV SWAP1 POP PUSH1 0x1 DUP3 AND DUP1 PUSH2 0x181F JUMPI PUSH1 0x7F DUP3 AND SWAP2 POP JUMPDEST PUSH1 0x20 DUP3 LT DUP2 SUB PUSH2 0x1832 JUMPI PUSH2 0x1831 PUSH2 0x17D8 JUMP JUMPDEST JUMPDEST POP SWAP2 SWAP1 POP JUMP JUMPDEST PUSH32 0x4E487B7100000000000000000000000000000000000000000000000000000000 PUSH1 0x0 MSTORE PUSH1 0x11 PUSH1 0x4 MSTORE PUSH1 0x24 PUSH1 0x0 REVERT JUMPDEST PUSH1 0x0 PUSH2 0x1872 DUP3 PUSH2 0x1536 JUMP JUMPDEST SWAP2 POP PUSH2 0x187D DUP4 PUSH2 0x1536 JUMP JUMPDEST SWAP3 POP DUP3 DUP3 ADD SWAP1 POP DUP1 DUP3 GT ISZERO PUSH2 0x1895 JUMPI PUSH2 0x1894 PUSH2 0x1838 JUMP JUMPDEST JUMPDEST SWAP3 SWAP2 POP POP JUMP JUMPDEST PUSH32 0x45524332303A2064656372656173656420616C6C6F77616E63652062656C6F77 PUSH1 0x0 DUP3 ADD MSTORE PUSH32 0x207A65726F000000000000000000000000000000000000000000000000000000 PUSH1 0x20 DUP3 ADD MSTORE POP JUMP JUMPDEST PUSH1 0x0 PUSH2 0x18F7 PUSH1 0x25 DUP4 PUSH2 0x142C JUMP JUMPDEST SWAP2 POP PUSH2 0x1902 DUP3 PUSH2 0x189B JUMP JUMPDEST PUSH1 0x40 DUP3 ADD SWAP1 POP SWAP2 SWAP1 POP JUMP JUMPDEST PUSH1 0x0 PUSH1 0x20 DUP3 ADD SWAP1 POP DUP2 DUP2 SUB PUSH1 0x0 DUP4 ADD MSTORE PUSH2 0x1926 DUP2 PUSH2 0x18EA JUMP JUMPDEST SWAP1 POP SWAP2 SWAP1 POP JUMP JUMPDEST PUSH32 0x4F776E61626C653A206E6577206F776E657220697320746865207A65726F2061 PUSH1 0x0 DUP3 ADD MSTORE PUSH32 0x6464726573730000000000000000000000000000000000000000000000000000 PUSH1 0x20 DUP3 ADD MSTORE POP JUMP JUMPDEST PUSH1 0x0 PUSH2 0x1989 PUSH1 0x26 DUP4 PUSH2 0x142C JUMP JUMPDEST SWAP2 POP PUSH2 0x1994 DUP3 PUSH2 0x192D JUMP JUMPDEST PUSH1 0x40 DUP3 ADD SWAP1 POP SWAP2 SWAP1 POP JUMP JUMPDEST PUSH1 0x0 PUSH1 0x20 DUP3 ADD SWAP1 POP DUP2 DUP2 SUB PUSH1 0x0 DUP4 ADD MSTORE PUSH2 0x19B8 DUP2 PUSH2 0x197C JUMP JUMPDEST SWAP1 POP SWAP2 SWAP1 POP JUMP JUMPDEST PUSH32 0x45524332303A20617070726F76652066726F6D20746865207A65726F20616464 PUSH1 0x0 DUP3 ADD MSTORE PUSH32 0x7265737300000000000000000000000000000000000000000000000000000000 PUSH1 0x20 DUP3 ADD MSTORE POP JUMP JUMPDEST PUSH1 0x0 PUSH2 0x1A1B PUSH1 0x24 DUP4 PUSH2 0x142C JUMP JUMPDEST SWAP2 POP PUSH2 0x1A26 DUP3 PUSH2 0x19BF JUMP JUMPDEST PUSH1 0x40 DUP3 ADD SWAP1 POP SWAP2 SWAP1 POP JUMP JUMPDEST PUSH1 0x0 PUSH1 0x20 DUP3 ADD SWAP1 POP DUP2 DUP2 SUB PUSH1 0x0 DUP4 ADD MSTORE PUSH2 0x1A4A DUP2 PUSH2 0x1A0E JUMP JUMPDEST SWAP1 POP SWAP2 SWAP1 POP JUMP JUMPDEST PUSH32 0x45524332303A20617070726F766520746F20746865207A65726F206164647265 PUSH1 0x0 DUP3 ADD MSTORE PUSH32 0x7373000000000000000000000000000000000000000000000000000000000000 PUSH1 0x20 DUP3 ADD MSTORE POP JUMP JUMPDEST PUSH1 0x0 PUSH2 0x1AAD PUSH1 0x22 DUP4 PUSH2 0x142C JUMP JUMPDEST SWAP2 POP PUSH2 0x1AB8 DUP3 PUSH2 0x1A51 JUMP JUMPDEST PUSH1 0x40 DUP3 ADD SWAP1 POP SWAP2 SWAP1 POP JUMP JUMPDEST PUSH1 0x0 PUSH1 0x20 DUP3 ADD SWAP1 POP DUP2 DUP2 SUB PUSH1 0x0 DUP4 ADD MSTORE PUSH2 0x1ADC DUP2 PUSH2 0x1AA0 JUMP JUMPDEST SWAP1 POP SWAP2 SWAP1 POP JUMP JUMPDEST PUSH32 0x45524332303A20696E73756666696369656E7420616C6C6F77616E6365000000 PUSH1 0x0 DUP3 ADD MSTORE POP JUMP JUMPDEST PUSH1 0x0 PUSH2 0x1B19 PUSH1 0x1D DUP4 PUSH2 0x142C JUMP JUMPDEST SWAP2 POP PUSH2 0x1B24 DUP3 PUSH2 0x1AE3 JUMP JUMPDEST PUSH1 0x20 DUP3 ADD SWAP1 POP SWAP2 SWAP1 POP JUMP JUMPDEST PUSH1 0x0 PUSH1 0x20 DUP3 ADD SWAP1 POP DUP2 DUP2 SUB PUSH1 0x0 DUP4 ADD MSTORE PUSH2 0x1B48 DUP2 PUSH2 0x1B0C JUMP JUMPDEST SWAP1 POP SWAP2 SWAP1 POP JUMP JUMPDEST PUSH32 0x45524332303A207472616E736665722066726F6D20746865207A65726F206164 PUSH1 0x0 DUP3 ADD MSTORE PUSH32 0x6472657373000000000000000000000000000000000000000000000000000000 PUSH1 0x20 DUP3 ADD MSTORE POP JUMP JUMPDEST PUSH1 0x0 PUSH2 0x1BAB PUSH1 0x25 DUP4 PUSH2 0x142C JUMP JUMPDEST SWAP2 POP PUSH2 0x1BB6 DUP3 PUSH2 0x1B4F JUMP JUMPDEST PUSH1 0x40 DUP3 ADD SWAP1 POP SWAP2 SWAP1 POP JUMP JUMPDEST PUSH1 0x0 PUSH1 0x20 DUP3 ADD SWAP1 POP DUP2 DUP2 SUB PUSH1 0x0 DUP4 ADD MSTORE PUSH2 0x1BDA DUP2 PUSH2 0x1B9E JUMP JUMPDEST SWAP1 POP SWAP2 SWAP1 POP JUMP JUMPDEST PUSH32 0x45524332303A207472616E7366657220746F20746865207A65726F2061646472 PUSH1 0x0 DUP3 ADD MSTORE PUSH32 0x6573730000000000000000000000000000000000000000000000000000000000 PUSH1 0x20 DUP3 ADD MSTORE POP JUMP JUMPDEST PUSH1 0x0 PUSH2 0x1C3D PUSH1 0x23 DUP4 PUSH2 0x142C JUMP JUMPDEST SWAP2 POP PUSH2 0x1C48 DUP3 PUSH2 0x1BE1 JUMP JUMPDEST PUSH1 0x40 DUP3 ADD SWAP1 POP SWAP2 SWAP1 POP JUMP JUMPDEST PUSH1 0x0 PUSH1 0x20 DUP3 ADD SWAP1 POP DUP2 DUP2 SUB PUSH1 0x0 DUP4 ADD MSTORE PUSH2 0x1C6C DUP2 PUSH2 0x1C30 JUMP JUMPDEST SWAP1 POP SWAP2 SWAP1 POP JUMP JUMPDEST PUSH32 0x45524332303A207472616E7366657220616D6F756E7420657863656564732062 PUSH1 0x0 DUP3 ADD MSTORE PUSH32 0x616C616E63650000000000000000000000000000000000000000000000000000 PUSH1 0x20 DUP3 ADD MSTORE POP JUMP JUMPDEST PUSH1 0x0 PUSH2 0x1CCF PUSH1 0x26 DUP4 PUSH2 0x142C JUMP JUMPDEST SWAP2 POP PUSH2 0x1CDA DUP3 PUSH2 0x1C73 JUMP JUMPDEST PUSH1 0x40 DUP3 ADD SWAP1 POP SWAP2 SWAP1 POP JUMP JUMPDEST PUSH1 0x0 PUSH1 0x20 DUP3 ADD SWAP1 POP DUP2 DUP2 SUB PUSH1 0x0 DUP4 ADD MSTORE PUSH2 0x1CFE DUP2 PUSH2 0x1CC2 JUMP JUMPDEST SWAP1 POP SWAP2 SWAP1 POP JUMP JUMPDEST PUSH32 0x4F776E61626C653A2063616C6C6572206973206E6F7420746865206F776E6572 PUSH1 0x0 DUP3 ADD MSTORE POP JUMP JUMPDEST PUSH1 0x0 PUSH2 0x1D3B PUSH1 0x20 DUP4 PUSH2 0x142C JUMP JUMPDEST SWAP2 POP PUSH2 0x1D46 DUP3 PUSH2 0x1D05 JUMP JUMPDEST PUSH1 0x20 DUP3 ADD SWAP1 POP SWAP2 SWAP1 POP JUMP JUMPDEST PUSH1 0x0 PUSH1 0x20 DUP3 ADD SWAP1 POP DUP2 DUP2 SUB PUSH1 0x0 DUP4 ADD MSTORE PUSH2 0x1D6A DUP2 PUSH2 0x1D2E JUMP JUMPDEST SWAP1 POP SWAP2 SWAP1 POP JUMP JUMPDEST PUSH32 0x45524332303A206275726E2066726F6D20746865207A65726F20616464726573 PUSH1 0x0 DUP3 ADD MSTORE PUSH32 0x7300000000000000000000000000000000000000000000000000000000000000 PUSH1 0x20 DUP3 ADD MSTORE POP JUMP JUMPDEST PUSH1 0x0 PUSH2 0x1DCD PUSH1 0x21 DUP4 PUSH2 0x142C JUMP JUMPDEST SWAP2 POP PUSH2 0x1DD8 DUP3 PUSH2 0x1D71 JUMP JUMPDEST PUSH1 0x40 DUP3 ADD SWAP1 POP SWAP2 SWAP1 POP JUMP JUMPDEST PUSH1 0x0 PUSH1 0x20 DUP3 ADD SWAP1 POP DUP2 DUP2 SUB PUSH1 0x0 DUP4 ADD MSTORE PUSH2 0x1DFC DUP2 PUSH2 0x1DC0 JUMP JUMPDEST SWAP1 POP SWAP2 SWAP1 POP JUMP JUMPDEST PUSH32 0x45524332303A206275726E20616D6F756E7420657863656564732062616C616E PUSH1 0x0 DUP3 ADD MSTORE PUSH32 0x6365000000000000000000000000000000000000000000000000000000000000 PUSH1 0x20 DUP3 ADD MSTORE POP JUMP JUMPDEST PUSH1 0x0 PUSH2 0x1E5F PUSH1 0x22 DUP4 PUSH2 0x142C JUMP JUMPDEST SWAP2 POP PUSH2 0x1E6A DUP3 PUSH2 0x1E03 JUMP JUMPDEST PUSH1 0x40 DUP3 ADD SWAP1 POP SWAP2 SWAP1 POP JUMP JUMPDEST PUSH1 0x0 PUSH1 0x20 DUP3 ADD SWAP1 POP DUP2 DUP2 SUB PUSH1 0x0 DUP4 ADD MSTORE PUSH2 0x1E8E DUP2 PUSH2 0x1E52 JUMP JUMPDEST SWAP1 POP SWAP2 SWAP1 POP JUMP JUMPDEST PUSH32 0x5061757361626C653A206E6F7420706175736564000000000000000000000000 PUSH1 0x0 DUP3 ADD MSTORE POP JUMP JUMPDEST PUSH1 0x0 PUSH2 0x1ECB PUSH1 0x14 DUP4 PUSH2 0x142C JUMP JUMPDEST SWAP2 POP PUSH2 0x1ED6 DUP3 PUSH2 0x1E95 JUMP JUMPDEST PUSH1 0x20 DUP3 ADD SWAP1 POP SWAP2 SWAP1 POP JUMP JUMPDEST PUSH1 0x0 PUSH1 0x20 DUP3 ADD SWAP1 POP DUP2 DUP2 SUB PUSH1 0x0 DUP4 ADD MSTORE PUSH2 0x1EFA DUP2 PUSH2 0x1EBE JUMP JUMPDEST SWAP1 POP SWAP2 SWAP1 POP JUMP JUMPDEST PUSH32 0x5061757361626C653A2070617573656400000000000000000000000000000000 PUSH1 0x0 DUP3 ADD MSTORE POP JUMP JUMPDEST PUSH1 0x0 PUSH2 0x1F37 PUSH1 0x10 DUP4 PUSH2 0x142C JUMP JUMPDEST SWAP2 POP PUSH2 0x1F42 DUP3 PUSH2 0x1F01 JUMP JUMPDEST PUSH1 0x20 DUP3 ADD SWAP1 POP SWAP2 SWAP1 POP JUMP JUMPDEST PUSH1 0x0 PUSH1 0x20 DUP3 ADD SWAP1 POP DUP2 DUP2 SUB PUSH1 0x0 DUP4 ADD MSTORE PUSH2 0x1F66 DUP2 PUSH2 0x1F2A JUMP JUMPDEST SWAP1 POP SWAP2 SWAP1 POP JUMP INVALID LOG2 PUSH5 0x6970667358 0x22 SLT KECCAK256 0x4F 0xD 0xC5 DUP4 0xF6 0xCA RETURN SIGNEXTEND SGT SWAP3 DELEGATECALL ADD PUSH29 0x8541D712F964E53067D18D142935A782462AA664736F6C634300081100 CALLER "
				},
				"gasEstimates": {
					"creation": {
						"codeDepositCost": "1619800",
						"executionCost": "infinite",
						"totalCost": "infinite"
					},
					"external": {
						"allowance(address,address)": "infinite",
						"approve(address,uint256)": "infinite",
						"balanceOf()": "362",
						"balanceOf(address)": "2952",
						"balanceOf1()": "429",
						"burn(uint256)": "infinite",
						"burnFrom(address,uint256)": "infinite",
						"decimals()": "477",
						"decreaseAllowance(address,uint256)": "infinite",
						"helloWorld()": "infinite",
						"increaseAllowance(address,uint256)": "infinite",
						"invest()": "infinite",
						"name()": "infinite",
						"owner()": "2661",
						"pause()": "infinite",
						"paused()": "2568",
						"renounceOwnership()": "30681",
						"sendEther(address,uint256)": "infinite",
						"symbol()": "infinite",
						"totalSupply()": "2505",
						"transfer(address,uint256)": "infinite",
						"transferFrom(address,address,uint256)": "infinite",
						"transferOwnership(address)": "31026",
						"unpause()": "infinite"
					},
					"internal": {
						"_beforeTokenTransfer(address,address,uint256)": "infinite"
					}
				},
				"methodIdentifiers": {
					"allowance(address,address)": "dd62ed3e",
					"approve(address,uint256)": "095ea7b3",
					"balanceOf()": "722713f7",
					"balanceOf(address)": "70a08231",
					"balanceOf1()": "1bb2cb1f",
					"burn(uint256)": "42966c68",
					"burnFrom(address,uint256)": "79cc6790",
					"decimals()": "313ce567",
					"decreaseAllowance(address,uint256)": "a457c2d7",
					"helloWorld()": "c605f76c",
					"increaseAllowance(address,uint256)": "39509351",
					"invest()": "e8b5e51f",
					"name()": "06fdde03",
					"owner()": "8da5cb5b",
					"pause()": "8456cb59",
					"paused()": "5c975abb",
					"renounceOwnership()": "715018a6",
					"sendEther(address,uint256)": "c1756a2c",
					"symbol()": "95d89b41",
					"totalSupply()": "18160ddd",
					"transfer(address,uint256)": "a9059cbb",
					"transferFrom(address,address,uint256)": "23b872dd",
					"transferOwnership(address)": "f2fde38b",
					"unpause()": "3f4ba83a"
				}
			},
			"storageLayout": {
				"storage": [
					{
						"astId": 347,
						"contract": "SampleContract_flat.sol:SampleContract",
						"label": "_balances",
						"offset": 0,
						"slot": "0",
						"type": "t_mapping(t_address,t_uint256)"
					},
					{
						"astId": 353,
						"contract": "SampleContract_flat.sol:SampleContract",
						"label": "_allowances",
						"offset": 0,
						"slot": "1",
						"type": "t_mapping(t_address,t_mapping(t_address,t_uint256))"
					},
					{
						"astId": 355,
						"contract": "SampleContract_flat.sol:SampleContract",
						"label": "_totalSupply",
						"offset": 0,
						"slot": "2",
						"type": "t_uint256"
					},
					{
						"astId": 357,
						"contract": "SampleContract_flat.sol:SampleContract",
						"label": "_name",
						"offset": 0,
						"slot": "3",
						"type": "t_string_storage"
					},
					{
						"astId": 359,
						"contract": "SampleContract_flat.sol:SampleContract",
						"label": "_symbol",
						"offset": 0,
						"slot": "4",
						"type": "t_string_storage"
					},
					{
						"astId": 145,
						"contract": "SampleContract_flat.sol:SampleContract",
						"label": "_paused",
						"offset": 0,
						"slot": "5",
						"type": "t_bool"
					},
					{
						"astId": 25,
						"contract": "SampleContract_flat.sol:SampleContract",
						"label": "_owner",
						"offset": 1,
						"slot": "5",
						"type": "t_address"
					},
					{
						"astId": 980,
						"contract": "SampleContract_flat.sol:SampleContract",
						"label": "balances",
						"offset": 0,
						"slot": "6",
						"type": "t_mapping(t_address,t_uint256)"
					},
					{
						"astId": 983,
						"contract": "SampleContract_flat.sol:SampleContract",
						"label": "recipients",
						"offset": 0,
						"slot": "7",
						"type": "t_array(t_address_payable)dyn_storage"
					}
				],
				"types": {
					"t_address": {
						"encoding": "inplace",
						"label": "address",
						"numberOfBytes": "20"
					},
					"t_address_payable": {
						"encoding": "inplace",
						"label": "address payable",
						"numberOfBytes": "20"
					},
					"t_array(t_address_payable)dyn_storage": {
						"base": "t_address_payable",
						"encoding": "dynamic_array",
						"label": "address payable[]",
						"numberOfBytes": "32"
					},
					"t_bool": {
						"encoding": "inplace",
						"label": "bool",
						"numberOfBytes": "1"
					},
					"t_mapping(t_address,t_mapping(t_address,t_uint256))": {
						"encoding": "mapping",
						"key": "t_address",
						"label": "mapping(address => mapping(address => uint256))",
						"numberOfBytes": "32",
						"value": "t_mapping(t_address,t_uint256)"
					},
					"t_mapping(t_address,t_uint256)": {
						"encoding": "mapping",
						"key": "t_address",
						"label": "mapping(address => uint256)",
						"numberOfBytes": "32",
						"value": "t_uint256"
					},
					"t_string_storage": {
						"encoding": "bytes",
						"label": "string",
						"numberOfBytes": "32"
					},
					"t_uint256": {
						"encoding": "inplace",
						"label": "uint256",
						"numberOfBytes": "32"
					}
				}
			},
			"userdoc": {
				"kind": "user",
				"methods": {},
				"version": 1
			}
		}
	}
}