{
	"DoubleMyContract_flat.sol": {
		"DoubleMyContract": {
			"abi": [
				{
					"inputs": [],
					"name": "balance",
					"outputs": [
						{
							"internalType": "uint256",
							"name": "",
							"type": "uint256"
						}
					],
					"stateMutability": "view",
					"type": "function"
				},
				{
					"inputs": [],
					"name": "balance1",
					"outputs": [
						{
							"internalType": "uint256",
							"name": "",
							"type": "uint256"
						}
					],
					"stateMutability": "view",
					"type": "function"
				},
				{
					"inputs": [
						{
							"internalType": "uint256",
							"name": "_amount",
							"type": "uint256"
						}
					],
					"name": "doubleMyContract",
					"outputs": [],
					"stateMutability": "nonpayable",
					"type": "function"
				},
				{
					"inputs": [],
					"name": "sendMeMoneyContract",
					"outputs": [],
					"stateMutability": "payable",
					"type": "function"
				}
			],
			"devdoc": {
				"kind": "dev",
				"methods": {},
				"version": 1
			},
			"evm": {
				"assembly": "    /* \"DoubleMyContract_flat.sol\":83:477  contract DoubleMyContract {\r... */\n  mstore(0x40, 0x80)\n  callvalue\n  dup1\n  iszero\n  tag_1\n  jumpi\n  0x00\n  dup1\n  revert\ntag_1:\n  pop\n  dataSize(sub_0)\n  dup1\n  dataOffset(sub_0)\n  0x00\n  codecopy\n  0x00\n  return\nstop\n\nsub_0: assembly {\n        /* \"DoubleMyContract_flat.sol\":83:477  contract DoubleMyContract {\r... */\n      mstore(0x40, 0x80)\n      jumpi(tag_1, lt(calldatasize, 0x04))\n      shr(0xe0, calldataload(0x00))\n      dup1\n      0x1b19f14e\n      eq\n      tag_2\n      jumpi\n      dup1\n      0xb69ef8a8\n      eq\n      tag_3\n      jumpi\n      dup1\n      0xc45c4f58\n      eq\n      tag_4\n      jumpi\n      dup1\n      0xecc41627\n      eq\n      tag_5\n      jumpi\n    tag_1:\n      0x00\n      dup1\n      revert\n        /* \"DoubleMyContract_flat.sol\":257:372  function doubleMyContract(uint256 _amount) public {\r... */\n    tag_2:\n      callvalue\n      dup1\n      iszero\n      tag_6\n      jumpi\n      0x00\n      dup1\n      revert\n    tag_6:\n      pop\n      tag_7\n      0x04\n      dup1\n      calldatasize\n      sub\n      dup2\n      add\n      swap1\n      tag_8\n      swap2\n      swap1\n      tag_9\n      jump\t// in\n    tag_8:\n      tag_10\n      jump\t// in\n    tag_7:\n      stop\n        /* \"DoubleMyContract_flat.sol\":116:138  uint256 public balance */\n    tag_3:\n      callvalue\n      dup1\n      iszero\n      tag_11\n      jumpi\n      0x00\n      dup1\n      revert\n    tag_11:\n      pop\n      tag_12\n      tag_13\n      jump\t// in\n    tag_12:\n      mload(0x40)\n      tag_14\n      swap2\n      swap1\n      tag_15\n      jump\t// in\n    tag_14:\n      mload(0x40)\n      dup1\n      swap2\n      sub\n      swap1\n      return\n        /* \"DoubleMyContract_flat.sol\":162:185  uint256 public balance1 */\n    tag_4:\n      callvalue\n      dup1\n      iszero\n      tag_16\n      jumpi\n      0x00\n      dup1\n      revert\n    tag_16:\n      pop\n      tag_17\n      tag_18\n      jump\t// in\n    tag_17:\n      mload(0x40)\n      tag_19\n      swap2\n      swap1\n      tag_15\n      jump\t// in\n    tag_19:\n      mload(0x40)\n      dup1\n      swap2\n      sub\n      swap1\n      return\n        /* \"DoubleMyContract_flat.sol\":426:474  function sendMeMoneyContract() public payable {} */\n    tag_5:\n      tag_20\n      tag_21\n      jump\t// in\n    tag_20:\n      stop\n        /* \"DoubleMyContract_flat.sol\":257:372  function doubleMyContract(uint256 _amount) public {\r... */\n    tag_10:\n        /* \"DoubleMyContract_flat.sol\":338:339  3 */\n      0x03\n        /* \"DoubleMyContract_flat.sol\":328:335  _amount */\n      dup2\n        /* \"DoubleMyContract_flat.sol\":328:339  _amount * 3 */\n      tag_23\n      swap2\n      swap1\n      tag_24\n      jump\t// in\n    tag_23:\n        /* \"DoubleMyContract_flat.sol\":318:325  balance */\n      0x00\n        /* \"DoubleMyContract_flat.sol\":318:339  balance = _amount * 3 */\n      dup2\n      swap1\n      sstore\n      pop\n        /* \"DoubleMyContract_flat.sol\":362:364  50 */\n      0x32\n        /* \"DoubleMyContract_flat.sol\":350:358  balance1 */\n      0x01\n      0x00\n        /* \"DoubleMyContract_flat.sol\":350:364  balance1 += 50 */\n      dup3\n      dup3\n      sload\n      tag_25\n      swap2\n      swap1\n      tag_26\n      jump\t// in\n    tag_25:\n      swap3\n      pop\n      pop\n      dup2\n      swap1\n      sstore\n      pop\n        /* \"DoubleMyContract_flat.sol\":257:372  function doubleMyContract(uint256 _amount) public {\r... */\n      pop\n      jump\t// out\n        /* \"DoubleMyContract_flat.sol\":116:138  uint256 public balance */\n    tag_13:\n      sload(0x00)\n      dup2\n      jump\t// out\n        /* \"DoubleMyContract_flat.sol\":162:185  uint256 public balance1 */\n    tag_18:\n      sload(0x01)\n      dup2\n      jump\t// out\n        /* \"DoubleMyContract_flat.sol\":426:474  function sendMeMoneyContract() public payable {} */\n    tag_21:\n      jump\t// out\n        /* \"#utility.yul\":7:146   */\n    tag_29:\n        /* \"#utility.yul\":53:58   */\n      0x00\n        /* \"#utility.yul\":91:97   */\n      dup2\n        /* \"#utility.yul\":78:98   */\n      calldataload\n        /* \"#utility.yul\":69:98   */\n      swap1\n      pop\n        /* \"#utility.yul\":107:140   */\n      tag_31\n        /* \"#utility.yul\":134:139   */\n      dup2\n        /* \"#utility.yul\":107:140   */\n      tag_32\n      jump\t// in\n    tag_31:\n        /* \"#utility.yul\":7:146   */\n      swap3\n      swap2\n      pop\n      pop\n      jump\t// out\n        /* \"#utility.yul\":152:481   */\n    tag_9:\n        /* \"#utility.yul\":211:217   */\n      0x00\n        /* \"#utility.yul\":260:262   */\n      0x20\n        /* \"#utility.yul\":248:257   */\n      dup3\n        /* \"#utility.yul\":239:246   */\n      dup5\n        /* \"#utility.yul\":235:258   */\n      sub\n        /* \"#utility.yul\":231:263   */\n      slt\n        /* \"#utility.yul\":228:347   */\n      iszero\n      tag_34\n      jumpi\n        /* \"#utility.yul\":266:345   */\n      tag_35\n      tag_36\n      jump\t// in\n    tag_35:\n        /* \"#utility.yul\":228:347   */\n    tag_34:\n        /* \"#utility.yul\":386:387   */\n      0x00\n        /* \"#utility.yul\":411:464   */\n      tag_37\n        /* \"#utility.yul\":456:463   */\n      dup5\n        /* \"#utility.yul\":447:453   */\n      dup3\n        /* \"#utility.yul\":436:445   */\n      dup6\n        /* \"#utility.yul\":432:454   */\n      add\n        /* \"#utility.yul\":411:464   */\n      tag_29\n      jump\t// in\n    tag_37:\n        /* \"#utility.yul\":401:464   */\n      swap2\n      pop\n        /* \"#utility.yul\":357:474   */\n      pop\n        /* \"#utility.yul\":152:481   */\n      swap3\n      swap2\n      pop\n      pop\n      jump\t// out\n        /* \"#utility.yul\":487:605   */\n    tag_38:\n        /* \"#utility.yul\":574:598   */\n      tag_40\n        /* \"#utility.yul\":592:597   */\n      dup2\n        /* \"#utility.yul\":574:598   */\n      tag_41\n      jump\t// in\n    tag_40:\n        /* \"#utility.yul\":569:572   */\n      dup3\n        /* \"#utility.yul\":562:599   */\n      mstore\n        /* \"#utility.yul\":487:605   */\n      pop\n      pop\n      jump\t// out\n        /* \"#utility.yul\":611:833   */\n    tag_15:\n        /* \"#utility.yul\":704:708   */\n      0x00\n        /* \"#utility.yul\":742:744   */\n      0x20\n        /* \"#utility.yul\":731:740   */\n      dup3\n        /* \"#utility.yul\":727:745   */\n      add\n        /* \"#utility.yul\":719:745   */\n      swap1\n      pop\n        /* \"#utility.yul\":755:826   */\n      tag_43\n        /* \"#utility.yul\":823:824   */\n      0x00\n        /* \"#utility.yul\":812:821   */\n      dup4\n        /* \"#utility.yul\":808:825   */\n      add\n        /* \"#utility.yul\":799:805   */\n      dup5\n        /* \"#utility.yul\":755:826   */\n      tag_38\n      jump\t// in\n    tag_43:\n        /* \"#utility.yul\":611:833   */\n      swap3\n      swap2\n      pop\n      pop\n      jump\t// out\n        /* \"#utility.yul\":920:1225   */\n    tag_26:\n        /* \"#utility.yul\":960:963   */\n      0x00\n        /* \"#utility.yul\":979:999   */\n      tag_47\n        /* \"#utility.yul\":997:998   */\n      dup3\n        /* \"#utility.yul\":979:999   */\n      tag_41\n      jump\t// in\n    tag_47:\n        /* \"#utility.yul\":974:999   */\n      swap2\n      pop\n        /* \"#utility.yul\":1013:1033   */\n      tag_48\n        /* \"#utility.yul\":1031:1032   */\n      dup4\n        /* \"#utility.yul\":1013:1033   */\n      tag_41\n      jump\t// in\n    tag_48:\n        /* \"#utility.yul\":1008:1033   */\n      swap3\n      pop\n        /* \"#utility.yul\":1167:1168   */\n      dup3\n        /* \"#utility.yul\":1099:1165   */\n      0xffffffffffffffffffffffffffffffffffffffffffffffffffffffffffffffff\n        /* \"#utility.yul\":1095:1169   */\n      sub\n        /* \"#utility.yul\":1092:1093   */\n      dup3\n        /* \"#utility.yul\":1089:1170   */\n      gt\n        /* \"#utility.yul\":1086:1193   */\n      iszero\n      tag_49\n      jumpi\n        /* \"#utility.yul\":1173:1191   */\n      tag_50\n      tag_51\n      jump\t// in\n    tag_50:\n        /* \"#utility.yul\":1086:1193   */\n    tag_49:\n        /* \"#utility.yul\":1217:1218   */\n      dup3\n        /* \"#utility.yul\":1214:1215   */\n      dup3\n        /* \"#utility.yul\":1210:1219   */\n      add\n        /* \"#utility.yul\":1203:1219   */\n      swap1\n      pop\n        /* \"#utility.yul\":920:1225   */\n      swap3\n      swap2\n      pop\n      pop\n      jump\t// out\n        /* \"#utility.yul\":1231:1579   */\n    tag_24:\n        /* \"#utility.yul\":1271:1278   */\n      0x00\n        /* \"#utility.yul\":1294:1314   */\n      tag_53\n        /* \"#utility.yul\":1312:1313   */\n      dup3\n        /* \"#utility.yul\":1294:1314   */\n      tag_41\n      jump\t// in\n    tag_53:\n        /* \"#utility.yul\":1289:1314   */\n      swap2\n      pop\n        /* \"#utility.yul\":1328:1348   */\n      tag_54\n        /* \"#utility.yul\":1346:1347   */\n      dup4\n        /* \"#utility.yul\":1328:1348   */\n      tag_41\n      jump\t// in\n    tag_54:\n        /* \"#utility.yul\":1323:1348   */\n      swap3\n      pop\n        /* \"#utility.yul\":1516:1517   */\n      dup2\n        /* \"#utility.yul\":1448:1514   */\n      0xffffffffffffffffffffffffffffffffffffffffffffffffffffffffffffffff\n        /* \"#utility.yul\":1444:1518   */\n      div\n        /* \"#utility.yul\":1441:1442   */\n      dup4\n        /* \"#utility.yul\":1438:1519   */\n      gt\n        /* \"#utility.yul\":1433:1434   */\n      dup3\n        /* \"#utility.yul\":1426:1435   */\n      iszero\n        /* \"#utility.yul\":1419:1436   */\n      iszero\n        /* \"#utility.yul\":1415:1520   */\n      and\n        /* \"#utility.yul\":1412:1543   */\n      iszero\n      tag_55\n      jumpi\n        /* \"#utility.yul\":1523:1541   */\n      tag_56\n      tag_51\n      jump\t// in\n    tag_56:\n        /* \"#utility.yul\":1412:1543   */\n    tag_55:\n        /* \"#utility.yul\":1571:1572   */\n      dup3\n        /* \"#utility.yul\":1568:1569   */\n      dup3\n        /* \"#utility.yul\":1564:1573   */\n      mul\n        /* \"#utility.yul\":1553:1573   */\n      swap1\n      pop\n        /* \"#utility.yul\":1231:1579   */\n      swap3\n      swap2\n      pop\n      pop\n      jump\t// out\n        /* \"#utility.yul\":1585:1662   */\n    tag_41:\n        /* \"#utility.yul\":1622:1629   */\n      0x00\n        /* \"#utility.yul\":1651:1656   */\n      dup2\n        /* \"#utility.yul\":1640:1656   */\n      swap1\n      pop\n        /* \"#utility.yul\":1585:1662   */\n      swap2\n      swap1\n      pop\n      jump\t// out\n        /* \"#utility.yul\":1668:1848   */\n    tag_51:\n        /* \"#utility.yul\":1716:1793   */\n      0x4e487b7100000000000000000000000000000000000000000000000000000000\n        /* \"#utility.yul\":1713:1714   */\n      0x00\n        /* \"#utility.yul\":1706:1794   */\n      mstore\n        /* \"#utility.yul\":1813:1817   */\n      0x11\n        /* \"#utility.yul\":1810:1811   */\n      0x04\n        /* \"#utility.yul\":1803:1818   */\n      mstore\n        /* \"#utility.yul\":1837:1841   */\n      0x24\n        /* \"#utility.yul\":1834:1835   */\n      0x00\n        /* \"#utility.yul\":1827:1842   */\n      revert\n        /* \"#utility.yul\":1977:2094   */\n    tag_36:\n        /* \"#utility.yul\":2086:2087   */\n      0x00\n        /* \"#utility.yul\":2083:2084   */\n      dup1\n        /* \"#utility.yul\":2076:2088   */\n      revert\n        /* \"#utility.yul\":2100:2222   */\n    tag_32:\n        /* \"#utility.yul\":2173:2197   */\n      tag_63\n        /* \"#utility.yul\":2191:2196   */\n      dup2\n        /* \"#utility.yul\":2173:2197   */\n      tag_41\n      jump\t// in\n    tag_63:\n        /* \"#utility.yul\":2166:2171   */\n      dup2\n        /* \"#utility.yul\":2163:2198   */\n      eq\n        /* \"#utility.yul\":2153:2216   */\n      tag_64\n      jumpi\n        /* \"#utility.yul\":2212:2213   */\n      0x00\n        /* \"#utility.yul\":2209:2210   */\n      dup1\n        /* \"#utility.yul\":2202:2214   */\n      revert\n        /* \"#utility.yul\":2153:2216   */\n    tag_64:\n        /* \"#utility.yul\":2100:2222   */\n      pop\n      jump\t// out\n\n    auxdata: 0xa26469706673582212209b0a3100071ccbd7401ada6733fe4d1b42b9bfe2957b39a0449548ecde5ef21064736f6c63430008070033\n}\n",
				"bytecode": {
					"linkReferences": {},
					"object": "608060405234801561001057600080fd5b506102b2806100206000396000f3fe60806040526004361061003f5760003560e01c80631b19f14e14610044578063b69ef8a81461006d578063c45c4f5814610098578063ecc41627146100c3575b600080fd5b34801561005057600080fd5b5061006b60048036038101906100669190610120565b6100cd565b005b34801561007957600080fd5b506100826100fd565b60405161008f919061015c565b60405180910390f35b3480156100a457600080fd5b506100ad610103565b6040516100ba919061015c565b60405180910390f35b6100cb610109565b005b6003816100da91906101cd565b6000819055506032600160008282546100f39190610177565b9250508190555050565b60005481565b60015481565b565b60008135905061011a81610265565b92915050565b60006020828403121561013657610135610260565b5b60006101448482850161010b565b91505092915050565b61015681610227565b82525050565b6000602082019050610171600083018461014d565b92915050565b600061018282610227565b915061018d83610227565b9250827fffffffffffffffffffffffffffffffffffffffffffffffffffffffffffffffff038211156101c2576101c1610231565b5b828201905092915050565b60006101d882610227565b91506101e383610227565b9250817fffffffffffffffffffffffffffffffffffffffffffffffffffffffffffffffff048311821515161561021c5761021b610231565b5b828202905092915050565b6000819050919050565b7f4e487b7100000000000000000000000000000000000000000000000000000000600052601160045260246000fd5b600080fd5b61026e81610227565b811461027957600080fd5b5056fea26469706673582212209b0a3100071ccbd7401ada6733fe4d1b42b9bfe2957b39a0449548ecde5ef21064736f6c63430008070033",
					"opcodes": "PUSH1 0x80 PUSH1 0x40 MSTORE CALLVALUE DUP1 ISZERO PUSH2 0x10 JUMPI PUSH1 0x0 DUP1 REVERT JUMPDEST POP PUSH2 0x2B2 DUP1 PUSH2 0x20 PUSH1 0x0 CODECOPY PUSH1 0x0 RETURN INVALID PUSH1 0x80 PUSH1 0x40 MSTORE PUSH1 0x4 CALLDATASIZE LT PUSH2 0x3F JUMPI PUSH1 0x0 CALLDATALOAD PUSH1 0xE0 SHR DUP1 PUSH4 0x1B19F14E EQ PUSH2 0x44 JUMPI DUP1 PUSH4 0xB69EF8A8 EQ PUSH2 0x6D JUMPI DUP1 PUSH4 0xC45C4F58 EQ PUSH2 0x98 JUMPI DUP1 PUSH4 0xECC41627 EQ PUSH2 0xC3 JUMPI JUMPDEST PUSH1 0x0 DUP1 REVERT JUMPDEST CALLVALUE DUP1 ISZERO PUSH2 0x50 JUMPI PUSH1 0x0 DUP1 REVERT JUMPDEST POP PUSH2 0x6B PUSH1 0x4 DUP1 CALLDATASIZE SUB DUP2 ADD SWAP1 PUSH2 0x66 SWAP2 SWAP1 PUSH2 0x120 JUMP JUMPDEST PUSH2 0xCD JUMP JUMPDEST STOP JUMPDEST CALLVALUE DUP1 ISZERO PUSH2 0x79 JUMPI PUSH1 0x0 DUP1 REVERT JUMPDEST POP PUSH2 0x82 PUSH2 0xFD JUMP JUMPDEST PUSH1 0x40 MLOAD PUSH2 0x8F SWAP2 SWAP1 PUSH2 0x15C JUMP JUMPDEST PUSH1 0x40 MLOAD DUP1 SWAP2 SUB SWAP1 RETURN JUMPDEST CALLVALUE DUP1 ISZERO PUSH2 0xA4 JUMPI PUSH1 0x0 DUP1 REVERT JUMPDEST POP PUSH2 0xAD PUSH2 0x103 JUMP JUMPDEST PUSH1 0x40 MLOAD PUSH2 0xBA SWAP2 SWAP1 PUSH2 0x15C JUMP JUMPDEST PUSH1 0x40 MLOAD DUP1 SWAP2 SUB SWAP1 RETURN JUMPDEST PUSH2 0xCB PUSH2 0x109 JUMP JUMPDEST STOP JUMPDEST PUSH1 0x3 DUP2 PUSH2 0xDA SWAP2 SWAP1 PUSH2 0x1CD JUMP JUMPDEST PUSH1 0x0 DUP2 SWAP1 SSTORE POP PUSH1 0x32 PUSH1 0x1 PUSH1 0x0 DUP3 DUP3 SLOAD PUSH2 0xF3 SWAP2 SWAP1 PUSH2 0x177 JUMP JUMPDEST SWAP3 POP POP DUP2 SWAP1 SSTORE POP POP JUMP JUMPDEST PUSH1 0x0 SLOAD DUP2 JUMP JUMPDEST PUSH1 0x1 SLOAD DUP2 JUMP JUMPDEST JUMP JUMPDEST PUSH1 0x0 DUP2 CALLDATALOAD SWAP1 POP PUSH2 0x11A DUP2 PUSH2 0x265 JUMP JUMPDEST SWAP3 SWAP2 POP POP JUMP JUMPDEST PUSH1 0x0 PUSH1 0x20 DUP3 DUP5 SUB SLT ISZERO PUSH2 0x136 JUMPI PUSH2 0x135 PUSH2 0x260 JUMP JUMPDEST JUMPDEST PUSH1 0x0 PUSH2 0x144 DUP5 DUP3 DUP6 ADD PUSH2 0x10B JUMP JUMPDEST SWAP2 POP POP SWAP3 SWAP2 POP POP JUMP JUMPDEST PUSH2 0x156 DUP2 PUSH2 0x227 JUMP JUMPDEST DUP3 MSTORE POP POP JUMP JUMPDEST PUSH1 0x0 PUSH1 0x20 DUP3 ADD SWAP1 POP PUSH2 0x171 PUSH1 0x0 DUP4 ADD DUP5 PUSH2 0x14D JUMP JUMPDEST SWAP3 SWAP2 POP POP JUMP JUMPDEST PUSH1 0x0 PUSH2 0x182 DUP3 PUSH2 0x227 JUMP JUMPDEST SWAP2 POP PUSH2 0x18D DUP4 PUSH2 0x227 JUMP JUMPDEST SWAP3 POP DUP3 PUSH32 0xFFFFFFFFFFFFFFFFFFFFFFFFFFFFFFFFFFFFFFFFFFFFFFFFFFFFFFFFFFFFFFFF SUB DUP3 GT ISZERO PUSH2 0x1C2 JUMPI PUSH2 0x1C1 PUSH2 0x231 JUMP JUMPDEST JUMPDEST DUP3 DUP3 ADD SWAP1 POP SWAP3 SWAP2 POP POP JUMP JUMPDEST PUSH1 0x0 PUSH2 0x1D8 DUP3 PUSH2 0x227 JUMP JUMPDEST SWAP2 POP PUSH2 0x1E3 DUP4 PUSH2 0x227 JUMP JUMPDEST SWAP3 POP DUP2 PUSH32 0xFFFFFFFFFFFFFFFFFFFFFFFFFFFFFFFFFFFFFFFFFFFFFFFFFFFFFFFFFFFFFFFF DIV DUP4 GT DUP3 ISZERO ISZERO AND ISZERO PUSH2 0x21C JUMPI PUSH2 0x21B PUSH2 0x231 JUMP JUMPDEST JUMPDEST DUP3 DUP3 MUL SWAP1 POP SWAP3 SWAP2 POP POP JUMP JUMPDEST PUSH1 0x0 DUP2 SWAP1 POP SWAP2 SWAP1 POP JUMP JUMPDEST PUSH32 0x4E487B7100000000000000000000000000000000000000000000000000000000 PUSH1 0x0 MSTORE PUSH1 0x11 PUSH1 0x4 MSTORE PUSH1 0x24 PUSH1 0x0 REVERT JUMPDEST PUSH1 0x0 DUP1 REVERT JUMPDEST PUSH2 0x26E DUP2 PUSH2 0x227 JUMP JUMPDEST DUP2 EQ PUSH2 0x279 JUMPI PUSH1 0x0 DUP1 REVERT JUMPDEST POP JUMP INVALID LOG2 PUSH5 0x6970667358 0x22 SLT KECCAK256 SWAP12 EXP BALANCE STOP SMOD SHR 0xCB 0xD7 BLOCKHASH BYTE 0xDA PUSH8 0x33FE4D1B42B9BFE2 SWAP6 PUSH28 0x39A0449548ECDE5EF21064736F6C6343000807003300000000000000 "
				},
				"gasEstimates": {
					"creation": {
						"codeDepositCost": "138000",
						"executionCost": "183",
						"totalCost": "138183"
					},
					"external": {
						"balance()": "2429",
						"balance1()": "2451",
						"doubleMyContract(uint256)": "infinite",
						"sendMeMoneyContract()": "164"
					}
				},
				"methodIdentifiers": {
					"balance()": "b69ef8a8",
					"balance1()": "c45c4f58",
					"doubleMyContract(uint256)": "1b19f14e",
					"sendMeMoneyContract()": "ecc41627"
				}
			},
			"storageLayout": {
				"storage": [
					{
						"astId": 3,
						"contract": "DoubleMyContract_flat.sol:DoubleMyContract",
						"label": "balance",
						"offset": 0,
						"slot": "0",
						"type": "t_uint256"
					},
					{
						"astId": 5,
						"contract": "DoubleMyContract_flat.sol:DoubleMyContract",
						"label": "balance1",
						"offset": 0,
						"slot": "1",
						"type": "t_uint256"
					}
				],
				"types": {
					"t_uint256": {
						"encoding": "inplace",
						"label": "uint256",
						"numberOfBytes": "32"
					}
				}
			},
			"userdoc": {
				"kind": "user",
				"methods": {},
				"version": 1
			}
		}
	}
}