{
	"Documents/GitHub/ZeppelinProject/truffleautoproject5/contracts/DoubleMyContract.sol": {
		"DoubleMyContract": {
			"abi": [
				{
					"inputs": [],
					"name": "balance",
					"outputs": [
						{
							"internalType": "uint256",
							"name": "",
							"type": "uint256"
						}
					],
					"stateMutability": "view",
					"type": "function"
				},
				{
					"inputs": [],
					"name": "balance1",
					"outputs": [
						{
							"internalType": "uint256",
							"name": "",
							"type": "uint256"
						}
					],
					"stateMutability": "view",
					"type": "function"
				},
				{
					"inputs": [
						{
							"internalType": "uint256",
							"name": "_amount",
							"type": "uint256"
						}
					],
					"name": "doubleMyContract",
					"outputs": [],
					"stateMutability": "nonpayable",
					"type": "function"
				},
				{
					"inputs": [],
					"name": "sendMeMoneyContract",
					"outputs": [],
					"stateMutability": "payable",
					"type": "function"
				}
			],
			"devdoc": {
				"kind": "dev",
				"methods": {},
				"version": 1
			},
			"evm": {
				"assembly": "    /* \"Documents/GitHub/ZeppelinProject/truffleautoproject5/contracts/DoubleMyContract.sol\":69:458  contract DoubleMyContract {\r... */\n  mstore(0x40, 0x80)\n  callvalue\n  dup1\n  iszero\n  tag_1\n  jumpi\n  0x00\n  dup1\n  revert\ntag_1:\n  pop\n  dataSize(sub_0)\n  dup1\n  dataOffset(sub_0)\n  0x00\n  codecopy\n  0x00\n  return\nstop\n\nsub_0: assembly {\n        /* \"Documents/GitHub/ZeppelinProject/truffleautoproject5/contracts/DoubleMyContract.sol\":69:458  contract DoubleMyContract {\r... */\n      mstore(0x40, 0x80)\n      jumpi(tag_1, lt(calldatasize, 0x04))\n      shr(0xe0, calldataload(0x00))\n      dup1\n      0x1b19f14e\n      eq\n      tag_2\n      jumpi\n      dup1\n      0xb69ef8a8\n      eq\n      tag_3\n      jumpi\n      dup1\n      0xc45c4f58\n      eq\n      tag_4\n      jumpi\n      dup1\n      0xecc41627\n      eq\n      tag_5\n      jumpi\n    tag_1:\n      0x00\n      dup1\n      revert\n        /* \"Documents/GitHub/ZeppelinProject/truffleautoproject5/contracts/DoubleMyContract.sol\":237:348  function doubleMyContract(uint _amount) public {\r... */\n    tag_2:\n      callvalue\n      dup1\n      iszero\n      tag_6\n      jumpi\n      0x00\n      dup1\n      revert\n    tag_6:\n      pop\n      tag_7\n      0x04\n      dup1\n      calldatasize\n      sub\n      dup2\n      add\n      swap1\n      tag_8\n      swap2\n      swap1\n      tag_9\n      jump\t// in\n    tag_8:\n      tag_10\n      jump\t// in\n    tag_7:\n      stop\n        /* \"Documents/GitHub/ZeppelinProject/truffleautoproject5/contracts/DoubleMyContract.sol\":102:121  uint public balance */\n    tag_3:\n      callvalue\n      dup1\n      iszero\n      tag_11\n      jumpi\n      0x00\n      dup1\n      revert\n    tag_11:\n      pop\n      tag_12\n      tag_13\n      jump\t// in\n    tag_12:\n      mload(0x40)\n      tag_14\n      swap2\n      swap1\n      tag_15\n      jump\t// in\n    tag_14:\n      mload(0x40)\n      dup1\n      swap2\n      sub\n      swap1\n      return\n        /* \"Documents/GitHub/ZeppelinProject/truffleautoproject5/contracts/DoubleMyContract.sol\":145:165  uint public balance1 */\n    tag_4:\n      callvalue\n      dup1\n      iszero\n      tag_16\n      jumpi\n      0x00\n      dup1\n      revert\n    tag_16:\n      pop\n      tag_17\n      tag_18\n      jump\t// in\n    tag_17:\n      mload(0x40)\n      tag_19\n      swap2\n      swap1\n      tag_15\n      jump\t// in\n    tag_19:\n      mload(0x40)\n      dup1\n      swap2\n      sub\n      swap1\n      return\n        /* \"Documents/GitHub/ZeppelinProject/truffleautoproject5/contracts/DoubleMyContract.sol\":400:453  function sendMeMoneyContract() public payable{\r... */\n    tag_5:\n      tag_20\n      tag_21\n      jump\t// in\n    tag_20:\n      stop\n        /* \"Documents/GitHub/ZeppelinProject/truffleautoproject5/contracts/DoubleMyContract.sol\":237:348  function doubleMyContract(uint _amount) public {\r... */\n    tag_10:\n        /* \"Documents/GitHub/ZeppelinProject/truffleautoproject5/contracts/DoubleMyContract.sol\":315:316  3 */\n      0x03\n        /* \"Documents/GitHub/ZeppelinProject/truffleautoproject5/contracts/DoubleMyContract.sol\":305:312  _amount */\n      dup2\n        /* \"Documents/GitHub/ZeppelinProject/truffleautoproject5/contracts/DoubleMyContract.sol\":305:316  _amount * 3 */\n      tag_23\n      swap2\n      swap1\n      tag_24\n      jump\t// in\n    tag_23:\n        /* \"Documents/GitHub/ZeppelinProject/truffleautoproject5/contracts/DoubleMyContract.sol\":295:302  balance */\n      0x00\n        /* \"Documents/GitHub/ZeppelinProject/truffleautoproject5/contracts/DoubleMyContract.sol\":295:316  balance = _amount * 3 */\n      dup2\n      swap1\n      sstore\n      pop\n        /* \"Documents/GitHub/ZeppelinProject/truffleautoproject5/contracts/DoubleMyContract.sol\":338:340  51 */\n      0x33\n        /* \"Documents/GitHub/ZeppelinProject/truffleautoproject5/contracts/DoubleMyContract.sol\":327:335  balance1 */\n      0x01\n        /* \"Documents/GitHub/ZeppelinProject/truffleautoproject5/contracts/DoubleMyContract.sol\":327:340  balance1 = 51 */\n      dup2\n      swap1\n      sstore\n      pop\n        /* \"Documents/GitHub/ZeppelinProject/truffleautoproject5/contracts/DoubleMyContract.sol\":237:348  function doubleMyContract(uint _amount) public {\r... */\n      pop\n      jump\t// out\n        /* \"Documents/GitHub/ZeppelinProject/truffleautoproject5/contracts/DoubleMyContract.sol\":102:121  uint public balance */\n    tag_13:\n      sload(0x00)\n      dup2\n      jump\t// out\n        /* \"Documents/GitHub/ZeppelinProject/truffleautoproject5/contracts/DoubleMyContract.sol\":145:165  uint public balance1 */\n    tag_18:\n      sload(0x01)\n      dup2\n      jump\t// out\n        /* \"Documents/GitHub/ZeppelinProject/truffleautoproject5/contracts/DoubleMyContract.sol\":400:453  function sendMeMoneyContract() public payable{\r... */\n    tag_21:\n      jump\t// out\n        /* \"#utility.yul\":7:146   */\n    tag_27:\n        /* \"#utility.yul\":53:58   */\n      0x00\n        /* \"#utility.yul\":91:97   */\n      dup2\n        /* \"#utility.yul\":78:98   */\n      calldataload\n        /* \"#utility.yul\":69:98   */\n      swap1\n      pop\n        /* \"#utility.yul\":107:140   */\n      tag_29\n        /* \"#utility.yul\":134:139   */\n      dup2\n        /* \"#utility.yul\":107:140   */\n      tag_30\n      jump\t// in\n    tag_29:\n        /* \"#utility.yul\":7:146   */\n      swap3\n      swap2\n      pop\n      pop\n      jump\t// out\n        /* \"#utility.yul\":152:481   */\n    tag_9:\n        /* \"#utility.yul\":211:217   */\n      0x00\n        /* \"#utility.yul\":260:262   */\n      0x20\n        /* \"#utility.yul\":248:257   */\n      dup3\n        /* \"#utility.yul\":239:246   */\n      dup5\n        /* \"#utility.yul\":235:258   */\n      sub\n        /* \"#utility.yul\":231:263   */\n      slt\n        /* \"#utility.yul\":228:347   */\n      iszero\n      tag_32\n      jumpi\n        /* \"#utility.yul\":266:345   */\n      tag_33\n      tag_34\n      jump\t// in\n    tag_33:\n        /* \"#utility.yul\":228:347   */\n    tag_32:\n        /* \"#utility.yul\":386:387   */\n      0x00\n        /* \"#utility.yul\":411:464   */\n      tag_35\n        /* \"#utility.yul\":456:463   */\n      dup5\n        /* \"#utility.yul\":447:453   */\n      dup3\n        /* \"#utility.yul\":436:445   */\n      dup6\n        /* \"#utility.yul\":432:454   */\n      add\n        /* \"#utility.yul\":411:464   */\n      tag_27\n      jump\t// in\n    tag_35:\n        /* \"#utility.yul\":401:464   */\n      swap2\n      pop\n        /* \"#utility.yul\":357:474   */\n      pop\n        /* \"#utility.yul\":152:481   */\n      swap3\n      swap2\n      pop\n      pop\n      jump\t// out\n        /* \"#utility.yul\":487:605   */\n    tag_36:\n        /* \"#utility.yul\":574:598   */\n      tag_38\n        /* \"#utility.yul\":592:597   */\n      dup2\n        /* \"#utility.yul\":574:598   */\n      tag_39\n      jump\t// in\n    tag_38:\n        /* \"#utility.yul\":569:572   */\n      dup3\n        /* \"#utility.yul\":562:599   */\n      mstore\n        /* \"#utility.yul\":487:605   */\n      pop\n      pop\n      jump\t// out\n        /* \"#utility.yul\":611:833   */\n    tag_15:\n        /* \"#utility.yul\":704:708   */\n      0x00\n        /* \"#utility.yul\":742:744   */\n      0x20\n        /* \"#utility.yul\":731:740   */\n      dup3\n        /* \"#utility.yul\":727:745   */\n      add\n        /* \"#utility.yul\":719:745   */\n      swap1\n      pop\n        /* \"#utility.yul\":755:826   */\n      tag_41\n        /* \"#utility.yul\":823:824   */\n      0x00\n        /* \"#utility.yul\":812:821   */\n      dup4\n        /* \"#utility.yul\":808:825   */\n      add\n        /* \"#utility.yul\":799:805   */\n      dup5\n        /* \"#utility.yul\":755:826   */\n      tag_36\n      jump\t// in\n    tag_41:\n        /* \"#utility.yul\":611:833   */\n      swap3\n      swap2\n      pop\n      pop\n      jump\t// out\n        /* \"#utility.yul\":920:1268   */\n    tag_24:\n        /* \"#utility.yul\":960:967   */\n      0x00\n        /* \"#utility.yul\":983:1003   */\n      tag_45\n        /* \"#utility.yul\":1001:1002   */\n      dup3\n        /* \"#utility.yul\":983:1003   */\n      tag_39\n      jump\t// in\n    tag_45:\n        /* \"#utility.yul\":978:1003   */\n      swap2\n      pop\n        /* \"#utility.yul\":1017:1037   */\n      tag_46\n        /* \"#utility.yul\":1035:1036   */\n      dup4\n        /* \"#utility.yul\":1017:1037   */\n      tag_39\n      jump\t// in\n    tag_46:\n        /* \"#utility.yul\":1012:1037   */\n      swap3\n      pop\n        /* \"#utility.yul\":1205:1206   */\n      dup2\n        /* \"#utility.yul\":1137:1203   */\n      0xffffffffffffffffffffffffffffffffffffffffffffffffffffffffffffffff\n        /* \"#utility.yul\":1133:1207   */\n      div\n        /* \"#utility.yul\":1130:1131   */\n      dup4\n        /* \"#utility.yul\":1127:1208   */\n      gt\n        /* \"#utility.yul\":1122:1123   */\n      dup3\n        /* \"#utility.yul\":1115:1124   */\n      iszero\n        /* \"#utility.yul\":1108:1125   */\n      iszero\n        /* \"#utility.yul\":1104:1209   */\n      and\n        /* \"#utility.yul\":1101:1232   */\n      iszero\n      tag_47\n      jumpi\n        /* \"#utility.yul\":1212:1230   */\n      tag_48\n      tag_49\n      jump\t// in\n    tag_48:\n        /* \"#utility.yul\":1101:1232   */\n    tag_47:\n        /* \"#utility.yul\":1260:1261   */\n      dup3\n        /* \"#utility.yul\":1257:1258   */\n      dup3\n        /* \"#utility.yul\":1253:1262   */\n      mul\n        /* \"#utility.yul\":1242:1262   */\n      swap1\n      pop\n        /* \"#utility.yul\":920:1268   */\n      swap3\n      swap2\n      pop\n      pop\n      jump\t// out\n        /* \"#utility.yul\":1274:1351   */\n    tag_39:\n        /* \"#utility.yul\":1311:1318   */\n      0x00\n        /* \"#utility.yul\":1340:1345   */\n      dup2\n        /* \"#utility.yul\":1329:1345   */\n      swap1\n      pop\n        /* \"#utility.yul\":1274:1351   */\n      swap2\n      swap1\n      pop\n      jump\t// out\n        /* \"#utility.yul\":1357:1537   */\n    tag_49:\n        /* \"#utility.yul\":1405:1482   */\n      0x4e487b7100000000000000000000000000000000000000000000000000000000\n        /* \"#utility.yul\":1402:1403   */\n      0x00\n        /* \"#utility.yul\":1395:1483   */\n      mstore\n        /* \"#utility.yul\":1502:1506   */\n      0x11\n        /* \"#utility.yul\":1499:1500   */\n      0x04\n        /* \"#utility.yul\":1492:1507   */\n      mstore\n        /* \"#utility.yul\":1526:1530   */\n      0x24\n        /* \"#utility.yul\":1523:1524   */\n      0x00\n        /* \"#utility.yul\":1516:1531   */\n      revert\n        /* \"#utility.yul\":1666:1783   */\n    tag_34:\n        /* \"#utility.yul\":1775:1776   */\n      0x00\n        /* \"#utility.yul\":1772:1773   */\n      dup1\n        /* \"#utility.yul\":1765:1777   */\n      revert\n        /* \"#utility.yul\":1789:1911   */\n    tag_30:\n        /* \"#utility.yul\":1862:1886   */\n      tag_56\n        /* \"#utility.yul\":1880:1885   */\n      dup2\n        /* \"#utility.yul\":1862:1886   */\n      tag_39\n      jump\t// in\n    tag_56:\n        /* \"#utility.yul\":1855:1860   */\n      dup2\n        /* \"#utility.yul\":1852:1887   */\n      eq\n        /* \"#utility.yul\":1842:1905   */\n      tag_57\n      jumpi\n        /* \"#utility.yul\":1901:1902   */\n      0x00\n        /* \"#utility.yul\":1898:1899   */\n      dup1\n        /* \"#utility.yul\":1891:1903   */\n      revert\n        /* \"#utility.yul\":1842:1905   */\n    tag_57:\n        /* \"#utility.yul\":1789:1911   */\n      pop\n      jump\t// out\n\n    auxdata: 0xa26469706673582212204702083b948cbab3d4e2ece85cb795207e4559d1c423f5340ee5342e7324882964736f6c63430008070033\n}\n",
				"bytecode": {
					"linkReferences": {},
					"object": "608060405234801561001057600080fd5b5061024a806100206000396000f3fe60806040526004361061003f5760003560e01c80631b19f14e14610044578063b69ef8a81461006d578063c45c4f5814610098578063ecc41627146100c3575b600080fd5b34801561005057600080fd5b5061006b6004803603810190610066919061010e565b6100cd565b005b34801561007957600080fd5b506100826100eb565b60405161008f919061014a565b60405180910390f35b3480156100a457600080fd5b506100ad6100f1565b6040516100ba919061014a565b60405180910390f35b6100cb6100f7565b005b6003816100da9190610165565b600081905550603360018190555050565b60005481565b60015481565b565b600081359050610108816101fd565b92915050565b600060208284031215610124576101236101f8565b5b6000610132848285016100f9565b91505092915050565b610144816101bf565b82525050565b600060208201905061015f600083018461013b565b92915050565b6000610170826101bf565b915061017b836101bf565b9250817fffffffffffffffffffffffffffffffffffffffffffffffffffffffffffffffff04831182151516156101b4576101b36101c9565b5b828202905092915050565b6000819050919050565b7f4e487b7100000000000000000000000000000000000000000000000000000000600052601160045260246000fd5b600080fd5b610206816101bf565b811461021157600080fd5b5056fea26469706673582212204702083b948cbab3d4e2ece85cb795207e4559d1c423f5340ee5342e7324882964736f6c63430008070033",
					"opcodes": "PUSH1 0x80 PUSH1 0x40 MSTORE CALLVALUE DUP1 ISZERO PUSH2 0x10 JUMPI PUSH1 0x0 DUP1 REVERT JUMPDEST POP PUSH2 0x24A DUP1 PUSH2 0x20 PUSH1 0x0 CODECOPY PUSH1 0x0 RETURN INVALID PUSH1 0x80 PUSH1 0x40 MSTORE PUSH1 0x4 CALLDATASIZE LT PUSH2 0x3F JUMPI PUSH1 0x0 CALLDATALOAD PUSH1 0xE0 SHR DUP1 PUSH4 0x1B19F14E EQ PUSH2 0x44 JUMPI DUP1 PUSH4 0xB69EF8A8 EQ PUSH2 0x6D JUMPI DUP1 PUSH4 0xC45C4F58 EQ PUSH2 0x98 JUMPI DUP1 PUSH4 0xECC41627 EQ PUSH2 0xC3 JUMPI JUMPDEST PUSH1 0x0 DUP1 REVERT JUMPDEST CALLVALUE DUP1 ISZERO PUSH2 0x50 JUMPI PUSH1 0x0 DUP1 REVERT JUMPDEST POP PUSH2 0x6B PUSH1 0x4 DUP1 CALLDATASIZE SUB DUP2 ADD SWAP1 PUSH2 0x66 SWAP2 SWAP1 PUSH2 0x10E JUMP JUMPDEST PUSH2 0xCD JUMP JUMPDEST STOP JUMPDEST CALLVALUE DUP1 ISZERO PUSH2 0x79 JUMPI PUSH1 0x0 DUP1 REVERT JUMPDEST POP PUSH2 0x82 PUSH2 0xEB JUMP JUMPDEST PUSH1 0x40 MLOAD PUSH2 0x8F SWAP2 SWAP1 PUSH2 0x14A JUMP JUMPDEST PUSH1 0x40 MLOAD DUP1 SWAP2 SUB SWAP1 RETURN JUMPDEST CALLVALUE DUP1 ISZERO PUSH2 0xA4 JUMPI PUSH1 0x0 DUP1 REVERT JUMPDEST POP PUSH2 0xAD PUSH2 0xF1 JUMP JUMPDEST PUSH1 0x40 MLOAD PUSH2 0xBA SWAP2 SWAP1 PUSH2 0x14A JUMP JUMPDEST PUSH1 0x40 MLOAD DUP1 SWAP2 SUB SWAP1 RETURN JUMPDEST PUSH2 0xCB PUSH2 0xF7 JUMP JUMPDEST STOP JUMPDEST PUSH1 0x3 DUP2 PUSH2 0xDA SWAP2 SWAP1 PUSH2 0x165 JUMP JUMPDEST PUSH1 0x0 DUP2 SWAP1 SSTORE POP PUSH1 0x33 PUSH1 0x1 DUP2 SWAP1 SSTORE POP POP JUMP JUMPDEST PUSH1 0x0 SLOAD DUP2 JUMP JUMPDEST PUSH1 0x1 SLOAD DUP2 JUMP JUMPDEST JUMP JUMPDEST PUSH1 0x0 DUP2 CALLDATALOAD SWAP1 POP PUSH2 0x108 DUP2 PUSH2 0x1FD JUMP JUMPDEST SWAP3 SWAP2 POP POP JUMP JUMPDEST PUSH1 0x0 PUSH1 0x20 DUP3 DUP5 SUB SLT ISZERO PUSH2 0x124 JUMPI PUSH2 0x123 PUSH2 0x1F8 JUMP JUMPDEST JUMPDEST PUSH1 0x0 PUSH2 0x132 DUP5 DUP3 DUP6 ADD PUSH2 0xF9 JUMP JUMPDEST SWAP2 POP POP SWAP3 SWAP2 POP POP JUMP JUMPDEST PUSH2 0x144 DUP2 PUSH2 0x1BF JUMP JUMPDEST DUP3 MSTORE POP POP JUMP JUMPDEST PUSH1 0x0 PUSH1 0x20 DUP3 ADD SWAP1 POP PUSH2 0x15F PUSH1 0x0 DUP4 ADD DUP5 PUSH2 0x13B JUMP JUMPDEST SWAP3 SWAP2 POP POP JUMP JUMPDEST PUSH1 0x0 PUSH2 0x170 DUP3 PUSH2 0x1BF JUMP JUMPDEST SWAP2 POP PUSH2 0x17B DUP4 PUSH2 0x1BF JUMP JUMPDEST SWAP3 POP DUP2 PUSH32 0xFFFFFFFFFFFFFFFFFFFFFFFFFFFFFFFFFFFFFFFFFFFFFFFFFFFFFFFFFFFFFFFF DIV DUP4 GT DUP3 ISZERO ISZERO AND ISZERO PUSH2 0x1B4 JUMPI PUSH2 0x1B3 PUSH2 0x1C9 JUMP JUMPDEST JUMPDEST DUP3 DUP3 MUL SWAP1 POP SWAP3 SWAP2 POP POP JUMP JUMPDEST PUSH1 0x0 DUP2 SWAP1 POP SWAP2 SWAP1 POP JUMP JUMPDEST PUSH32 0x4E487B7100000000000000000000000000000000000000000000000000000000 PUSH1 0x0 MSTORE PUSH1 0x11 PUSH1 0x4 MSTORE PUSH1 0x24 PUSH1 0x0 REVERT JUMPDEST PUSH1 0x0 DUP1 REVERT JUMPDEST PUSH2 0x206 DUP2 PUSH2 0x1BF JUMP JUMPDEST DUP2 EQ PUSH2 0x211 JUMPI PUSH1 0x0 DUP1 REVERT JUMPDEST POP JUMP INVALID LOG2 PUSH5 0x6970667358 0x22 SLT KECCAK256 SELFBALANCE MUL ADDMOD EXTCODESIZE SWAP5 DUP13 0xBA 0xB3 0xD4 0xE2 0xEC 0xE8 0x5C 0xB7 SWAP6 KECCAK256 PUSH31 0x4559D1C423F5340EE5342E7324882964736F6C634300080700330000000000 "
				},
				"gasEstimates": {
					"creation": {
						"codeDepositCost": "117200",
						"executionCost": "165",
						"totalCost": "117365"
					},
					"external": {
						"balance()": "2429",
						"balance1()": "2451",
						"doubleMyContract(uint256)": "infinite",
						"sendMeMoneyContract()": "164"
					}
				},
				"methodIdentifiers": {
					"balance()": "b69ef8a8",
					"balance1()": "c45c4f58",
					"doubleMyContract(uint256)": "1b19f14e",
					"sendMeMoneyContract()": "ecc41627"
				}
			},
			"storageLayout": {
				"storage": [
					{
						"astId": 3,
						"contract": "Documents/GitHub/ZeppelinProject/truffleautoproject5/contracts/DoubleMyContract.sol:DoubleMyContract",
						"label": "balance",
						"offset": 0,
						"slot": "0",
						"type": "t_uint256"
					},
					{
						"astId": 5,
						"contract": "Documents/GitHub/ZeppelinProject/truffleautoproject5/contracts/DoubleMyContract.sol:DoubleMyContract",
						"label": "balance1",
						"offset": 0,
						"slot": "1",
						"type": "t_uint256"
					}
				],
				"types": {
					"t_uint256": {
						"encoding": "inplace",
						"label": "uint256",
						"numberOfBytes": "32"
					}
				}
			},
			"userdoc": {
				"kind": "user",
				"methods": {},
				"version": 1
			}
		}
	}
}